{
  "contractName": "Divies",
  "abi": [
    {
      "constant": true,
      "inputs": [
        {
          "name": "",
          "type": "address"
        }
      ],
      "name": "pushers_",
      "outputs": [
        {
          "name": "tracker",
          "type": "uint256"
        },
        {
          "name": "time",
          "type": "uint256"
        }
      ],
      "payable": false,
      "stateMutability": "view",
      "type": "function"
    },
    {
      "constant": true,
      "inputs": [],
      "name": "pusherTracker_",
      "outputs": [
        {
          "name": "",
          "type": "uint256"
        }
      ],
      "payable": false,
      "stateMutability": "view",
      "type": "function"
    },
    {
      "constant": true,
      "inputs": [],
      "name": "rateLimiter_",
      "outputs": [
        {
          "name": "",
          "type": "uint256"
        }
      ],
      "payable": false,
      "stateMutability": "view",
      "type": "function"
    },
    {
      "payable": true,
      "stateMutability": "payable",
      "type": "fallback"
    },
    {
      "anonymous": false,
      "inputs": [
        {
          "indexed": false,
          "name": "pusher",
          "type": "address"
        },
        {
          "indexed": false,
          "name": "startingBalance",
          "type": "uint256"
        },
        {
          "indexed": false,
          "name": "masternodePayout",
          "type": "uint256"
        },
        {
          "indexed": false,
          "name": "finalBalance",
          "type": "uint256"
        },
        {
          "indexed": false,
          "name": "compressedData",
          "type": "uint256"
        }
      ],
      "name": "onDistribute",
      "type": "event"
    },
    {
      "constant": true,
      "inputs": [],
      "name": "balances",
      "outputs": [
        {
          "name": "",
          "type": "uint256"
        }
      ],
      "payable": false,
      "stateMutability": "view",
      "type": "function"
    },
    {
      "constant": false,
      "inputs": [],
      "name": "deposit",
      "outputs": [],
      "payable": true,
      "stateMutability": "payable",
      "type": "function"
    },
    {
      "constant": false,
      "inputs": [
        {
          "name": "_percent",
          "type": "uint256"
        }
      ],
      "name": "distribute",
      "outputs": [],
      "payable": false,
      "stateMutability": "nonpayable",
      "type": "function"
    }
  ],
  "bytecode": "0x6080604052606460005534801561001557600080fd5b50611250806100256000396000f300608060405260043610610078576000357c0100000000000000000000000000000000000000000000000000000000900463ffffffff1680631f75c3901461007a578063521ceba7146100d85780637bb98a681461010357806391c05b0b1461012e578063b519cf311461015b578063d0e30db014610186575b005b34801561008657600080fd5b506100bb600480360381019080803573ffffffffffffffffffffffffffffffffffffffff169060200190929190505050610190565b604051808381526020018281526020019250505060405180910390f35b3480156100e457600080fd5b506100ed6101b4565b6040518082815260200191505060405180910390f35b34801561010f57600080fd5b506101186101ba565b6040518082815260200191505060405180910390f35b34801561013a57600080fd5b50610159600480360381019080803590602001909291905050506101d9565b005b34801561016757600080fd5b50610170610e17565b6040518082815260200191505060405180910390f35b61018e610e1d565b005b60016020528060005260406000206000915090508060000154908060010154905082565b60005481565b60003073ffffffffffffffffffffffffffffffffffffffff1631905090565b600080600080600080600080339150813b9050600081141515610264576040517f08c379a00000000000000000000000000000000000000000000000000000000081526004018080602001828103825260118152602001807f736f7272792068756d616e73206f6e6c7900000000000000000000000000000081525060200191505060405180910390fd5b6000891180156102745750606489105b151561030e576040517f08c379a00000000000000000000000000000000000000000000000000000000081526004018080602001828103825260268152602001807f706c65617365207069636b20612070657263656e74206265747765656e20312081526020017f616e64203939000000000000000000000000000000000000000000000000000081525060400191505060405180910390fd5b3397503073ffffffffffffffffffffffffffffffffffffffff163196506103416064600054610e1f90919063ffffffff16565b600160008a73ffffffffffffffffffffffffffffffffffffffff1673ffffffffffffffffffffffffffffffffffffffff16815260200190815260200160002060000154111580156103e75750426103e5610e10600160008c73ffffffffffffffffffffffffffffffffffffffff1673ffffffffffffffffffffffffffffffffffffffff16815260200190815260200160002060010154610ea490919063ffffffff16565b105b15610c5f57600054600160008a73ffffffffffffffffffffffffffffffffffffffff1673ffffffffffffffffffffffffffffffffffffffff16815260200190815260200160002060000181905550600080815480929190600101919050555073b3775fb83f7d12a36e0475abdd1fca35c091efbe73ffffffffffffffffffffffffffffffffffffffff166356d399e86040518163ffffffff167c0100000000000000000000000000000000000000000000000000000000028152600401602060405180830381600087803b1580156104be57600080fd5b505af11580156104d2573d6000803e3d6000fd5b505050506040513d60208110156104e857600080fd5b810190808051906020019092919050505073b3775fb83f7d12a36e0475abdd1fca35c091efbe73ffffffffffffffffffffffffffffffffffffffff166370a082318a6040518263ffffffff167c0100000000000000000000000000000000000000000000000000000000028152600401808273ffffffffffffffffffffffffffffffffffffffff1673ffffffffffffffffffffffffffffffffffffffff168152602001915050602060405180830381600087803b1580156105a857600080fd5b505af11580156105bc573d6000803e3d6000fd5b505050506040513d60208110156105d257600080fd5b8101908080519060200190929190505050101515610606576003600a888115156105f857fe5b0481151561060257fe5b0495505b606461061e8a60640389610f2c90919063ffffffff16565b81151561062757fe5b04935073b3775fb83f7d12a36e0475abdd1fca35c091efbe73ffffffffffffffffffffffffffffffffffffffff1663f088d547888a6040518363ffffffff167c0100000000000000000000000000000000000000000000000000000000028152600401808273ffffffffffffffffffffffffffffffffffffffff1673ffffffffffffffffffffffffffffffffffffffff1681526020019150506020604051808303818588803b1580156106d957600080fd5b505af11580156106ed573d6000803e3d6000fd5b50505050506040513d602081101561070457600080fd5b81019080805190602001909291905050505073b3775fb83f7d12a36e0475abdd1fca35c091efbe73ffffffffffffffffffffffffffffffffffffffff1663e4849b3273b3775fb83f7d12a36e0475abdd1fca35c091efbe73ffffffffffffffffffffffffffffffffffffffff166370a08231306040518263ffffffff167c0100000000000000000000000000000000000000000000000000000000028152600401808273ffffffffffffffffffffffffffffffffffffffff1673ffffffffffffffffffffffffffffffffffffffff168152602001915050602060405180830381600087803b1580156107f557600080fd5b505af1158015610809573d6000803e3d6000fd5b505050506040513d602081101561081f57600080fd5b81019080805190602001909291905050506040518263ffffffff167c010000000000000000000000000000000000000000000000000000000002815260040180828152602001915050600060405180830381600087803b15801561088257600080fd5b505af1158015610896573d6000803e3d6000fd5b5050505073b3775fb83f7d12a36e0475abdd1fca35c091efbe73ffffffffffffffffffffffffffffffffffffffff166265318b306040518263ffffffff167c0100000000000000000000000000000000000000000000000000000000028152600401808273ffffffffffffffffffffffffffffffffffffffff1673ffffffffffffffffffffffffffffffffffffffff168152602001915050602060405180830381600087803b15801561094857600080fd5b505af115801561095c573d6000803e3d6000fd5b505050506040513d602081101561097257600080fd5b810190808051906020019092919050505092505b8383101515610bca5773b3775fb83f7d12a36e0475abdd1fca35c091efbe73ffffffffffffffffffffffffffffffffffffffff1663fdb5a03e6040518163ffffffff167c0100000000000000000000000000000000000000000000000000000000028152600401600060405180830381600087803b158015610a0757600080fd5b505af1158015610a1b573d6000803e3d6000fd5b5050505073b3775fb83f7d12a36e0475abdd1fca35c091efbe73ffffffffffffffffffffffffffffffffffffffff1663e4849b3273b3775fb83f7d12a36e0475abdd1fca35c091efbe73ffffffffffffffffffffffffffffffffffffffff166370a08231306040518263ffffffff167c0100000000000000000000000000000000000000000000000000000000028152600401808273ffffffffffffffffffffffffffffffffffffffff1673ffffffffffffffffffffffffffffffffffffffff168152602001915050602060405180830381600087803b158015610afe57600080fd5b505af1158015610b12573d6000803e3d6000fd5b505050506040513d6020811015610b2857600080fd5b81019080805190602001909291905050506040518263ffffffff167c010000000000000000000000000000000000000000000000000000000002815260040180828152602001915050600060405180830381600087803b158015610b8b57600080fd5b505af1158015610b9f573d6000803e3d6000fd5b505050506064610bb9605185610f2c90919063ffffffff16565b811515610bc257fe5b049250610986565b73b3775fb83f7d12a36e0475abdd1fca35c091efbe73ffffffffffffffffffffffffffffffffffffffff16633ccfd60b6040518163ffffffff167c0100000000000000000000000000000000000000000000000000000000028152600401600060405180830381600087803b158015610c4257600080fd5b505af1158015610c56573d6000803e3d6000fd5b50505050610c7b565b610c786001602f8088610fd0909392919063ffffffff16565b94505b42600160008a73ffffffffffffffffffffffffffffffffffffffff1673ffffffffffffffffffffffffffffffffffffffff16815260200190815260200160002060010181905550610cdb426000600e88610fd0909392919063ffffffff16565b9450610d38600160008a73ffffffffffffffffffffffffffffffffffffffff1673ffffffffffffffffffffffffffffffffffffffff16815260200190815260200160002060000154600f601d88610fd0909392919063ffffffff16565b9450610d55600054601e602c88610fd0909392919063ffffffff16565b9450610d7089602d602e88610fd0909392919063ffffffff16565b94507fa0e5739b8aab1e9b0469db4a982bc2211bdf4b0ed8b8aebe2e0d89d10057657d8888883073ffffffffffffffffffffffffffffffffffffffff163189604051808673ffffffffffffffffffffffffffffffffffffffff1673ffffffffffffffffffffffffffffffffffffffff1681526020018581526020018481526020018381526020018281526020019550505050505060405180910390a1505050505050505050565b60025481565b565b6000828211151515610e99576040517f08c379a00000000000000000000000000000000000000000000000000000000081526004018080602001828103825260138152602001807f536166654d61746820737562206661696c65640000000000000000000000000081525060200191505060405180910390fd5b818303905092915050565b60008183019050828110151515610f23576040517f08c379a00000000000000000000000000000000000000000000000000000000081526004018080602001828103825260138152602001807f536166654d61746820616464206661696c65640000000000000000000000000081525060200191505060405180910390fd5b80905092915050565b600080831415610f3f5760009050610fca565b8183029050818382811515610f5057fe5b04141515610fc6576040517f08c379a00000000000000000000000000000000000000000000000000000000081526004018080602001828103825260138152602001807f536166654d617468206d756c206661696c65640000000000000000000000000081525060200191505060405180910390fd5b8090505b92915050565b6000604d82108015610fe25750604d83105b1515611056576040517f08c379a000000000000000000000000000000000000000000000000000000000815260040180806020018281038252601e8152602001807f73746172742f656e64206d757374206265206c657373207468616e203737000081525060200191505060405180910390fd5b8282101515156110ce576040517f08c379a00000000000000000000000000000000000000000000000000000000081526004018080602001828103825260148152602001807f656e64206d757374206265203e3d20737461727400000000000000000000000081525060200191505060405180910390fd5b6110ea600a6110dc846111aa565b610f2c90919063ffffffff16565b91506110f5836111aa565b9250828281151561110257fe5b048410151561111057600080fd5b600084111561112f5761112c8385610f2c90919063ffffffff16565b93505b6111a061115083848881151561114157fe5b04610f2c90919063ffffffff16565b6111928661118461117588898c81151561116657fe5b04610f2c90919063ffffffff16565b8a610e1f90919063ffffffff16565b610ea490919063ffffffff16565b610ea490919063ffffffff16565b9050949350505050565b60006111c082600a6111c790919063ffffffff16565b9050919050565b6000806000808514156111dd576000925061121c565b60008414156111ef576001925061121c565b849150600190505b83811015611218576112098286610f2c565b915080806001019150506111f7565b8192505b5050929150505600a165627a7a72305820f02e2b4e002aaf77e4e766716f95427c269ca52523422cc32ec888c0e63a5a070029",
  "source": "pragma solidity ^0.4.24;\n/** title -Divies- v0.7.1\n * ┌┬┐┌─┐┌─┐┌┬┐   ╦╦ ╦╔═╗╔╦╗  ┌─┐┬─┐┌─┐┌─┐┌─┐┌┐┌┌┬┐┌─┐\n *  │ ├┤ ├─┤│││   ║║ ║╚═╗ ║   ├─┘├┬┘├┤ └─┐├┤ │││ │ └─┐\n *  ┴ └─┘┴ ┴┴ ┴  ╚╝╚═╝╚═╝ ╩   ┴  ┴└─└─┘└─┘└─┘┘└┘ ┴ └─┘\n *                                  _____                      _____\n *                                 (, /     /)       /) /)    (, /      /)          /)\n *          ┌─┐                      /   _ (/_      // //       /  _   // _   __  _(/\n *          ├─┤                  ___/___(/_/(__(_/_(/_(/_   ___/__/_)_(/_(_(_/ (_(_(_\n *          ┴ ┴                /   /          .-/ _____   (__ /                               \n *                            (__ /          (_/ (, /                                      /)™ \n *                                                 /  __  __ __ __  _   __ __  _  _/_ _  _(/\n * ┌─┐┬─┐┌─┐┌┬┐┬ ┬┌─┐┌┬┐                          /__/ (_(__(_)/ (_/_)_(_)/ (_(_(_(__(/_(_(_\n * ├─┘├┬┘│ │ │││ ││   │                      (__ /              .-/  © Jekyll Island Inc. 2018\n * ┴  ┴└─└─┘─┴┘└─┘└─┘ ┴                                        (_/\n *          ______      .-./`)  ,---.  ,---. .-./`)      .-''-.      .-'''-.   .---.  \n *=========|    _ `''.  \\ .-.') |   /  |   | \\ .-.')   .'_ _   \\    / _     \\  \\   /=========*\n *         | _ | ) _  \\ / `-' \\ |  |   |  .' / `-' \\  / ( ` )   '  (`' )/`--'  |   |  \n *         |( ''_'  ) |  `-'`\"` |  | _ |  |   `-'`\"` . (_ o _)  | (_ o _).      \\ /   \n *         | . (_) `. |  .---.  |  _( )_  |   .---.  |  (_,_)___|  (_,_). '.     v    \n *         |(_    ._) '  |   |  \\ (_ o._) /   |   |  '  \\   .---. .---.  \\  :   _ _   \n *         |  (_.\\.' /   |   |   \\ (_,_) /    |   |   \\  `-'    / \\    `-'  |  (_I_)  \n *=========|       .'    |   |    \\     /     |   |    \\       /   \\       /  (_(=)_)========* \n *         '-----'`      '---'     `---`      '---'     `'-..-'     `-...-'    (_I_)  \n * ╔═╗┌─┐┌┐┌┌┬┐┬─┐┌─┐┌─┐┌┬┐  ╔═╗┌─┐┌┬┐┌─┐ ┌──────────┐\n * ║  │ ││││ │ ├┬┘├─┤│   │   ║  │ │ ││├┤  │ Inventor │\n * ╚═╝└─┘┘└┘ ┴ ┴└─┴ ┴└─┘ ┴   ╚═╝└─┘─┴┘└─┘ └──────────┘\n *         ┌──────────────────────────────────────────────────────────────────────┐\n *         │ Divies!, is a contract that adds an external dividend system to P3D. │\n *         │ All eth sent to this contract, can be distributed to P3D holders.    │\n *         │ Uses msg.sender as masternode for initial buy order.                 │\n *         └──────────────────────────────────────────────────────────────────────┘\n *                                ┌────────────────────┐\n *                                │ Setup Instructions │\n *                                └────────────────────┘\n * (Step 1) import this contracts interface into your contract\n * \n *    import \"./DiviesInterface.sol\";\n * \n * (Step 2) set up the interface and point it to this contract\n * \n *    DiviesInterface private Divies = DiviesInterface(0xc7029Ed9EBa97A096e72607f4340c34049C7AF48);\n *                                ┌────────────────────┐\n *                                │ Usage Instructions │\n *                                └────────────────────┘\n * call as follows anywhere in your code:\n *   \n *    Divies.deposit.value(amount)();\n *          ex:  Divies.deposit.value(232000000000000000000)();\n */\n\nimport \"./interface/DiviesInterface.sol\";\nimport \"./library/SafeMath.sol\";\nimport \"./library/UintCompressor.sol\";\nimport \"./interface/HourglassInterface.sol\";\n\ncontract Divies {\n    using SafeMath for uint256;\n    using UintCompressor for uint256;\n\n    HourglassInterface constant P3Dcontract_ = HourglassInterface(0xB3775fB83F7D12A36E0475aBdD1FCA35c091efBe);\n    \n    uint256 public pusherTracker_ = 100;\n    mapping (address => Pusher) public pushers_;\n    struct Pusher\n    {\n        uint256 tracker;\n        uint256 time;\n    }\n    uint256 public rateLimiter_;\n    \n    //^^^^^^^^^^^^^^^^^^^^^^^^^^^^^^^^^^^^^^^^^^^^^^^^^^^^^^^^^^^^^^^^^\n    // MODIFIERS\n    //^^^^^^^^^^^^^^^^^^^^^^^^^^^^^^^^^^^^^^^^^^^^^^^^^^^^^^^^^^^^^^^^^\n    modifier isHuman() {\n        address _addr = msg.sender;\n        uint256 _codeLength;\n        \n        assembly {_codeLength := extcodesize(_addr)}\n        require(_codeLength == 0, \"sorry humans only\");\n        _;\n    }\n    \n    //^^^^^^^^^^^^^^^^^^^^^^^^^^^^^^^^^^^^^^^^^^^^^^^^^^^^^^^^^^^^^^^^^\n    // BALANCE\n    //^^^^^^^^^^^^^^^^^^^^^^^^^^^^^^^^^^^^^^^^^^^^^^^^^^^^^^^^^^^^^^^^^\n    function balances()\n        public\n        view\n        returns(uint256)\n    {\n        return (address(this).balance);\n    }\n    \n    \n    //^^^^^^^^^^^^^^^^^^^^^^^^^^^^^^^^^^^^^^^^^^^^^^^^^^^^^^^^^^^^^^^^^\n    // DEPOSIT\n    //^^^^^^^^^^^^^^^^^^^^^^^^^^^^^^^^^^^^^^^^^^^^^^^^^^^^^^^^^^^^^^^^^\n    function deposit()\n        external\n        payable\n    {\n        \n    }\n    \n    // used so the distribute function can call hourglass's withdraw\n    function() external payable {}\n    \n    \n    //^^^^^^^^^^^^^^^^^^^^^^^^^^^^^^^^^^^^^^^^^^^^^^^^^^^^^^^^^^^^^^^^^\n    // EVENTS\n    //^^^^^^^^^^^^^^^^^^^^^^^^^^^^^^^^^^^^^^^^^^^^^^^^^^^^^^^^^^^^^^^^^\n    event onDistribute(\n        address pusher,\n        uint256 startingBalance,\n        uint256 masternodePayout,\n        uint256 finalBalance,\n        uint256 compressedData\n    );\n    /* compression key\n    [0-14] - timestamp\n    [15-29] - caller pusher tracker \n    [30-44] - global pusher tracker \n    [45-46] - percent\n    [47] - greedy\n    */  \n    \n    \n    //^^^^^^^^^^^^^^^^^^^^^^^^^^^^^^^^^^^^^^^^^^^^^^^^^^^^^^^^^^^^^^^^^\n    // DISTRIBUTE\n    //^^^^^^^^^^^^^^^^^^^^^^^^^^^^^^^^^^^^^^^^^^^^^^^^^^^^^^^^^^^^^^^^^\n    function distribute(uint256 _percent)\n        public\n        isHuman()\n    {\n        // make sure _percent is within boundaries\n        require(_percent > 0 && _percent < 100, \"please pick a percent between 1 and 99\");\n        \n        // data setup\n        address _pusher = msg.sender;\n        uint256 _bal = address(this).balance;\n        uint256 _mnPayout;\n        uint256 _compressedData;\n        \n        // limit pushers greed (use \"if\" instead of require for level 42 top kek)\n        if (\n            pushers_[_pusher].tracker <= pusherTracker_.sub(100) && // pusher is greedy: wait your turn\n            pushers_[_pusher].time.add(1 hours) < now               // pusher is greedy: its not even been 1 hour\n        )\n        {\n            // update pushers wait que \n            pushers_[_pusher].tracker = pusherTracker_;\n            pusherTracker_++;\n            \n            // setup mn payout for event\n            if (P3Dcontract_.balanceOf(_pusher) >= P3Dcontract_.stakingRequirement())\n                _mnPayout = (_bal / 10) / 3;\n            \n            // setup _stop.  this will be used to tell the loop to stop\n            uint256 _stop = (_bal.mul(100 - _percent)) / 100;\n            \n            // buy & sell    \n            P3Dcontract_.buy.value(_bal)(_pusher);\n            P3Dcontract_.sell(P3Dcontract_.balanceOf(address(this)));\n            \n            // setup tracker.  this will be used to tell the loop to stop\n            uint256 _tracker = P3Dcontract_.dividendsOf(address(this));\n    \n            // reinvest/sell loop\n            while (_tracker >= _stop) \n            {\n                // lets burn some tokens to distribute dividends to p3d holders\n                P3Dcontract_.reinvest();\n                P3Dcontract_.sell(P3Dcontract_.balanceOf(address(this)));\n                \n                // update our tracker with estimates (yea. not perfect, but cheaper on gas)\n                _tracker = (_tracker.mul(81)) / 100;\n            }\n            \n            // withdraw\n            P3Dcontract_.withdraw();\n        } else {\n            _compressedData = _compressedData.insert(1, 47, 47);\n        }\n        \n        // update pushers timestamp  (do outside of \"if\" for super saiyan level top kek)\n        pushers_[_pusher].time = now;\n    \n        // prep event compression data \n        _compressedData = _compressedData.insert(now, 0, 14);\n        _compressedData = _compressedData.insert(pushers_[_pusher].tracker, 15, 29);\n        _compressedData = _compressedData.insert(pusherTracker_, 30, 44);\n        _compressedData = _compressedData.insert(_percent, 45, 46);\n            \n        // fire event\n        emit onDistribute(_pusher, _bal, _mnPayout, address(this).balance, _compressedData);\n    }\n}\n",
  "sourcePath": "/root/projects/fomo3d_clone/contracts/Divies.sol",
  "compiler": {
    "name": "solc",
    "version": "0.4.24+commit.e67f0147.Emscripten.clang"
  },
  "schemaVersion": "2.0.1",
  "updatedAt": "2018-07-31T18:01:56.712Z"
}