{
  "contractName": "FoMo3Dlong",
  "abi": [
    {
      "constant": true,
      "inputs": [],
      "name": "name",
      "outputs": [
        {
          "name": "",
          "type": "string"
        }
      ],
      "payable": false,
      "stateMutability": "view",
      "type": "function"
    },
    {
      "constant": true,
      "inputs": [],
      "name": "rndExtra_",
      "outputs": [
        {
          "name": "",
          "type": "uint256"
        }
      ],
      "payable": false,
      "stateMutability": "view",
      "type": "function"
    },
    {
      "constant": true,
      "inputs": [
        {
          "name": "",
          "type": "uint256"
        }
      ],
      "name": "round_",
      "outputs": [
        {
          "name": "plyr",
          "type": "address"
        },
        {
          "name": "team",
          "type": "uint256"
        },
        {
          "name": "end",
          "type": "uint256"
        },
        {
          "name": "ended",
          "type": "bool"
        },
        {
          "name": "strt",
          "type": "uint256"
        },
        {
          "name": "keys",
          "type": "uint256"
        },
        {
          "name": "eth",
          "type": "uint256"
        },
        {
          "name": "pot",
          "type": "uint256"
        },
        {
          "name": "mask",
          "type": "uint256"
        },
        {
          "name": "ico",
          "type": "uint256"
        },
        {
          "name": "icoGen",
          "type": "uint256"
        },
        {
          "name": "icoAvg",
          "type": "uint256"
        }
      ],
      "payable": false,
      "stateMutability": "view",
      "type": "function"
    },
    {
      "constant": true,
      "inputs": [
        {
          "name": "",
          "type": "uint256"
        }
      ],
      "name": "fees_",
      "outputs": [
        {
          "name": "gen",
          "type": "uint256"
        },
        {
          "name": "p3d",
          "type": "uint256"
        }
      ],
      "payable": false,
      "stateMutability": "view",
      "type": "function"
    },
    {
      "constant": true,
      "inputs": [],
      "name": "decimals",
      "outputs": [
        {
          "name": "",
          "type": "uint256"
        }
      ],
      "payable": false,
      "stateMutability": "view",
      "type": "function"
    },
    {
      "constant": true,
      "inputs": [],
      "name": "exchangeRate",
      "outputs": [
        {
          "name": "",
          "type": "uint256"
        }
      ],
      "payable": false,
      "stateMutability": "view",
      "type": "function"
    },
    {
      "constant": true,
      "inputs": [
        {
          "name": "",
          "type": "address"
        },
        {
          "name": "",
          "type": "uint256"
        }
      ],
      "name": "plyrRnds_",
      "outputs": [
        {
          "name": "eth",
          "type": "uint256"
        },
        {
          "name": "keys",
          "type": "uint256"
        },
        {
          "name": "mask",
          "type": "uint256"
        },
        {
          "name": "ico",
          "type": "uint256"
        }
      ],
      "payable": false,
      "stateMutability": "view",
      "type": "function"
    },
    {
      "constant": true,
      "inputs": [
        {
          "name": "",
          "type": "uint256"
        },
        {
          "name": "",
          "type": "uint256"
        }
      ],
      "name": "rndTmEth_",
      "outputs": [
        {
          "name": "",
          "type": "uint256"
        }
      ],
      "payable": false,
      "stateMutability": "view",
      "type": "function"
    },
    {
      "constant": true,
      "inputs": [],
      "name": "rID_",
      "outputs": [
        {
          "name": "",
          "type": "uint256"
        }
      ],
      "payable": false,
      "stateMutability": "view",
      "type": "function"
    },
    {
      "constant": true,
      "inputs": [],
      "name": "symbol",
      "outputs": [
        {
          "name": "",
          "type": "string"
        }
      ],
      "payable": false,
      "stateMutability": "view",
      "type": "function"
    },
    {
      "constant": true,
      "inputs": [],
      "name": "rndGap_",
      "outputs": [
        {
          "name": "",
          "type": "uint256"
        }
      ],
      "payable": false,
      "stateMutability": "view",
      "type": "function"
    },
    {
      "constant": true,
      "inputs": [
        {
          "name": "",
          "type": "uint256"
        }
      ],
      "name": "potSplit_",
      "outputs": [
        {
          "name": "gen",
          "type": "uint256"
        },
        {
          "name": "p3d",
          "type": "uint256"
        }
      ],
      "payable": false,
      "stateMutability": "view",
      "type": "function"
    },
    {
      "constant": true,
      "inputs": [
        {
          "name": "",
          "type": "address"
        }
      ],
      "name": "plyr_",
      "outputs": [
        {
          "name": "addr",
          "type": "address"
        },
        {
          "name": "win",
          "type": "uint256"
        },
        {
          "name": "gen",
          "type": "uint256"
        },
        {
          "name": "aff",
          "type": "uint256"
        },
        {
          "name": "lrnd",
          "type": "uint256"
        },
        {
          "name": "laff",
          "type": "address"
        }
      ],
      "payable": false,
      "stateMutability": "view",
      "type": "function"
    },
    {
      "constant": true,
      "inputs": [],
      "name": "activated_",
      "outputs": [
        {
          "name": "",
          "type": "bool"
        }
      ],
      "payable": false,
      "stateMutability": "view",
      "type": "function"
    },
    {
      "constant": true,
      "inputs": [],
      "name": "token",
      "outputs": [
        {
          "name": "",
          "type": "address"
        }
      ],
      "payable": false,
      "stateMutability": "view",
      "type": "function"
    },
    {
      "inputs": [
        {
          "name": "Jekyll_Island_Inc_Addr",
          "type": "address"
        },
        {
          "name": "tokenAddr",
          "type": "address"
        },
        {
          "name": "_exchangeRate",
          "type": "uint256"
        }
      ],
      "payable": false,
      "stateMutability": "nonpayable",
      "type": "constructor"
    },
    {
      "anonymous": false,
      "inputs": [
        {
          "indexed": true,
          "name": "playerID",
          "type": "uint256"
        },
        {
          "indexed": true,
          "name": "playerAddress",
          "type": "address"
        },
        {
          "indexed": true,
          "name": "playerName",
          "type": "bytes32"
        },
        {
          "indexed": false,
          "name": "isNewPlayer",
          "type": "bool"
        },
        {
          "indexed": false,
          "name": "affiliateID",
          "type": "uint256"
        },
        {
          "indexed": false,
          "name": "affiliateAddress",
          "type": "address"
        },
        {
          "indexed": false,
          "name": "affiliateName",
          "type": "bytes32"
        },
        {
          "indexed": false,
          "name": "amountPaid",
          "type": "uint256"
        },
        {
          "indexed": false,
          "name": "timeStamp",
          "type": "uint256"
        }
      ],
      "name": "onNewName",
      "type": "event"
    },
    {
      "anonymous": false,
      "inputs": [
        {
          "indexed": false,
          "name": "compressedData",
          "type": "uint256"
        },
        {
          "indexed": false,
          "name": "compressedIDs",
          "type": "uint256"
        },
        {
          "indexed": false,
          "name": "playerAddress",
          "type": "address"
        },
        {
          "indexed": false,
          "name": "ethIn",
          "type": "uint256"
        },
        {
          "indexed": false,
          "name": "keysBought",
          "type": "uint256"
        },
        {
          "indexed": false,
          "name": "winnerAddr",
          "type": "address"
        },
        {
          "indexed": false,
          "name": "winnerName",
          "type": "bytes32"
        },
        {
          "indexed": false,
          "name": "amountWon",
          "type": "uint256"
        },
        {
          "indexed": false,
          "name": "newPot",
          "type": "uint256"
        },
        {
          "indexed": false,
          "name": "P3DAmount",
          "type": "uint256"
        },
        {
          "indexed": false,
          "name": "genAmount",
          "type": "uint256"
        },
        {
          "indexed": false,
          "name": "potAmount",
          "type": "uint256"
        }
      ],
      "name": "onEndTx",
      "type": "event"
    },
    {
      "anonymous": false,
      "inputs": [
        {
          "indexed": true,
          "name": "playerID",
          "type": "address"
        },
        {
          "indexed": false,
          "name": "ethOut",
          "type": "uint256"
        },
        {
          "indexed": false,
          "name": "timeStamp",
          "type": "uint256"
        }
      ],
      "name": "onWithdraw",
      "type": "event"
    },
    {
      "anonymous": false,
      "inputs": [
        {
          "indexed": false,
          "name": "playerAddress",
          "type": "address"
        },
        {
          "indexed": false,
          "name": "ethOut",
          "type": "uint256"
        },
        {
          "indexed": false,
          "name": "compressedData",
          "type": "uint256"
        },
        {
          "indexed": false,
          "name": "compressedIDs",
          "type": "uint256"
        },
        {
          "indexed": false,
          "name": "winnerAddr",
          "type": "address"
        },
        {
          "indexed": false,
          "name": "amountWon",
          "type": "uint256"
        },
        {
          "indexed": false,
          "name": "newPot",
          "type": "uint256"
        },
        {
          "indexed": false,
          "name": "P3DAmount",
          "type": "uint256"
        },
        {
          "indexed": false,
          "name": "genAmount",
          "type": "uint256"
        }
      ],
      "name": "onWithdrawAndDistribute",
      "type": "event"
    },
    {
      "anonymous": false,
      "inputs": [
        {
          "indexed": false,
          "name": "playerAddress",
          "type": "address"
        },
        {
          "indexed": false,
          "name": "ethIn",
          "type": "uint256"
        },
        {
          "indexed": false,
          "name": "compressedData",
          "type": "uint256"
        },
        {
          "indexed": false,
          "name": "compressedIDs",
          "type": "uint256"
        },
        {
          "indexed": false,
          "name": "winnerAddr",
          "type": "address"
        },
        {
          "indexed": false,
          "name": "winnerName",
          "type": "bytes32"
        },
        {
          "indexed": false,
          "name": "amountWon",
          "type": "uint256"
        },
        {
          "indexed": false,
          "name": "newPot",
          "type": "uint256"
        },
        {
          "indexed": false,
          "name": "P3DAmount",
          "type": "uint256"
        },
        {
          "indexed": false,
          "name": "genAmount",
          "type": "uint256"
        }
      ],
      "name": "onBuyAndDistribute",
      "type": "event"
    },
    {
      "anonymous": false,
      "inputs": [
        {
          "indexed": false,
          "name": "playerAddress",
          "type": "address"
        },
        {
          "indexed": false,
          "name": "compressedData",
          "type": "uint256"
        },
        {
          "indexed": false,
          "name": "compressedIDs",
          "type": "uint256"
        },
        {
          "indexed": false,
          "name": "winnerAddr",
          "type": "address"
        },
        {
          "indexed": false,
          "name": "winnerName",
          "type": "bytes32"
        },
        {
          "indexed": false,
          "name": "amountWon",
          "type": "uint256"
        },
        {
          "indexed": false,
          "name": "newPot",
          "type": "uint256"
        },
        {
          "indexed": false,
          "name": "P3DAmount",
          "type": "uint256"
        },
        {
          "indexed": false,
          "name": "genAmount",
          "type": "uint256"
        }
      ],
      "name": "onReLoadAndDistribute",
      "type": "event"
    },
    {
      "anonymous": false,
      "inputs": [
        {
          "indexed": true,
          "name": "affiliateID",
          "type": "address"
        },
        {
          "indexed": true,
          "name": "roundID",
          "type": "uint256"
        },
        {
          "indexed": true,
          "name": "buyerID",
          "type": "address"
        },
        {
          "indexed": false,
          "name": "amount",
          "type": "uint256"
        },
        {
          "indexed": false,
          "name": "timeStamp",
          "type": "uint256"
        }
      ],
      "name": "onAffiliatePayout",
      "type": "event"
    },
    {
      "anonymous": false,
      "inputs": [
        {
          "indexed": false,
          "name": "roundID",
          "type": "uint256"
        },
        {
          "indexed": false,
          "name": "amountAddedToPot",
          "type": "uint256"
        }
      ],
      "name": "onPotSwapDeposit",
      "type": "event"
    },
    {
      "constant": false,
      "inputs": [
        {
          "name": "_affCode",
          "type": "address"
        },
        {
          "name": "_team",
          "type": "uint256"
        },
        {
          "name": "val",
          "type": "uint256"
        }
      ],
      "name": "buyXaddr",
      "outputs": [],
      "payable": false,
      "stateMutability": "nonpayable",
      "type": "function"
    },
    {
      "constant": false,
      "inputs": [
        {
          "name": "_affCode",
          "type": "address"
        },
        {
          "name": "_team",
          "type": "uint256"
        },
        {
          "name": "_eth",
          "type": "uint256"
        }
      ],
      "name": "reLoadXaddr",
      "outputs": [],
      "payable": false,
      "stateMutability": "nonpayable",
      "type": "function"
    },
    {
      "constant": false,
      "inputs": [],
      "name": "withdraw",
      "outputs": [],
      "payable": false,
      "stateMutability": "nonpayable",
      "type": "function"
    },
    {
      "constant": true,
      "inputs": [],
      "name": "getBuyPrice",
      "outputs": [
        {
          "name": "",
          "type": "uint256"
        }
      ],
      "payable": false,
      "stateMutability": "view",
      "type": "function"
    },
    {
      "constant": true,
      "inputs": [],
      "name": "getTimeLeft",
      "outputs": [
        {
          "name": "",
          "type": "uint256"
        },
        {
          "name": "",
          "type": "bool"
        }
      ],
      "payable": false,
      "stateMutability": "view",
      "type": "function"
    },
    {
      "constant": true,
      "inputs": [
        {
          "name": "_pID",
          "type": "address"
        }
      ],
      "name": "getPlayerVaults",
      "outputs": [
        {
          "name": "",
          "type": "uint256"
        },
        {
          "name": "",
          "type": "uint256"
        },
        {
          "name": "",
          "type": "uint256"
        }
      ],
      "payable": false,
      "stateMutability": "view",
      "type": "function"
    },
    {
      "constant": true,
      "inputs": [],
      "name": "getCurrentRoundInfo",
      "outputs": [
        {
          "name": "",
          "type": "uint256"
        },
        {
          "name": "",
          "type": "uint256"
        },
        {
          "name": "",
          "type": "uint256"
        },
        {
          "name": "",
          "type": "uint256"
        },
        {
          "name": "",
          "type": "uint256"
        },
        {
          "name": "",
          "type": "uint256"
        },
        {
          "name": "",
          "type": "uint256"
        },
        {
          "name": "",
          "type": "address"
        },
        {
          "name": "",
          "type": "uint256"
        },
        {
          "name": "",
          "type": "uint256"
        },
        {
          "name": "",
          "type": "uint256"
        },
        {
          "name": "",
          "type": "uint256"
        }
      ],
      "payable": false,
      "stateMutability": "view",
      "type": "function"
    },
    {
      "constant": true,
      "inputs": [
        {
          "name": "_addr",
          "type": "address"
        }
      ],
      "name": "getPlayerInfoByAddress",
      "outputs": [
        {
          "name": "",
          "type": "address"
        },
        {
          "name": "",
          "type": "uint256"
        },
        {
          "name": "",
          "type": "uint256"
        },
        {
          "name": "",
          "type": "uint256"
        }
      ],
      "payable": false,
      "stateMutability": "view",
      "type": "function"
    },
    {
      "constant": true,
      "inputs": [
        {
          "name": "_pID",
          "type": "address"
        },
        {
          "name": "_rIDlast",
          "type": "uint256"
        }
      ],
      "name": "calcUnMaskedEarnings",
      "outputs": [
        {
          "name": "",
          "type": "uint256"
        }
      ],
      "payable": false,
      "stateMutability": "view",
      "type": "function"
    },
    {
      "constant": true,
      "inputs": [
        {
          "name": "_rID",
          "type": "uint256"
        },
        {
          "name": "_eth",
          "type": "uint256"
        }
      ],
      "name": "calcKeysReceived",
      "outputs": [
        {
          "name": "",
          "type": "uint256"
        }
      ],
      "payable": false,
      "stateMutability": "view",
      "type": "function"
    },
    {
      "constant": true,
      "inputs": [
        {
          "name": "_keys",
          "type": "uint256"
        }
      ],
      "name": "iWantXKeys",
      "outputs": [
        {
          "name": "",
          "type": "uint256"
        }
      ],
      "payable": false,
      "stateMutability": "view",
      "type": "function"
    },
    {
      "constant": false,
      "inputs": [],
      "name": "activate",
      "outputs": [],
      "payable": false,
      "stateMutability": "nonpayable",
      "type": "function"
    }
  ],
  "bytecode": "0x60806040526012600255607860045560786005556000600d60006101000a81548160ff02191690831515021790555034801561003a57600080fd5b5060405160608061550283398101806040528101908080519060200190929190805190602001909291908051906020019092919050505080600381905550826000806101000a81548173ffffffffffffffffffffffffffffffffffffffff021916908373ffffffffffffffffffffffffffffffffffffffff16021790555081600160006101000a81548173ffffffffffffffffffffffffffffffffffffffff021916908373ffffffffffffffffffffffffffffffffffffffff1602179055506040805190810160405280601e81526020016000815250600b600080815260200190815260200160002060008201518160000155602082015181600101559050506040805190810160405280601e81526020016000815250600b60006001815260200190815260200160002060008201518160000155602082015181600101559050506040805190810160405280601e81526020016000815250600b60006002815260200190815260200160002060008201518160000155602082015181600101559050506040805190810160405280601e81526020016000815250600b60006003815260200190815260200160002060008201518160000155602082015181600101559050506040805190810160405280600081526020016000815250600c600080815260200190815260200160002060008201518160000155602082015181600101559050506040805190810160405280600081526020016000815250600c60006001815260200190815260200160002060008201518160000155602082015181600101559050506040805190810160405280600081526020016000815250600c60006002815260200190815260200160002060008201518160000155602082015181600101559050506040805190810160405280600081526020016000815250600c60006003815260200190815260200160002060008201518160000155602082015181600101559050505050506151e9806103196000396000f30060806040526004361061015f576000357c0100000000000000000000000000000000000000000000000000000000900463ffffffff168063018a25e81461016457806306fdde031461018f5780630cfa1d121461021f5780630f15f4c01461024a578063179bc1d6146102615780631f1e2cfa146102b857806324c33d33146103195780632ce21999146103d7578063313ce5671461041f5780633ba0b9a91461044a5780633ccfd60b14610475578063452b381d1461048c5780635893d48114610502578063624ae5c01461054d578063747dff421461057857806382bfc7391461061c57806395d89b4114610673578063b74bd09e14610703578063c519500e1461072e578063c68b0cd414610776578063c7e284b814610848578063ce89c80c1461087e578063cf808000146108c9578063d53b26791461090a578063ee0b5d8b14610939578063f265dd00146109d1578063fc0c546a14610a36575b600080fd5b34801561017057600080fd5b50610179610a8d565b6040518082815260200191505060405180910390f35b34801561019b57600080fd5b506101a4610bb7565b6040518080602001828103825283818151815260200191508051906020019080838360005b838110156101e45780820151818401526020810190506101c9565b50505050905090810190601f1680156102115780820380516001836020036101000a031916815260200191505b509250505060405180910390f35b34801561022b57600080fd5b50610234610bf0565b6040518082815260200191505060405180910390f35b34801561025657600080fd5b5061025f610bf6565b005b34801561026d57600080fd5b506102b6600480360381019080803573ffffffffffffffffffffffffffffffffffffffff1690602001909291908035906020019092919080359060200190929190505050610cee565b005b3480156102c457600080fd5b50610303600480360381019080803573ffffffffffffffffffffffffffffffffffffffff16906020019092919080359060200190929190505050611356565b6040518082815260200191505060405180910390f35b34801561032557600080fd5b5061034460048036038101908080359060200190929190505050611454565b604051808d73ffffffffffffffffffffffffffffffffffffffff1673ffffffffffffffffffffffffffffffffffffffff1681526020018c81526020018b81526020018a1515151581526020018981526020018881526020018781526020018681526020018581526020018481526020018381526020018281526020019c5050505050505050505050505060405180910390f35b3480156103e357600080fd5b50610402600480360381019080803590602001909291905050506114e1565b604051808381526020018281526020019250505060405180910390f35b34801561042b57600080fd5b50610434611505565b6040518082815260200191505060405180910390f35b34801561045657600080fd5b5061045f61150b565b6040518082815260200191505060405180910390f35b34801561048157600080fd5b5061048a611511565b005b34801561049857600080fd5b506104d7600480360381019080803573ffffffffffffffffffffffffffffffffffffffff16906020019092919080359060200190929190505050611b2e565b6040518085815260200184815260200183815260200182815260200194505050505060405180910390f35b34801561050e57600080fd5b506105376004803603810190808035906020019092919080359060200190929190505050611b6b565b6040518082815260200191505060405180910390f35b34801561055957600080fd5b50610562611b90565b6040518082815260200191505060405180910390f35b34801561058457600080fd5b5061058d611b96565b604051808d81526020018c81526020018b81526020018a81526020018981526020018881526020018781526020018673ffffffffffffffffffffffffffffffffffffffff1673ffffffffffffffffffffffffffffffffffffffff1681526020018581526020018481526020018381526020018281526020019c5050505050505050505050505060405180910390f35b34801561062857600080fd5b50610671600480360381019080803573ffffffffffffffffffffffffffffffffffffffff1690602001909291908035906020019092919080359060200190929190505050611d2f565b005b34801561067f57600080fd5b506106886121af565b6040518080602001828103825283818151815260200191508051906020019080838360005b838110156106c85780820151818401526020810190506106ad565b50505050905090810190601f1680156106f55780820380516001836020036101000a031916815260200191505b509250505060405180910390f35b34801561070f57600080fd5b506107186121e8565b6040518082815260200191505060405180910390f35b34801561073a57600080fd5b50610759600480360381019080803590602001909291905050506121ee565b604051808381526020018281526020019250505060405180910390f35b34801561078257600080fd5b506107b7600480360381019080803573ffffffffffffffffffffffffffffffffffffffff169060200190929190505050612212565b604051808773ffffffffffffffffffffffffffffffffffffffff1673ffffffffffffffffffffffffffffffffffffffff1681526020018681526020018581526020018481526020018381526020018273ffffffffffffffffffffffffffffffffffffffff1673ffffffffffffffffffffffffffffffffffffffff168152602001965050505050505060405180910390f35b34801561085457600080fd5b5061085d61228e565b60405180838152602001821515151581526020019250505060405180910390f35b34801561088a57600080fd5b506108b3600480360381019080803590602001909291908035906020019092919050505061235a565b6040518082815260200191505060405180910390f35b3480156108d557600080fd5b506108f46004803603810190808035906020019092919050505061245f565b6040518082815260200191505060405180910390f35b34801561091657600080fd5b5061091f61257d565b604051808215151515815260200191505060405180910390f35b34801561094557600080fd5b5061097a600480360381019080803573ffffffffffffffffffffffffffffffffffffffff169060200190929190505050612590565b604051808573ffffffffffffffffffffffffffffffffffffffff1673ffffffffffffffffffffffffffffffffffffffff16815260200184815260200183815260200182815260200194505050505060405180910390f35b3480156109dd57600080fd5b50610a12600480360381019080803573ffffffffffffffffffffffffffffffffffffffff1690602001909291905050506126a7565b60405180848152602001838152602001828152602001935050505060405180910390f35b348015610a4257600080fd5b50610a4b612bea565b604051808273ffffffffffffffffffffffffffffffffffffffff1673ffffffffffffffffffffffffffffffffffffffff16815260200191505060405180910390f35b6000806000600654915042905060055460096000848152602001908152602001600020600401540181118015610b515750600960008381526020019081526020016000206002015481111580610b505750600960008381526020019081526020016000206002015481118015610b4f575060006009600084815260200190815260200160002060000160009054906101000a900473ffffffffffffffffffffffffffffffffffffffff1673ffffffffffffffffffffffffffffffffffffffff16145b5b5b15610ba857610ba1670de0b6b3a7640000610b93670de0b6b3a76400006009600087815260200190815260200160002060050154612c1090919063ffffffff16565b612c9890919063ffffffff16565b9250610bb2565b6544364c5bb00092505b505090565b6040805190810160405280601481526020017f466f4d6f3344204c6f6e67204f6666696369616c00000000000000000000000081525081565b60045481565b60001515600d60009054906101000a900460ff161515141515610c81576040517f08c379a00000000000000000000000000000000000000000000000000000000081526004018080602001828103825260188152602001807f666f6d6f336420616c726561647920616374697661746564000000000000000081525060200191505060405180910390fd5b6001600d60006101000a81548160ff0219169083151502179055506001600681905550600554600454420103600960006001815260200190815260200160002060040181905550600454610e10420101600960006001815260200190815260200160002060020181905550565b610cf6615157565b600080600060011515600d60009054906101000a900460ff161515141515610dac576040517f08c379a00000000000000000000000000000000000000000000000000000000081526004018080602001828103825260298152602001807f697473206e6f74207265616479207965742e2020636865636b203f657461206981526020017f6e20646973636f7264000000000000000000000000000000000000000000000081525060400191505060405180910390fd5b600080339150813b9050600081141515610e2e576040517f08c379a00000000000000000000000000000000000000000000000000000000081526004018080602001828103825260118152602001807f736f7272792068756d616e73206f6e6c7900000000000000000000000000000081525060200191505060405180910390fd5b866000600254600a0a9050806001028210151515610eda576040517f08c379a00000000000000000000000000000000000000000000000000000000081526004018080602001828103825260218152602001807f706f636b6574206c696e743a206e6f7420612076616c69642063757272656e6381526020017f790000000000000000000000000000000000000000000000000000000000000081525060400191505060405180910390fd5b8062989680028211151515610f57576040517f08c379a000000000000000000000000000000000000000000000000000000000815260040180806020018281038252600e8152602001807f6e6f20766974616c696b2c206e6f00000000000000000000000000000000000081525060200191505060405180910390fd5b600160009054906101000a900473ffffffffffffffffffffffffffffffffffffffff1673ffffffffffffffffffffffffffffffffffffffff166323b872dd33308c6040518463ffffffff167c0100000000000000000000000000000000000000000000000000000000028152600401808473ffffffffffffffffffffffffffffffffffffffff1673ffffffffffffffffffffffffffffffffffffffff1681526020018373ffffffffffffffffffffffffffffffffffffffff1673ffffffffffffffffffffffffffffffffffffffff1681526020018281526020019350505050602060405180830381600087803b15801561105057600080fd5b505af1158015611064573d6000803e3d6000fd5b505050506040513d602081101561107a57600080fd5b81019080805190602001909291905050501515611125576040517f08c379a00000000000000000000000000000000000000000000000000000000081526004018080602001828103825260308152602001807f417070726f7665206d6f72652065746865727320746f206265207370656e742081526020017f6279207468697320636f6e74726163740000000000000000000000000000000081525060400191505060405180910390fd5b61113a6003548a612cd790919063ffffffff16565b9650339550600073ffffffffffffffffffffffffffffffffffffffff168b73ffffffffffffffffffffffffffffffffffffffff1614806111a557503373ffffffffffffffffffffffffffffffffffffffff168b73ffffffffffffffffffffffffffffffffffffffff16145b1561121457600760008773ffffffffffffffffffffffffffffffffffffffff1673ffffffffffffffffffffffffffffffffffffffff16815260200190815260200160002060050160009054906101000a900473ffffffffffffffffffffffffffffffffffffffff169450611331565b8a9450600760008773ffffffffffffffffffffffffffffffffffffffff1673ffffffffffffffffffffffffffffffffffffffff16815260200190815260200160002060050160009054906101000a900473ffffffffffffffffffffffffffffffffffffffff1673ffffffffffffffffffffffffffffffffffffffff168573ffffffffffffffffffffffffffffffffffffffff161415156113305784600760008873ffffffffffffffffffffffffffffffffffffffff1673ffffffffffffffffffffffffffffffffffffffff16815260200190815260200160002060050160006101000a81548173ffffffffffffffffffffffffffffffffffffffff021916908373ffffffffffffffffffffffffffffffffffffffff1602179055505b5b61133a8a612cf2565b995061134986868c8a8c612d19565b5050505050505050505050565b600061144c600860008573ffffffffffffffffffffffffffffffffffffffff1673ffffffffffffffffffffffffffffffffffffffff168152602001908152602001600020600084815260200190815260200160002060020154670de0b6b3a7640000611434600860008873ffffffffffffffffffffffffffffffffffffffff1673ffffffffffffffffffffffffffffffffffffffff168152602001908152602001600020600087815260200190815260200160002060010154600960008881526020019081526020016000206008015461306390919063ffffffff16565b81151561143d57fe5b0461310790919063ffffffff16565b905092915050565b60096020528060005260406000206000915090508060000160009054906101000a900473ffffffffffffffffffffffffffffffffffffffff16908060010154908060020154908060030160009054906101000a900460ff169080600401549080600501549080600601549080600701549080600801549080600901549080600a01549080600b015490508c565b600b6020528060005260406000206000915090508060000154908060010154905082565b60025481565b60035481565b6000806000806000611521615157565b60011515600d60009054906101000a900460ff1615151415156115d2576040517f08c379a00000000000000000000000000000000000000000000000000000000081526004018080602001828103825260298152602001807f697473206e6f74207265616479207965742e2020636865636b203f657461206981526020017f6e20646973636f7264000000000000000000000000000000000000000000000081525060400191505060405180910390fd5b600080339150813b9050600081141515611654576040517f08c379a00000000000000000000000000000000000000000000000000000000081526004018080602001828103825260118152602001807f736f7272792068756d616e73206f6e6c7900000000000000000000000000000081525060200191505060405180910390fd5b60065497504296503395506009600089815260200190815260200160002060020154871180156116ab575060001515600960008a815260200190815260200160002060030160009054906101000a900460ff161515145b801561170457506000600960008a815260200190815260200160002060000160009054906101000a900473ffffffffffffffffffffffffffffffffffffffff1673ffffffffffffffffffffffffffffffffffffffff1614155b156119a0576001600960008a815260200190815260200160002060030160006101000a81548160ff0219169083151502179055506117418361318c565b925061174c86613761565b945060008511156118705761176c6003548661306390919063ffffffff16565b9350600160009054906101000a900473ffffffffffffffffffffffffffffffffffffffff1673ffffffffffffffffffffffffffffffffffffffff1663a9059cbb33866040518363ffffffff167c0100000000000000000000000000000000000000000000000000000000028152600401808373ffffffffffffffffffffffffffffffffffffffff1673ffffffffffffffffffffffffffffffffffffffff16815260200182815260200192505050602060405180830381600087803b15801561183357600080fd5b505af1158015611847573d6000803e3d6000fd5b505050506040513d602081101561185d57600080fd5b8101908080519060200190929190505050505b670de0b6b3a764000087028360000151018360000181815250508573ffffffffffffffffffffffffffffffffffffffff168360200151018360200181815250507f3467ccc89bfbf2a9d138b51b444c892acb3b04a2e9cb01ebd7f8b31e3b35d819338685600001518660200151876040015188608001518960a001518a60c001518b60e00151604051808a73ffffffffffffffffffffffffffffffffffffffff1673ffffffffffffffffffffffffffffffffffffffff1681526020018981526020018881526020018781526020018673ffffffffffffffffffffffffffffffffffffffff1673ffffffffffffffffffffffffffffffffffffffff168152602001858152602001848152602001838152602001828152602001995050505050505050505060405180910390a1611b24565b6119a986613761565b94506000851115611acd576119c96003548661306390919063ffffffff16565b9350600160009054906101000a900473ffffffffffffffffffffffffffffffffffffffff1673ffffffffffffffffffffffffffffffffffffffff1663a9059cbb33866040518363ffffffff167c0100000000000000000000000000000000000000000000000000000000028152600401808373ffffffffffffffffffffffffffffffffffffffff1673ffffffffffffffffffffffffffffffffffffffff16815260200182815260200192505050602060405180830381600087803b158015611a9057600080fd5b505af1158015611aa4573d6000803e3d6000fd5b505050506040513d6020811015611aba57600080fd5b8101908080519060200190929190505050505b8573ffffffffffffffffffffffffffffffffffffffff167f1b091269e929df55d64d6ea7e9cadbe4fb38dce5ccdc995767bc515030dbfbbf8689604051808381526020018281526020019250505060405180910390a25b5050505050505050565b6008602052816000526040600020602052806000526040600020600091509150508060000154908060010154908060020154908060030154905084565b600a602052816000526040600020602052806000526040600020600091509150505481565b60065481565b60008060008060008060008060008060008060006006549050600960008281526020019081526020016000206006015481600960008481526020019081526020016000206005015460096000858152602001908152602001600020600201546009600086815260200190815260200160002060040154600960008781526020019081526020016000206007015460096000888152602001908152602001600020600101546009600089815260200190815260200160002060000160009054906101000a900473ffffffffffffffffffffffffffffffffffffffff16600a60008a8152602001908152602001600020600080815260200190815260200160002054600a60008b815260200190815260200160002060006001815260200190815260200160002054600a60008c815260200190815260200160002060006002815260200190815260200160002054600a60008d8152602001908152602001600020600060038152602001908152602001600020549c509c509c509c509c509c509c509c509c509c509c509c5050909192939495969798999a9b565b611d37615157565b60008060011515600d60009054906101000a900460ff161515141515611deb576040517f08c379a00000000000000000000000000000000000000000000000000000000081526004018080602001828103825260298152602001807f697473206e6f74207265616479207965742e2020636865636b203f657461206981526020017f6e20646973636f7264000000000000000000000000000000000000000000000081525060400191505060405180910390fd5b600080339150813b9050600081141515611e6d576040517f08c379a00000000000000000000000000000000000000000000000000000000081526004018080602001828103825260118152602001807f736f7272792068756d616e73206f6e6c7900000000000000000000000000000081525060200191505060405180910390fd5b856000600254600a0a9050806001028210151515611f19576040517f08c379a00000000000000000000000000000000000000000000000000000000081526004018080602001828103825260218152602001807f706f636b6574206c696e743a206e6f7420612076616c69642063757272656e6381526020017f790000000000000000000000000000000000000000000000000000000000000081525060400191505060405180910390fd5b8062989680028211151515611f96576040517f08c379a000000000000000000000000000000000000000000000000000000000815260040180806020018281038252600e8152602001807f6e6f20766974616c696b2c206e6f00000000000000000000000000000000000081525060200191505060405180910390fd5b339550600073ffffffffffffffffffffffffffffffffffffffff168a73ffffffffffffffffffffffffffffffffffffffff161480611fff57503373ffffffffffffffffffffffffffffffffffffffff168a73ffffffffffffffffffffffffffffffffffffffff16145b1561206e57600760008773ffffffffffffffffffffffffffffffffffffffff1673ffffffffffffffffffffffffffffffffffffffff16815260200190815260200160002060050160009054906101000a900473ffffffffffffffffffffffffffffffffffffffff16945061218b565b899450600760008773ffffffffffffffffffffffffffffffffffffffff1673ffffffffffffffffffffffffffffffffffffffff16815260200190815260200160002060050160009054906101000a900473ffffffffffffffffffffffffffffffffffffffff1673ffffffffffffffffffffffffffffffffffffffff168573ffffffffffffffffffffffffffffffffffffffff1614151561218a5784600760008873ffffffffffffffffffffffffffffffffffffffff1673ffffffffffffffffffffffffffffffffffffffff16815260200190815260200160002060050160006101000a81548173ffffffffffffffffffffffffffffffffffffffff021916908373ffffffffffffffffffffffffffffffffffffffff1602179055505b5b61219489612cf2565b98506121a386868b8b8b613988565b50505050505050505050565b6040805190810160405280600381526020017f463344000000000000000000000000000000000000000000000000000000000081525081565b60055481565b600c6020528060005260406000206000915090508060000154908060010154905082565b60076020528060005260406000206000915090508060000160009054906101000a900473ffffffffffffffffffffffffffffffffffffffff16908060010154908060020154908060030154908060040154908060050160009054906101000a900473ffffffffffffffffffffffffffffffffffffffff16905086565b60008060008060065491504290506009600083815260200190815260200160002060020154811015612348576005546009600084815260200190815260200160002060040154018111156123105761230581600960008581526020019081526020016000206002015461310790919063ffffffff16565b600193509350612354565b61233d8160055460096000868152602001908152602001600020600401540161310790919063ffffffff16565b600093509350612354565b60006001819150935093505b50509091565b6000804290506005546009600086815260200190815260200160002060040154018111801561241757506009600085815260200190815260200160002060020154811115806124165750600960008581526020019081526020016000206002015481118015612415575060006009600086815260200190815260200160002060000160009054906101000a900473ffffffffffffffffffffffffffffffffffffffff1673ffffffffffffffffffffffffffffffffffffffff16145b5b5b1561244c57612445836009600087815260200190815260200160002060060154613c9090919063ffffffff16565b9150612458565b61245583613ccf565b91505b5092915050565b600080600060065491504290506005546009600084815260200190815260200160002060040154018111801561252357506009600083815260200190815260200160002060020154811115806125225750600960008381526020019081526020016000206002015481118015612521575060006009600084815260200190815260200160002060000160009054906101000a900473ffffffffffffffffffffffffffffffffffffffff1673ffffffffffffffffffffffffffffffffffffffff16145b5b5b1561256a5761256384612555866009600087815260200190815260200160002060050154612c1090919063ffffffff16565b612c9890919063ffffffff16565b9250612576565b61257384613d75565b92505b5050919050565b600d60009054906101000a900460ff1681565b600080600080600080600654915086905080600860008373ffffffffffffffffffffffffffffffffffffffff1673ffffffffffffffffffffffffffffffffffffffff16815260200190815260200160002060008481526020019081526020016000206001015461264283600760008673ffffffffffffffffffffffffffffffffffffffff1673ffffffffffffffffffffffffffffffffffffffff16815260200190815260200160002060040154611356565b600860008573ffffffffffffffffffffffffffffffffffffffff1673ffffffffffffffffffffffffffffffffffffffff168152602001908152602001600020600086815260200190815260200160002060000154955095509550955050509193509193565b60008060008060065490506009600082815260200190815260200160002060020154421180156126fe5750600015156009600083815260200190815260200160002060030160009054906101000a900460ff161515145b8015612757575060006009600083815260200190815260200160002060000160009054906101000a900473ffffffffffffffffffffffffffffffffffffffff1673ffffffffffffffffffffffffffffffffffffffff1614155b15612ab5578473ffffffffffffffffffffffffffffffffffffffff166009600083815260200190815260200160002060000160009054906101000a900473ffffffffffffffffffffffffffffffffffffffff1673ffffffffffffffffffffffffffffffffffffffff1614156129615761285060646127f56030600960008681526020019081526020016000206007015461306390919063ffffffff16565b8115156127fe57fe5b04600760008873ffffffffffffffffffffffffffffffffffffffff1673ffffffffffffffffffffffffffffffffffffffff16815260200190815260200160002060010154612c1090919063ffffffff16565b6129136128c2600860008973ffffffffffffffffffffffffffffffffffffffff1673ffffffffffffffffffffffffffffffffffffffff1681526020019081526020016000206000858152602001908152602001600020600201546128b48986613e08565b61310790919063ffffffff16565b600760008973ffffffffffffffffffffffffffffffffffffffff1673ffffffffffffffffffffffffffffffffffffffff16815260200190815260200160002060020154612c1090919063ffffffff16565b600760008873ffffffffffffffffffffffffffffffffffffffff1673ffffffffffffffffffffffffffffffffffffffff16815260200190815260200160002060030154935093509350612be2565b600760008673ffffffffffffffffffffffffffffffffffffffff1673ffffffffffffffffffffffffffffffffffffffff16815260200190815260200160002060010154612a67612a16600860008973ffffffffffffffffffffffffffffffffffffffff1673ffffffffffffffffffffffffffffffffffffffff168152602001908152602001600020600085815260200190815260200160002060020154612a088986613e08565b61310790919063ffffffff16565b600760008973ffffffffffffffffffffffffffffffffffffffff1673ffffffffffffffffffffffffffffffffffffffff16815260200190815260200160002060020154612c1090919063ffffffff16565b600760008873ffffffffffffffffffffffffffffffffffffffff1673ffffffffffffffffffffffffffffffffffffffff16815260200190815260200160002060030154935093509350612be2565b600760008673ffffffffffffffffffffffffffffffffffffffff1673ffffffffffffffffffffffffffffffffffffffff16815260200190815260200160002060010154612b98612b4787600760008a73ffffffffffffffffffffffffffffffffffffffff1673ffffffffffffffffffffffffffffffffffffffff16815260200190815260200160002060040154611356565b600760008973ffffffffffffffffffffffffffffffffffffffff1673ffffffffffffffffffffffffffffffffffffffff16815260200190815260200160002060020154612c1090919063ffffffff16565b600760008873ffffffffffffffffffffffffffffffffffffffff1673ffffffffffffffffffffffffffffffffffffffff168152602001908152602001600020600301549350935093505b509193909250565b600160009054906101000a900473ffffffffffffffffffffffffffffffffffffffff1681565b60008183019050828110151515612c8f576040517f08c379a00000000000000000000000000000000000000000000000000000000081526004018080602001828103825260138152602001807f536166654d61746820616464206661696c65640000000000000000000000000081525060200191505060405180910390fd5b80905092915050565b6000612ccf612cb8612cb3848661310790919063ffffffff16565b613d75565b612cc185613d75565b61310790919063ffffffff16565b905092915050565b6000808284811515612ce557fe5b0490508091505092915050565b600080821080612d025750600382115b15612d105760029050612d14565b8190505b919050565b600080600654915042905060055460096000848152602001908152602001600020600401540181118015612ddb5750600960008381526020019081526020016000206002015481111580612dda5750600960008381526020019081526020016000206002015481118015612dd9575060006009600084815260200190815260200160002060000160009054906101000a900473ffffffffffffffffffffffffffffffffffffffff1673ffffffffffffffffffffffffffffffffffffffff16145b5b5b15612df357612dee828886898988613f4e565b61305a565b600960008381526020019081526020016000206002015481118015612e3f5750600015156009600084815260200190815260200160002060030160009054906101000a900460ff161515145b15612fbe5760016009600084815260200190815260200160002060030160006101000a81548160ff021916908315150217905550612e7c8361318c565b9250670de0b6b3a764000081028360000151018360000181815250508673ffffffffffffffffffffffffffffffffffffffff168360200151018360200181815250507ff9a550f6a43326ecefc22118d11f9b3a8471642be222028d1865bda9e6d9ddca3334856000015186602001518760400151886060015189608001518a60a001518b60c001518c60e00151604051808b73ffffffffffffffffffffffffffffffffffffffff1673ffffffffffffffffffffffffffffffffffffffff1681526020018a81526020018981526020018881526020018773ffffffffffffffffffffffffffffffffffffffff1673ffffffffffffffffffffffffffffffffffffffff16815260200186600019166000191681526020018581526020018481526020018381526020018281526020019a505050505050505050505060405180910390a15b61301384600760008a73ffffffffffffffffffffffffffffffffffffffff1673ffffffffffffffffffffffffffffffffffffffff16815260200190815260200160002060020154612c1090919063ffffffff16565b600760008973ffffffffffffffffffffffffffffffffffffffff1673ffffffffffffffffffffffffffffffffffffffff168152602001908152602001600020600201819055505b50505050505050565b6000808314156130765760009050613101565b818302905081838281151561308757fe5b041415156130fd576040517f08c379a00000000000000000000000000000000000000000000000000000000081526004018080602001828103825260138152602001807f536166654d617468206d756c206661696c65640000000000000000000000000081525060200191505060405180910390fd5b8090505b92915050565b6000828211151515613181576040517f08c379a00000000000000000000000000000000000000000000000000000000081526004018080602001828103825260138152602001807f536166654d61746820737562206661696c65640000000000000000000000000081525060200191505060405180910390fd5b818303905092915050565b613194615157565b60008060008060008060008060008060006006549a50600960008c815260200190815260200160002060000160009054906101000a900473ffffffffffffffffffffffffffffffffffffffff169950600960008c8152602001908152602001600020600101549850600960008c8152602001908152602001600020600701549750606461322b60308a61306390919063ffffffff16565b81151561323457fe5b04965060328881151561324357fe5b0495506064613271600c60008c8152602001908152602001600020600001548a61306390919063ffffffff16565b81151561327a57fe5b04945060646132a8600c60008c8152602001908152602001600020600101548a61306390919063ffffffff16565b8115156132b157fe5b0493506132fd846132ef876132e18a6132d38d8f61310790919063ffffffff16565b61310790919063ffffffff16565b61310790919063ffffffff16565b61310790919063ffffffff16565b9250600960008c815260200190815260200160002060050154613331670de0b6b3a76400008761306390919063ffffffff16565b81151561333a57fe5b04915061338b670de0b6b3a7640000613372600960008f8152602001908152602001600020600501548561306390919063ffffffff16565b81151561337b57fe5b048661310790919063ffffffff16565b905060008111156133c1576133a9818661310790919063ffffffff16565b94506133be8184612c1090919063ffffffff16565b92505b613416600760008c73ffffffffffffffffffffffffffffffffffffffff1673ffffffffffffffffffffffffffffffffffffffff1681526020019081526020016000206001015488612c1090919063ffffffff16565b600760008c73ffffffffffffffffffffffffffffffffffffffff1673ffffffffffffffffffffffffffffffffffffffff168152602001908152602001600020600101819055506000809054906101000a900473ffffffffffffffffffffffffffffffffffffffff1673ffffffffffffffffffffffffffffffffffffffff168660405180807f6465706f73697428290000000000000000000000000000000000000000000000815250600901905060405180910390207c01000000000000000000000000000000000000000000000000000000009004906040518263ffffffff167c010000000000000000000000000000000000000000000000000000000002815260040160006040518083038185885af19350505050151561354c576135458685612c1090919063ffffffff16565b9350600095505b613575600960008d81526020019081526020016000206008015483612c1090919063ffffffff16565b600960008d815260200190815260200160002060080181905550620f4240600960008d815260200190815260200160002060020154028d60000151018d600001818152505067016345785d8a000089026a52b7d2dcc80cd2e40000008b73ffffffffffffffffffffffffffffffffffffffff16028e6020015101018d6020018181525050600760008b73ffffffffffffffffffffffffffffffffffffffff1673ffffffffffffffffffffffffffffffffffffffff16815260200190815260200160002060000160009054906101000a900473ffffffffffffffffffffffffffffffffffffffff168d6040019073ffffffffffffffffffffffffffffffffffffffff16908173ffffffffffffffffffffffffffffffffffffffff1681525050868d6080018181525050848d60e0018181525050838d60c0018181525050828d60a00181815250506006600081548092919060010191905055508a806001019b505042600960008d81526020019081526020016000206004018190555061371960055461370b610e1042612c1090919063ffffffff16565b612c1090919063ffffffff16565b600960008d81526020019081526020016000206002018190555082600960008d8152602001908152602001600020600701819055508c9b505050505050505050505050919050565b6000806137b083600760008673ffffffffffffffffffffffffffffffffffffffff1673ffffffffffffffffffffffffffffffffffffffff16815260200190815260200160002060040154614575565b61389b600760008573ffffffffffffffffffffffffffffffffffffffff1673ffffffffffffffffffffffffffffffffffffffff1681526020019081526020016000206003015461388d600760008773ffffffffffffffffffffffffffffffffffffffff1673ffffffffffffffffffffffffffffffffffffffff16815260200190815260200160002060020154600760008873ffffffffffffffffffffffffffffffffffffffff1673ffffffffffffffffffffffffffffffffffffffff16815260200190815260200160002060010154612c1090919063ffffffff16565b612c1090919063ffffffff16565b9050600081111561397f576000600760008573ffffffffffffffffffffffffffffffffffffffff1673ffffffffffffffffffffffffffffffffffffffff168152602001908152602001600020600101819055506000600760008573ffffffffffffffffffffffffffffffffffffffff1673ffffffffffffffffffffffffffffffffffffffff168152602001908152602001600020600201819055506000600760008573ffffffffffffffffffffffffffffffffffffffff1673ffffffffffffffffffffffffffffffffffffffff168152602001908152602001600020600301819055505b80915050919050565b600080600654915042905060055460096000848152602001908152602001600020600401540181118015613a4a5750600960008381526020019081526020016000206002015481111580613a495750600960008381526020019081526020016000206002015481118015613a48575060006009600084815260200190815260200160002060000160009054906101000a900473ffffffffffffffffffffffffffffffffffffffff1673ffffffffffffffffffffffffffffffffffffffff16145b5b5b15613ac357613a6a84613a5c89613761565b61310790919063ffffffff16565b600760008973ffffffffffffffffffffffffffffffffffffffff1673ffffffffffffffffffffffffffffffffffffffff16815260200190815260200160002060020181905550613abe828886898988613f4e565b613c87565b600960008381526020019081526020016000206002015481118015613b0f5750600015156009600084815260200190815260200160002060030160009054906101000a900460ff161515145b15613c865760016009600084815260200190815260200160002060030160006101000a81548160ff021916908315150217905550613b4c8361318c565b9250670de0b6b3a764000081028360000151018360000181815250508673ffffffffffffffffffffffffffffffffffffffff168360200151018360200181815250507f601b34bfb835988641aec63eb73538b3984fb07fa623ab346ba462958bc9019833846000015185602001518660400151876060015188608001518960a001518a60c001518b60e00151604051808a73ffffffffffffffffffffffffffffffffffffffff1673ffffffffffffffffffffffffffffffffffffffff1681526020018981526020018881526020018773ffffffffffffffffffffffffffffffffffffffff1673ffffffffffffffffffffffffffffffffffffffff1681526020018660001916600019168152602001858152602001848152602001838152602001828152602001995050505050505050505060405180910390a15b5b50505050505050565b6000613cc7613c9e84613ccf565b613cb9613cb48587612c1090919063ffffffff16565b613ccf565b61310790919063ffffffff16565b905092915050565b60006309502f90613d646d03b2a1d15167e7c5699bfde00000613d56613d517a0dac7055469777a6122ee4310dd6c14410500f2904840000000000613d436b01027e72f1f1281308800000613d35670de0b6b3a76400008b61306390919063ffffffff16565b61306390919063ffffffff16565b612c1090919063ffffffff16565b6146ea565b61310790919063ffffffff16565b811515613d6d57fe5b049050919050565b6000613d88670de0b6b3a7640000614743565b613df76002613dc0613dab670de0b6b3a76400008761306390919063ffffffff16565b65886c8f67307061306390919063ffffffff16565b811515613dc957fe5b04613de9613dd686614743565b6304a817c861306390919063ffffffff16565b612c1090919063ffffffff16565b811515613e0057fe5b049050919050565b6000670de0b6b3a7640000613f3c600860008673ffffffffffffffffffffffffffffffffffffffff1673ffffffffffffffffffffffffffffffffffffffff168152602001908152602001600020600085815260200190815260200160002060010154613f2e6009600087815260200190815260200160002060050154613eff670de0b6b3a76400006064613ee7600c6000600960008e815260200190815260200160002060010154815260200190815260200160002060000154600960008d81526020019081526020016000206007015461306390919063ffffffff16565b811515613ef057fe5b0461306390919063ffffffff16565b811515613f0857fe5b046009600088815260200190815260200160002060080154612c1090919063ffffffff16565b61306390919063ffffffff16565b811515613f4557fe5b04905092915050565b600080600080600860008a73ffffffffffffffffffffffffffffffffffffffff1673ffffffffffffffffffffffffffffffffffffffff16815260200190815260200160002060008b8152602001908152602001600020600101541415613fbb57613fb88885614756565b93505b68056bc75e2d63100000600960008b8152602001908152602001600020600601541080156140555750670de0b6b3a764000061405388600860008c73ffffffffffffffffffffffffffffffffffffffff1673ffffffffffffffffffffffffffffffffffffffff16815260200190815260200160002060008d815260200190815260200160002060000154612c1090919063ffffffff16565b115b1561417e576140c8600860008a73ffffffffffffffffffffffffffffffffffffffff1673ffffffffffffffffffffffffffffffffffffffff16815260200190815260200160002060008b815260200190815260200160002060000154670de0b6b3a764000061310790919063ffffffff16565b92506140dd838861310790919063ffffffff16565b915061413482600760008b73ffffffffffffffffffffffffffffffffffffffff1673ffffffffffffffffffffffffffffffffffffffff16815260200190815260200160002060020154612c1090919063ffffffff16565b600760008a73ffffffffffffffffffffffffffffffffffffffff1673ffffffffffffffffffffffffffffffffffffffff168152602001908152602001600020600201819055508296505b633b9aca0087111561456a576141b387600960008c815260200190815260200160002060060154613c9090919063ffffffff16565b9050670de0b6b3a7640000811015156142de576141d0818a61485a565b8773ffffffffffffffffffffffffffffffffffffffff16600960008b815260200190815260200160002060000160009054906101000a900473ffffffffffffffffffffffffffffffffffffffff1673ffffffffffffffffffffffffffffffffffffffff161415156142915787600960008b815260200190815260200160002060000160006101000a81548173ffffffffffffffffffffffffffffffffffffffff021916908373ffffffffffffffffffffffffffffffffffffffff1602179055505b84600960008b8152602001908152602001600020600101541415156142cc5784600960008b8152602001908152602001600020600101819055505b60648460000151018460000181815250505b614344600860008a73ffffffffffffffffffffffffffffffffffffffff1673ffffffffffffffffffffffffffffffffffffffff16815260200190815260200160002060008b81526020019081526020016000206001015482612c1090919063ffffffff16565b600860008a73ffffffffffffffffffffffffffffffffffffffff1673ffffffffffffffffffffffffffffffffffffffff16815260200190815260200160002060008b815260200190815260200160002060010181905550614401600860008a73ffffffffffffffffffffffffffffffffffffffff1673ffffffffffffffffffffffffffffffffffffffff16815260200190815260200160002060008b81526020019081526020016000206000015488612c1090919063ffffffff16565b600860008a73ffffffffffffffffffffffffffffffffffffffff1673ffffffffffffffffffffffffffffffffffffffff16815260200190815260200160002060008b815260200190815260200160002060000181905550614481600960008b81526020019081526020016000206005015482612c1090919063ffffffff16565b600960008b8152602001908152602001600020600501819055506144c4600960008b81526020019081526020016000206006015488612c1090919063ffffffff16565b600960008b815260200190815260200160002060060181905550614515600a60008b815260200190815260200160002060008781526020019081526020016000205488612c1090919063ffffffff16565b600a60008b815260200190815260200160002060008781526020019081526020016000208190555061454a89898989886149dc565b935061455a898989888589614c2d565b93506145698886898488614dbd565b5b505050505050505050565b60006145818383611356565b905060008111156146e5576145e1600760008573ffffffffffffffffffffffffffffffffffffffff1673ffffffffffffffffffffffffffffffffffffffff1681526020019081526020016000206002015482612c1090919063ffffffff16565b600760008573ffffffffffffffffffffffffffffffffffffffff1673ffffffffffffffffffffffffffffffffffffffff1681526020019081526020016000206002018190555061468d600860008573ffffffffffffffffffffffffffffffffffffffff1673ffffffffffffffffffffffffffffffffffffffff16815260200190815260200160002060008481526020019081526020016000206002015482612c1090919063ffffffff16565b600860008573ffffffffffffffffffffffffffffffffffffffff1673ffffffffffffffffffffffffffffffffffffffff1681526020019081526020016000206000848152602001908152602001600020600201819055505b505050565b60008060026146fa846001612c10565b81151561470357fe5b0490508291505b8181101561473d57809150600261472c828581151561472557fe5b0483612c10565b81151561473557fe5b04905061470a565b50919050565b600061474f8283613063565b9050919050565b61475e615157565b6000600760008573ffffffffffffffffffffffffffffffffffffffff1673ffffffffffffffffffffffffffffffffffffffff168152602001908152602001600020600401541415156147f7576147f683600760008673ffffffffffffffffffffffffffffffffffffffff1673ffffffffffffffffffffffffffffffffffffffff16815260200190815260200160002060040154614575565b5b600654600760008573ffffffffffffffffffffffffffffffffffffffff1673ffffffffffffffffffffffffffffffffffffffff16815260200190815260200160002060040181905550600a82600001510182600001818152505081905092915050565b6000804291506009600084815260200190815260200160002060020154821180156148d1575060006009600085815260200190815260200160002060000160009054906101000a900473ffffffffffffffffffffffffffffffffffffffff1673ffffffffffffffffffffffffffffffffffffffff16145b156149165761490f82614901601e670de0b6b3a7640000888115156148f257fe5b0461306390919063ffffffff16565b612c1090919063ffffffff16565b9050614968565b6149656009600085815260200190815260200160002060020154614957601e670de0b6b3a76400008881151561494857fe5b0461306390919063ffffffff16565b612c1090919063ffffffff16565b90505b61497e8262015180612c1090919063ffffffff16565b8110156149a5578060096000858152602001908152602001600020600201819055506149d6565b6149bb8262015180612c1090919063ffffffff16565b60096000858152602001908152602001600020600201819055505b50505050565b6149e4615157565b6000806032868115156149f357fe5b0491506000809054906101000a900473ffffffffffffffffffffffffffffffffffffffff1673ffffffffffffffffffffffffffffffffffffffff168260405180807f6465706f73697428290000000000000000000000000000000000000000000000815250600901905060405180910390207c01000000000000000000000000000000000000000000000000000000009004906040518263ffffffff167c010000000000000000000000000000000000000000000000000000000002815260040160006040518083038185885af193505050501515614ad157600091505b600a86811515614add57fe5b0490508673ffffffffffffffffffffffffffffffffffffffff168573ffffffffffffffffffffffffffffffffffffffff16141515614c1f57614b6a600760008773ffffffffffffffffffffffffffffffffffffffff1673ffffffffffffffffffffffffffffffffffffffff1681526020019081526020016000206003015482612c1090919063ffffffff16565b600760008773ffffffffffffffffffffffffffffffffffffffff1673ffffffffffffffffffffffffffffffffffffffff168152602001908152602001600020600301819055508673ffffffffffffffffffffffffffffffffffffffff16888673ffffffffffffffffffffffffffffffffffffffff167f332d0a0072ff9ff6790de3b74f7285342e26f3e164e21dc57d672078943c23ec8442604051808381526020018281526020019250505060405180910390a45b839250505095945050505050565b614c35615157565b60008060006064614c65600b60008a8152602001908152602001600020600001548a61306390919063ffffffff16565b811515614c6e57fe5b049250614ce9614cda6064614ca2600b60008c8152602001908152602001600020600101548c61306390919063ffffffff16565b811515614cab57fe5b046064614cc2600c8d61306390919063ffffffff16565b811515614ccb57fe5b04612c1090919063ffffffff16565b8961310790919063ffffffff16565b9750614cfe838961310790919063ffffffff16565b9150614d0c8a8a8589614f45565b90506000811115614d2d57614d2a818461310790919063ffffffff16565b92505b614d68600960008c815260200190815260200160002060070154614d5a8385612c1090919063ffffffff16565b612c1090919063ffffffff16565b600960008c815260200190815260200160002060070181905550614d998560e0015184612c1090919063ffffffff16565b8560e001818152505081856101000181815250508493505050509695505050505050565b6c01431e0fae6d7217caa00000008402670de0b6b3a7640000420282600001510101816000018181525050751aba4714957d300d0e549208b31adb10000000000000600654028573ffffffffffffffffffffffffffffffffffffffff16826020015101018160200181815250507f8bc7e989603cefdda1b5329dbae2ff8c5b418b56c6f7793ace938c3b3108523e816000015182602001513386868660400151876060015188608001518960a001518a60c001518b60e001518c6101000151604051808d81526020018c81526020018b73ffffffffffffffffffffffffffffffffffffffff1673ffffffffffffffffffffffffffffffffffffffff1681526020018a81526020018981526020018873ffffffffffffffffffffffffffffffffffffffff1673ffffffffffffffffffffffffffffffffffffffff16815260200187600019166000191681526020018681526020018581526020018481526020018381526020018281526020019c5050505050505050505050505060405180910390a15050505050565b60008060006009600088815260200190815260200160002060050154614f7c670de0b6b3a76400008761306390919063ffffffff16565b811515614f8557fe5b049150614fb1600960008981526020019081526020016000206008015483612c1090919063ffffffff16565b6009600089815260200190815260200160002060080181905550670de0b6b3a7640000614fe7858461306390919063ffffffff16565b811515614ff057fe5b0490506150a6600860008873ffffffffffffffffffffffffffffffffffffffff1673ffffffffffffffffffffffffffffffffffffffff16815260200190815260200160002060008981526020019081526020016000206002015461509883670de0b6b3a764000061508089600960008f81526020019081526020016000206008015461306390919063ffffffff16565b81151561508957fe5b0461310790919063ffffffff16565b612c1090919063ffffffff16565b600860008873ffffffffffffffffffffffffffffffffffffffff1673ffffffffffffffffffffffffffffffffffffffff16815260200190815260200160002060008981526020019081526020016000206002018190555061514b670de0b6b3a7640000615132600960008b8152602001908152602001600020600501548561306390919063ffffffff16565b81151561513b57fe5b048661310790919063ffffffff16565b92505050949350505050565b610120604051908101604052806000815260200160008152602001600073ffffffffffffffffffffffffffffffffffffffff16815260200160008019168152602001600081526020016000815260200160008152602001600081526020016000815250905600a165627a7a723058209c526e77018e6b5b3828f01eadd8b51b81763cfec7bf4e8f4f99f0358ea3668c0029",
  "source": "pragma solidity ^0.4.24;\n\nimport \"openzeppelin-solidity/contracts/token/ERC20/ERC20.sol\";\n\nimport \"./interface/JIincForwarderInterface.sol\";\n//import \"./interface/F3DexternalSettingsInterface.sol\";\nimport \"./library/SafeMath.sol\";\nimport \"./library/F3DKeysCalcLong.sol\";\nimport \"./library/F3Ddatasets.sol\";\n\n\nimport \"./modularLong.sol\";\n\ncontract FoMo3Dlong is modularLong {\n    using SafeMath for *;\n    using F3DKeysCalcLong for uint256;\n\n    JIincForwarderInterface private Jekyll_Island_Inc;\n    //F3DexternalSettingsInterface private extSettings;\n    ERC20 public token;\n    uint public decimals = 18;\n    uint public exchangeRate;\n    //==============================================================================\n    //     _ _  _  |`. _     _ _ |_ | _  _  .\n    //    (_(_)| |~|~|(_||_|| (_||_)|(/__\\  .  (game settings)\n    //=================_|===========================================================\n    string constant public name = \"FoMo3D Long Official\";\n    string constant public symbol = \"F3D\";\n    uint256 public rndExtra_ = 2 minutes;\n    uint256 public rndGap_ = 2 minutes;\n    // uint256 private rndExtra_ = extSettings.getLongExtra();     // length of the very first ICO \n    // uint256 private rndGap_ = extSettings.getLongGap();         // length of ICO phase, set to 1 year for EOS.\n    uint256 constant private rndInit_ = 1 hours;                // round timer starts at this\n    uint256 constant private rndInc_ = 30 seconds;              // every full key purchased adds this much to the timer\n    uint256 constant private rndMax_ = 24 hours;                // max length a round timer can be\n    //==============================================================================\n    //     _| _ _|_ _    _ _ _|_    _   .\n    //    (_|(_| | (_|  _\\(/_ | |_||_)  .  (data used to store game info that changes)\n    //=============================|================================================\n    uint256 public rID_;    // round id number / total rounds that have happened\n    //****************\n    // PLAYER DATA \n    //****************\n    mapping (address => F3Ddatasets.Player) public plyr_;   // (pID => data) player data\n    mapping (address => mapping (uint256 => F3Ddatasets.PlayerRounds)) public plyrRnds_;    // (pID => rID => data) player round data by player id & round id\n    //****************\n    // ROUND DATA \n    //****************\n    mapping (uint256 => F3Ddatasets.Round) public round_;   // (rID => data) round data\n    mapping (uint256 => mapping(uint256 => uint256)) public rndTmEth_;      // (rID => tID => data) eth in per team, by round id and team id\n    //****************\n    // TEAM FEE DATA \n    //****************\n    mapping (uint256 => F3Ddatasets.TeamFee) public fees_;          // (team => fees) fee distribution by team\n    mapping (uint256 => F3Ddatasets.PotSplit) public potSplit_;     // (team => fees) pot split distribution by team\n    //==============================================================================\n    //     _ _  _  __|_ _    __|_ _  _  .\n    //    (_(_)| |_\\ | | |_|(_ | (_)|   .  (initial data setup upon contract deploy)\n    //==============================================================================\n    constructor(address Jekyll_Island_Inc_Addr, address tokenAddr, uint _exchangeRate)\n        public\n        {\n            exchangeRate = _exchangeRate;\n            Jekyll_Island_Inc = JIincForwarderInterface(Jekyll_Island_Inc_Addr);\n            token = ERC20(tokenAddr);\n\n            // Team allocation structures\n            // 0 = whales\n            // 1 = bears\n            // 2 = sneks\n            // 3 = bulls\n\n            // Team allocation percentages\n            // (F3D, P3D) + (Pot , Referrals, Community)\n            // Referrals / Community rewards are mathematically designed to come from the winner's share of the pot.\n            fees_[0] = F3Ddatasets.TeamFee(30,0);   //50% to pot, 10% to aff, 2% to com\n            fees_[1] = F3Ddatasets.TeamFee(30,0);   //43% to pot, 10% to aff, 2% to com\n            fees_[2] = F3Ddatasets.TeamFee(30,0);  //20% to pot, 10% to aff, 2% to com\n            fees_[3] = F3Ddatasets.TeamFee(30,0);   //35% to pot, 10% to aff, 2% to com\n        \n            // how to split up the final pot based on which team was picked\n            // (F3D, P3D)\n            potSplit_[0] = F3Ddatasets.PotSplit(0,0);  //48% to winner, 25% to next round, 2% to com\n            potSplit_[1] = F3Ddatasets.PotSplit(0,0);   //48% to winner, 25% to next round, 2% to com\n            potSplit_[2] = F3Ddatasets.PotSplit(0,0);  //48% to winner, 10% to next round, 2% to com\n            potSplit_[3] = F3Ddatasets.PotSplit(0,0);  //48% to winner, 10% to next round, 2% to com\n        }\n    //==============================================================================\n    //     _ _  _  _|. |`. _  _ _  .\n    //    | | |(_)(_||~|~|(/_| _\\  .  (these are safety checks)\n    //==============================================================================\n    /**\n     * @dev used to make sure no one can interact with contract until it has \n     * been activated. \n     */\n    modifier isActivated() {\n        require(activated_ == true, \"its not ready yet.  check ?eta in discord\"); \n        _;\n    }\n    \n    /**\n     * @dev prevents contracts from interacting with fomo3d \n     */\n    modifier isHuman() {\n        address _addr = msg.sender;\n        uint256 _codeLength;\n        \n        assembly {_codeLength := extcodesize(_addr)}\n        require(_codeLength == 0, \"sorry humans only\");\n        _;\n    }\n\n    /**\n     * @dev sets boundaries for incoming tx \n     */\n    modifier isWithinLimits(uint256 _eth) {\n        uint base = 10**decimals;\n\n        require(_eth >= 1*base, \"pocket lint: not a valid currency\");\n        require(_eth <= 10000000*base, \"no vitalik, no\");\n        _;\n    }\n    \n    //==============================================================================\n    //     _    |_ |. _   |`    _  __|_. _  _  _  .\n    //    |_)|_||_)||(_  ~|~|_|| |(_ | |(_)| |_\\  .  (use these to interact with contract)\n    //====|=========================================================================\n    /**\n     * @dev converts all incoming ethereum to keys.\n     * -functionhash- 0x98a0871d (using address for affiliate)\n     * @param _affCode the address of the player who gets the affiliate fee\n     * @param _team what team is the player playing for?\n     */\n    function buyXaddr(address _affCode, uint256 _team, uint val)\n        isActivated()\n        isHuman()\n        isWithinLimits(val)\n        public\n    {\n        F3Ddatasets.EventReturns memory _eventData_;\n\n        require(token.transferFrom(msg.sender, address(this), val), \"Approve more ethers to be spent by this contract\");\n        uint eth = val.div(exchangeRate);\n\n        // fetch player id\n        address _pID = msg.sender;\n\n        // manage affiliate residuals\n        address _affID;\n        // if no affiliate code was given or player tried to use their own, lolz\n        if (_affCode == address(0) || _affCode == msg.sender)\n            {\n                // use last stored affiliate code\n                _affID = plyr_[_pID].laff;\n        \n                // if affiliate code was given    \n            } else {\n            // get affiliate ID from aff Code \n            _affID = _affCode;\n            \n            // if affID is not the same as previously stored \n            if (_affID != plyr_[_pID].laff)\n                {\n                    // update last affiliate\n                    plyr_[_pID].laff = _affID;\n                }\n        }\n        \n        // verify a valid team was selected\n        _team = verifyTeam(_team);\n        \n        // buy core \n        buyCore(_pID, _affID, _team, eth, _eventData_);\n    }\n    \n    /**\n     * @dev essentially the same as buy, but instead of you sending ether \n     * from your wallet, it uses your unwithdrawn earnings.\n     * -functionhash- 0x349cdcac (using ID for affiliate)\n     * -functionhash- 0x82bfc739 (using address for affiliate)\n     * -functionhash- 0x079ce327 (using name for affiliate)\n     * @param _affCode the ID/address/name of the player who gets the affiliate fee\n     * @param _team what team is the player playing for?\n     * @param _eth amount of earnings to use (remainder returned to gen vault)\n     */\n    \n    function reLoadXaddr(address _affCode, uint256 _team, uint256 _eth)\n        isActivated()\n        isHuman()\n        isWithinLimits(_eth)\n        public\n    {\n        // set up our tx event data\n        F3Ddatasets.EventReturns memory _eventData_;\n        \n        // fetch player ID\n        address _pID = msg.sender;\n        \n        // manage affiliate residuals\n        address _affID;\n        // if no affiliate code was given or player tried to use their own, lolz\n        if (_affCode == address(0) || _affCode == msg.sender)\n            {\n                // use last stored affiliate code\n                _affID = plyr_[_pID].laff;\n        \n                // if affiliate code was given    \n            } else {\n            // get affiliate ID from aff Code \n            _affID = _affCode;\n            \n            // if affID is not the same as previously stored \n            if (_affID != plyr_[_pID].laff)\n                {\n                    // update last affiliate\n                    plyr_[_pID].laff = _affID;\n                }\n        }\n        \n        // verify a valid team was selected\n        _team = verifyTeam(_team);\n        \n        // reload core\n        reLoadCore(_pID, _affID, _team, _eth, _eventData_);\n    }\n\n    /**\n     * @dev withdraws all of your earnings.\n     * -functionhash- 0x3ccfd60b\n     */\n    function withdraw()\n        isActivated()\n        isHuman()\n        public\n    {\n        // setup local rID \n        uint256 _rID = rID_;\n        \n        // grab time\n        uint256 _now = now;\n        \n        // fetch player ID\n        address _pID = msg.sender;\n        \n        // setup temp var for player eth\n        uint256 _eth;\n\n        uint val;\n        \n        // check to see if round has ended and no one has run round end yet\n        if (_now > round_[_rID].end && round_[_rID].ended == false && round_[_rID].plyr != 0)\n            {\n                // set up our tx event data\n                F3Ddatasets.EventReturns memory _eventData_;\n            \n                // end the round (distributes pot)\n                round_[_rID].ended = true;\n                _eventData_ = endRound(_eventData_);\n            \n                // get their earnings\n                _eth = withdrawEarnings(_pID);\n            \n                // gib moni\n                // CHANGE THIS\n                if (_eth > 0) {\n                    val = _eth.mul(exchangeRate);\n                    token.transfer(msg.sender, val);\n                }\n            \n                // build event data\n                _eventData_.compressedData = _eventData_.compressedData + (_now * 1000000000000000000);\n                _eventData_.compressedIDs = _eventData_.compressedIDs + uint256(_pID);\n            \n                // fire withdraw and distribute event\n                emit F3Devents.onWithdrawAndDistribute\n                    (\n                     msg.sender, \n                     _eth, \n                     _eventData_.compressedData, \n                     _eventData_.compressedIDs, \n                     _eventData_.winnerAddr, \n                     _eventData_.amountWon, \n                     _eventData_.newPot, \n                     _eventData_.P3DAmount, \n                     _eventData_.genAmount\n                     );\n            \n                // in any other situation\n            } else {\n            // get their earnings\n            _eth = withdrawEarnings(_pID);\n            \n            // gib moni\n            if (_eth > 0) {\n                val = _eth.mul(exchangeRate);\n                token.transfer(msg.sender, val);\n            }\n            // fire withdraw event\n            emit F3Devents.onWithdraw(_pID, _eth, _now);\n        }\n    }\n\n    //==============================================================================\n    //     _  _ _|__|_ _  _ _  .\n    //    (_|(/_ |  | (/_| _\\  . (for UI & viewing things on etherscan)\n    //=====_|=======================================================================\n    /**\n     * @dev return the price buyer will pay for next 1 individual key.\n     * -functionhash- 0x018a25e8\n     * @return price for next key bought (in wei format)\n     */\n    function getBuyPrice()\n        public \n        view \n        returns(uint256)\n    {  \n        // setup local rID\n        uint256 _rID = rID_;\n        \n        // grab time\n        uint256 _now = now;\n        \n        // are we in a round?\n        if (_now > round_[_rID].strt + rndGap_ && (_now <= round_[_rID].end || (_now > round_[_rID].end && round_[_rID].plyr == 0)))\n            return ( (round_[_rID].keys.add(1000000000000000000)).ethRec(1000000000000000000) );\n        else // rounds over.  need price for new round\n            return ( 75000000000000 ); // init\n    }\n    \n    /**\n     * @dev returns time left.  dont spam this, you'll ddos yourself from your node \n     * provider\n     * -functionhash- 0xc7e284b8\n     * @return time left in seconds\n     * @return true if the current round has started, otherwise false\n     */\n    function getTimeLeft()\n        public\n        view\n        returns(uint256, bool)\n    {\n        // setup local rID\n        uint256 _rID = rID_;\n        \n        // grab time\n        uint256 _now = now;\n        \n        if (_now < round_[_rID].end)\n            if (_now > round_[_rID].strt + rndGap_)\n                return( (round_[_rID].end).sub(_now), true );\n            else\n                return( (round_[_rID].strt + rndGap_).sub(_now), false );\n        else\n            return(0, true);\n    }\n    \n    /**\n     * @dev returns player earnings per vaults \n     * -functionhash- 0x63066434\n     * @return winnings vault\n     * @return general vault\n     * @return affiliate vault\n     */\n    function getPlayerVaults(address _pID)\n        public\n        view\n        returns(uint256 ,uint256, uint256)\n    {\n        // setup local rID\n        uint256 _rID = rID_;\n        \n        // if round has ended.  but round end has not been run (so contract has not distributed winnings)\n        if (now > round_[_rID].end && round_[_rID].ended == false && round_[_rID].plyr != 0)\n            {\n                // if player is winner \n                if (round_[_rID].plyr == _pID)\n                    {\n                        return\n                            (\n                             (plyr_[_pID].win).add( ((round_[_rID].pot).mul(48)) / 100 ),\n                             (plyr_[_pID].gen).add(  getPlayerVaultsHelper(_pID, _rID).sub(plyrRnds_[_pID][_rID].mask)   ),\n                             plyr_[_pID].aff\n                             );\n                        // if player is not the winner\n                    } else {\n                    return\n                        (\n                         plyr_[_pID].win,\n                         (plyr_[_pID].gen).add(  getPlayerVaultsHelper(_pID, _rID).sub(plyrRnds_[_pID][_rID].mask)  ),\n                         plyr_[_pID].aff\n                         );\n                }\n            \n                // if round is still going on, or round has ended and round end has been ran\n            } else {\n            return\n                (\n                 plyr_[_pID].win,\n                 (plyr_[_pID].gen).add(calcUnMaskedEarnings(_pID, plyr_[_pID].lrnd)),\n                 plyr_[_pID].aff\n                 );\n        }\n    }\n    \n    /**\n     * solidity hates stack limits.  this lets us avoid that hate \n     */\n    function getPlayerVaultsHelper(address _pID, uint256 _rID)\n        private\n        view\n        returns(uint256)\n    {\n        //                                   ---------------------------- # eth / key * 1000000000000000000 --------------------------------------------------- | plyr's # keys\n        return(  ((((round_[_rID].mask).add(((((round_[_rID].pot).mul(potSplit_[round_[_rID].team].gen)) / 100).mul(1000000000000000000)) / (round_[_rID].keys))).mul(plyrRnds_[_pID][_rID].keys)) / 1000000000000000000)  );\n    }\n    \n    /**\n     * @dev returns all current round info needed for front end\n     * -functionhash- 0x747dff42\n     * @return eth invested during ICO phase\n     * @return round id \n     * @return total keys for round \n     * @return time round ends\n     * @return time round started\n     * @return current pot \n     * @return current team ID\n     * @return current player in leads address \n     * @return whales eth in for round\n     * @return bears eth in for round\n     * @return sneks eth in for round\n     * @return bulls eth in for round\n     */\n    function getCurrentRoundInfo()\n        public\n        view\n        returns(uint256, uint256, uint256, uint256, uint256, uint256, uint256, address, uint256, uint256, uint256, uint256)\n    {\n        // setup local rID\n        uint256 _rID = rID_;\n        \n        return\n            (\n             round_[_rID].eth,               //0\n             _rID,                           //1\n             round_[_rID].keys,              //2\n             round_[_rID].end,               //3\n             round_[_rID].strt,              //4\n             round_[_rID].pot,               //5\n             round_[_rID].team,              //6\n             round_[_rID].plyr,              //7\n             rndTmEth_[_rID][0],             //8\n             rndTmEth_[_rID][1],             //9\n             rndTmEth_[_rID][2],             //10\n             rndTmEth_[_rID][3]              //11\n             );\n    }\n\n    /**\n     * @dev returns player info based on address.  if no address is given, it will \n     * use msg.sender \n     * -functionhash- 0xee0b5d8b\n     * @param _addr address of the player you want to lookup \n     * @return player ID \n     * @return keys owned (current round)\n     * @return unmasked earnings\n     * @return player round eth\n     */\n    function getPlayerInfoByAddress(address _addr)\n        public \n        view \n        returns(address, uint256, uint256, uint256)\n    {\n        // setup local rID\n        uint256 _rID = rID_;\n \n        address _pID = _addr;\n        return\n            (\n             _pID,                               //0\n             plyrRnds_[_pID][_rID].keys,         //1\n             calcUnMaskedEarnings(_pID, plyr_[_pID].lrnd),       //2\n             plyrRnds_[_pID][_rID].eth           //3\n             );\n    }\n\n    //==============================================================================\n    //     _ _  _ _   | _  _ . _  .\n    //    (_(_)| (/_  |(_)(_||(_  . (this + tools + calcs + modules = our softwares engine)\n    //=====================_|=======================================================\n    /**\n     * @dev logic runs whenever a buy order is executed.  determines how to handle \n     * incoming eth depending on if we are in an active round or not\n     */\n    function buyCore(address _pID, address _affID, uint256 _team, uint val, F3Ddatasets.EventReturns memory _eventData_)\n        private\n    {\n        // setup local rID\n        uint256 _rID = rID_;\n        \n        // grab time\n        uint256 _now = now;\n        \n        // if round is active\n        if (_now > round_[_rID].strt + rndGap_ && (_now <= round_[_rID].end || (_now > round_[_rID].end && round_[_rID].plyr == 0))) \n            {\n                // call core \n                core(_rID, _pID, val, _affID, _team, _eventData_);\n        \n                // if round is not active     \n            } else {\n            // check to see if end round needs to be ran\n            if (_now > round_[_rID].end && round_[_rID].ended == false) \n                {\n                    // end the round (distributes pot) & start new round\n                    round_[_rID].ended = true;\n                    _eventData_ = endRound(_eventData_);\n                \n                    // build event data\n                    _eventData_.compressedData = _eventData_.compressedData + (_now * 1000000000000000000);\n                    _eventData_.compressedIDs = _eventData_.compressedIDs + uint256(_pID);\n                \n                    // fire buy and distribute event \n                    emit F3Devents.onBuyAndDistribute\n                        (\n                         msg.sender,\n                         msg.value,\n                         _eventData_.compressedData, \n                         _eventData_.compressedIDs, \n                         _eventData_.winnerAddr, \n                         _eventData_.winnerName, \n                         _eventData_.amountWon, \n                         _eventData_.newPot, \n                         _eventData_.P3DAmount, \n                         _eventData_.genAmount\n                         );\n                }\n            \n            // put eth in players vault \n            plyr_[_pID].gen = plyr_[_pID].gen.add(val);\n        }\n    }\n    \n    /**\n     * @dev logic runs whenever a reload order is executed.  determines how to handle \n     * incoming eth depending on if we are in an active round or not \n     */\n    function reLoadCore(address _pID, address _affID, uint256 _team, uint256 _eth, F3Ddatasets.EventReturns memory _eventData_)\n        private\n    {\n        // setup local rID\n        uint256 _rID = rID_;\n        \n        // grab time\n        uint256 _now = now;\n        \n        // if round is active\n        if (_now > round_[_rID].strt + rndGap_ && (_now <= round_[_rID].end || (_now > round_[_rID].end && round_[_rID].plyr == 0))) \n            {\n                // get earnings from all vaults and return unused to gen vault\n                // because we use a custom safemath library.  this will throw if player \n                // tried to spend more eth than they have.\n                plyr_[_pID].gen = withdrawEarnings(_pID).sub(_eth);\n            \n                // call core \n                core(_rID, _pID, _eth, _affID, _team, _eventData_);\n        \n                // if round is not active and end round needs to be ran   \n            } else if (_now > round_[_rID].end && round_[_rID].ended == false) {\n            // end the round (distributes pot) & start new round\n            round_[_rID].ended = true;\n            _eventData_ = endRound(_eventData_);\n                \n            // build event data\n            _eventData_.compressedData = _eventData_.compressedData + (_now * 1000000000000000000);\n            _eventData_.compressedIDs = _eventData_.compressedIDs + uint256(_pID);\n                \n            // fire buy and distribute event \n            emit F3Devents.onReLoadAndDistribute\n                (\n                 msg.sender, \n                 _eventData_.compressedData, \n                 _eventData_.compressedIDs, \n                 _eventData_.winnerAddr, \n                 _eventData_.winnerName, \n                 _eventData_.amountWon, \n                 _eventData_.newPot, \n                 _eventData_.P3DAmount, \n                 _eventData_.genAmount\n                 );\n        }\n    }\n    \n    /**\n     * @dev this is the core logic for any buy/reload that happens while a round \n     * is live.\n     */\n    function core(uint256 _rID, address _pID, uint256 _eth, address _affID, uint256 _team, F3Ddatasets.EventReturns memory _eventData_)\n        private\n    {\n        // if player is new to round\n        if (plyrRnds_[_pID][_rID].keys == 0)\n            _eventData_ = managePlayer(_pID, _eventData_);\n        \n        // early round eth limiter \n        if (round_[_rID].eth < 100000000000000000000 && plyrRnds_[_pID][_rID].eth.add(_eth) > 1000000000000000000)\n            {\n                uint256 _availableLimit = (1000000000000000000).sub(plyrRnds_[_pID][_rID].eth);\n                uint256 _refund = _eth.sub(_availableLimit);\n                plyr_[_pID].gen = plyr_[_pID].gen.add(_refund);\n                _eth = _availableLimit;\n            }\n        \n        // if eth left is greater than min eth allowed (sorry no pocket lint)\n        if (_eth > 1000000000) \n            {\n                // mint the new keys\n                uint256 _keys = (round_[_rID].eth).keysRec(_eth);\n                // if they bought at least 1 whole key\n                if (_keys >= 1000000000000000000)\n                    {\n                        updateTimer(_keys, _rID);\n\n                        // set new leaders\n                        if (round_[_rID].plyr != _pID)\n                            round_[_rID].plyr = _pID;  \n                        if (round_[_rID].team != _team)\n                            round_[_rID].team = _team; \n                        // set the new leader bool to true\n                        _eventData_.compressedData = _eventData_.compressedData + 100;\n                    }\n            \n                // update player \n                plyrRnds_[_pID][_rID].keys = _keys.add(plyrRnds_[_pID][_rID].keys);\n                plyrRnds_[_pID][_rID].eth = _eth.add(plyrRnds_[_pID][_rID].eth);\n            \n                // update round\n                round_[_rID].keys = _keys.add(round_[_rID].keys);\n                round_[_rID].eth = _eth.add(round_[_rID].eth);\n                rndTmEth_[_rID][_team] = _eth.add(rndTmEth_[_rID][_team]);\n    \n                // distribute eth\n                _eventData_ = distributeExternal(_rID, _pID, _eth, _affID, _eventData_);\n                _eventData_ = distributeInternal(_rID, _pID, _eth, _team, _keys, _eventData_);\n            \n                // call end tx function to fire end tx event.\n                endTx(_pID, _team, _eth, _keys, _eventData_);\n            }\n    }\n    //==============================================================================\n    //     _ _ | _   | _ _|_ _  _ _  .\n    //    (_(_||(_|_||(_| | (_)| _\\  .\n    //==============================================================================\n    /**\n     * @dev calculates unmasked earnings (just calculates, does not update mask)\n     * @return earnings in wei format\n     */\n    function calcUnMaskedEarnings(address _pID, uint256 _rIDlast)\n        public\n        view\n        returns(uint256)\n    {\n        return(  (((round_[_rIDlast].mask).mul(plyrRnds_[_pID][_rIDlast].keys)) / (1000000000000000000)).sub(plyrRnds_[_pID][_rIDlast].mask)  );\n    }\n    \n    /** \n     * @dev returns the amount of keys you would get given an amount of eth. \n     * -functionhash- 0xce89c80c\n     * @param _rID round ID you want price for\n     * @param _eth amount of eth sent in \n     * @return keys received \n     */\n    function calcKeysReceived(uint256 _rID, uint256 _eth)\n        public\n        view\n        returns(uint256)\n    {\n        // grab time\n        uint256 _now = now;\n        \n        // are we in a round?\n        if (_now > round_[_rID].strt + rndGap_ && (_now <= round_[_rID].end || (_now > round_[_rID].end && round_[_rID].plyr == 0)))\n            return ( (round_[_rID].eth).keysRec(_eth) );\n        else // rounds over.  need keys for new round\n            return ( (_eth).keys() );\n    }\n    \n    /** \n     * @dev returns current eth price for X keys.  \n     * -functionhash- 0xcf808000\n     * @param _keys number of keys desired (in 18 decimal format)\n     * @return amount of eth needed to send\n     */\n    function iWantXKeys(uint256 _keys)\n        public\n        view\n        returns(uint256)\n    {\n        // setup local rID\n        uint256 _rID = rID_;\n        \n        // grab time\n        uint256 _now = now;\n        \n        // are we in a round?\n        if (_now > round_[_rID].strt + rndGap_ && (_now <= round_[_rID].end || (_now > round_[_rID].end && round_[_rID].plyr == 0)))\n            return ( (round_[_rID].keys.add(_keys)).ethRec(_keys) );\n        else // rounds over.  need price for new round\n            return ( (_keys).eth() );\n    }\n    //==============================================================================\n    //    _|_ _  _ | _  .\n    //     | (_)(_)|_\\  .\n    //==============================================================================\n    /**\n     * @dev checks to make sure user picked a valid team.  if not sets team \n     * to default (sneks)\n     */\n    function verifyTeam(uint256 _team)\n        private\n        pure\n        returns (uint256)\n    {\n        if (_team < 0 || _team > 3)\n            return(2);\n        else\n            return(_team);\n    }\n    \n    /**\n     * @dev decides if round end needs to be run & new round started.  and if \n     * player unmasked earnings from previously played rounds need to be moved.\n     */\n    function managePlayer(address _pID, F3Ddatasets.EventReturns memory _eventData_)\n        private\n        returns (F3Ddatasets.EventReturns)\n    {\n        // if player has played a previous round, move their unmasked earnings\n        // from that round to gen vault.\n        if (plyr_[_pID].lrnd != 0)\n            updateGenVault(_pID, plyr_[_pID].lrnd);\n            \n        // update player's last round played\n        plyr_[_pID].lrnd = rID_;\n            \n        // set the joined round bool to true\n        _eventData_.compressedData = _eventData_.compressedData + 10;\n        \n        return(_eventData_);\n    }\n    \n    /**\n     * @dev ends the round. manages paying out winner/splitting up pot\n     */\n    function endRound(F3Ddatasets.EventReturns memory _eventData_)\n        private\n        returns (F3Ddatasets.EventReturns)\n    {\n        // setup local rID\n        uint256 _rID = rID_;\n        \n        // grab our winning player and team id's\n        address _winPID = round_[_rID].plyr;\n        uint256 _winTID = round_[_rID].team;\n        \n        // grab our pot amount\n        uint256 _pot = round_[_rID].pot;\n        \n        // calculate our winner share, community rewards, gen share, \n        // p3d share, and amount reserved for next pot \n        uint256 _win = (_pot.mul(48)) / 100;\n        uint256 _com = (_pot / 50);\n        uint256 _gen = (_pot.mul(potSplit_[_winTID].gen)) / 100;\n        uint256 _p3d = (_pot.mul(potSplit_[_winTID].p3d)) / 100;\n        uint256 _res = (((_pot.sub(_win)).sub(_com)).sub(_gen)).sub(_p3d);\n        \n        // calculate ppt for round mask\n        uint256 _ppt = (_gen.mul(1000000000000000000)) / (round_[_rID].keys);\n        uint256 _dust = _gen.sub((_ppt.mul(round_[_rID].keys)) / 1000000000000000000);\n        if (_dust > 0)\n            {\n                _gen = _gen.sub(_dust);\n                _res = _res.add(_dust);\n            }\n        \n        // pay our winner\n        plyr_[_winPID].win = _win.add(plyr_[_winPID].win);\n        \n        // community rewards\n        if (!address(Jekyll_Island_Inc).call.value(_com)(bytes4(keccak256(\"deposit()\"))))\n            {\n                // This ensures Team Just cannot influence the outcome of FoMo3D with\n                // bank migrations by breaking outgoing transactions.\n                // Something we would never do. But that's not the point.\n                // We spent 2000$ in eth re-deploying just to patch this, we hold the \n                // highest belief that everything we create should be trustless.\n                // Team JUST, The name you shouldn't have to trust.\n                _p3d = _p3d.add(_com);\n                _com = 0;\n            }\n        \n        // distribute gen portion to key holders\n        round_[_rID].mask = _ppt.add(round_[_rID].mask);\n        \n        // send share for p3d to divies\n        /*\n        if (_p3d > 0)\n            Divies.deposit.value(_p3d)();\n        */\n\n        // prepare event data\n        _eventData_.compressedData = _eventData_.compressedData + (round_[_rID].end * 1000000);\n        _eventData_.compressedIDs = _eventData_.compressedIDs + (uint256(_winPID) * 100000000000000000000000000) + (_winTID * 100000000000000000);\n        _eventData_.winnerAddr = plyr_[_winPID].addr;\n        _eventData_.amountWon = _win;\n        _eventData_.genAmount = _gen;\n        _eventData_.P3DAmount = _p3d;\n        _eventData_.newPot = _res;\n        \n        // start next round\n        rID_++;\n        _rID++;\n        round_[_rID].strt = now;\n        round_[_rID].end = now.add(rndInit_).add(rndGap_);\n        round_[_rID].pot = _res;\n        \n        return(_eventData_);\n    }\n    \n    /**\n     * @dev moves any unmasked earnings to gen vault.  updates earnings mask\n     */\n    function updateGenVault(address _pID, uint256 _rIDlast)\n        private \n    {\n        uint256 _earnings = calcUnMaskedEarnings(_pID, _rIDlast);\n        if (_earnings > 0)\n            {\n                // put in gen vault\n                plyr_[_pID].gen = _earnings.add(plyr_[_pID].gen);\n                // zero out their earnings by updating mask\n                plyrRnds_[_pID][_rIDlast].mask = _earnings.add(plyrRnds_[_pID][_rIDlast].mask);\n            }\n    }\n    \n    /**\n     * @dev updates round timer based on number of whole keys bought.\n     */\n    function updateTimer(uint256 _keys, uint256 _rID)\n        private\n    {\n        // grab time\n        uint256 _now = now;\n        \n        // calculate time based on number of keys bought\n        uint256 _newTime;\n        if (_now > round_[_rID].end && round_[_rID].plyr == 0)\n            _newTime = (((_keys) / (1000000000000000000)).mul(rndInc_)).add(_now);\n        else\n            _newTime = (((_keys) / (1000000000000000000)).mul(rndInc_)).add(round_[_rID].end);\n        \n        // compare to max and set new end time\n        if (_newTime < (rndMax_).add(_now))\n            round_[_rID].end = _newTime;\n        else\n            round_[_rID].end = rndMax_.add(_now);\n    }\n\n    /**\n     * @dev distributes eth based on fees to com, aff, and p3d\n     */\n    function distributeExternal(uint256 _rID, address _pID, uint256 _eth, address _affID, F3Ddatasets.EventReturns memory _eventData_)\n        private\n        returns(F3Ddatasets.EventReturns)\n    {\n        // CHANGE THIS\n        // pay 2% out to community rewards\n        uint256 _com = _eth / 50;\n        if (!address(Jekyll_Island_Inc).call.value(_com)(bytes4(keccak256(\"deposit()\"))))\n            {\n                // This ensures Team Just cannot influence the outcome of FoMo3D with\n                // bank migrations by breaking outgoing transactions.\n                // Something we would never do. But that's not the point.\n                // We spent 2000$ in eth re-deploying just to patch this, we hold the \n                // highest belief that everything we create should be trustless.\n                // Team JUST, The name you shouldn't have to trust.\n                _com = 0;\n            }\n\n        // distribute share to affiliate\n        uint256 _aff = _eth / 10;\n        \n        // decide what to do with affiliate share of fees\n        // affiliate must not be self, and must have a name registered\n        if (_affID != _pID) {\n            plyr_[_affID].aff = _aff.add(plyr_[_affID].aff);\n            emit F3Devents.onAffiliatePayout(_affID, _rID, _pID, _aff, now);\n        }\n\n        return(_eventData_);\n    }\n\n    /**\n     * @dev distributes eth based on fees to gen and pot\n     */\n    function distributeInternal(uint256 _rID, address _pID, uint256 _eth, uint256 _team, uint256 _keys, F3Ddatasets.EventReturns memory _eventData_)\n        private\n        returns(F3Ddatasets.EventReturns)\n    {\n        // calculate gen share\n        uint256 _gen = (_eth.mul(fees_[_team].gen)) / 100;\n        \n        // update eth balance (eth = eth - (com share + aff share + p3d share))\n        // WARNING: P3D MUST BE ZERO\n        _eth = _eth.sub(((_eth.mul(12)) / 100).add((_eth.mul(fees_[_team].p3d)) / 100));\n        \n        // calculate pot \n        uint256 _pot = _eth.sub(_gen);\n        \n        // distribute gen share (thats what updateMasks() does) and adjust\n        // balances for dust.\n        uint256 _dust = updateMasks(_rID, _pID, _gen, _keys);\n        if (_dust > 0)\n            _gen = _gen.sub(_dust);\n        \n        // add eth to pot\n        round_[_rID].pot = _pot.add(_dust).add(round_[_rID].pot);\n        \n        // set up event data\n        _eventData_.genAmount = _gen.add(_eventData_.genAmount);\n        _eventData_.potAmount = _pot;\n        \n        return(_eventData_);\n    }\n\n    /**\n     * @dev updates masks for round and player when keys are bought\n     * @return dust left over \n     */\n    function updateMasks(uint256 _rID, address _pID, uint256 _gen, uint256 _keys)\n        private\n        returns(uint256)\n    {\n        /* MASKING NOTES\n           earnings masks are a tricky thing for people to wrap their minds around.\n           the basic thing to understand here.  is were going to have a global\n           tracker based on profit per share for each round, that increases in\n           relevant proportion to the increase in share supply.\n            \n           the player will have an additional mask that basically says \"based\n           on the rounds mask, my shares, and how much i've already withdrawn,\n           how much is still owed to me?\"\n        */\n        \n        // calc profit per key & round mask based on this buy:  (dust goes to pot)\n        uint256 _ppt = (_gen.mul(1000000000000000000)) / (round_[_rID].keys);\n        round_[_rID].mask = _ppt.add(round_[_rID].mask);\n            \n        // calculate player earning from their own buy (only based on the keys\n        // they just bought).  & update player earnings mask\n        uint256 _pearn = (_ppt.mul(_keys)) / (1000000000000000000);\n        plyrRnds_[_pID][_rID].mask = (((round_[_rID].mask.mul(_keys)) / (1000000000000000000)).sub(_pearn)).add(plyrRnds_[_pID][_rID].mask);\n        \n        // calculate & return dust\n        return(_gen.sub((_ppt.mul(round_[_rID].keys)) / (1000000000000000000)));\n    }\n    \n    /**\n     * @dev adds up unmasked earnings, & vault earnings, sets them all to 0\n     * @return earnings in wei format\n     */\n    function withdrawEarnings(address _pID)\n        private\n        returns(uint256)\n    {\n        // update gen vault\n        updateGenVault(_pID, plyr_[_pID].lrnd);\n        \n        // from vaults \n        uint256 _earnings = (plyr_[_pID].win).add(plyr_[_pID].gen).add(plyr_[_pID].aff);\n        if (_earnings > 0)\n            {\n                plyr_[_pID].win = 0;\n                plyr_[_pID].gen = 0;\n                plyr_[_pID].aff = 0;\n            }\n\n        return(_earnings);\n    }\n    \n    /**\n     * @dev prepares compression data and fires event for buy or reload tx's\n     */\n    function endTx(address _pID, uint256 _team, uint256 _eth, uint256 _keys, F3Ddatasets.EventReturns memory _eventData_)\n        private\n    {\n        _eventData_.compressedData = _eventData_.compressedData + (now * 1000000000000000000) + (_team * 100000000000000000000000000000);\n        _eventData_.compressedIDs = _eventData_.compressedIDs + uint256(_pID) + (rID_ * 10000000000000000000000000000000000000000000000000000);\n        \n        emit F3Devents.onEndTx\n            (\n             _eventData_.compressedData,\n             _eventData_.compressedIDs,\n             msg.sender,\n             _eth,\n             _keys,\n             _eventData_.winnerAddr,\n             _eventData_.winnerName,\n             _eventData_.amountWon,\n             _eventData_.newPot,\n             _eventData_.P3DAmount,\n             _eventData_.genAmount,\n             _eventData_.potAmount\n             );\n    }\n    //==============================================================================\n    //    (~ _  _    _._|_    .\n    //    _)(/_(_|_|| | | \\/  .\n    //====================/=========================================================\n    /** upon contract deploy, it will be deactivated.  this is a one time\n     * use function that will activate the contract.  we do this so devs \n     * have time to set things up on the web end                            **/\n    bool public activated_ = false;\n    function activate()\n        public\n    {\n        // can only be ran once\n        require(activated_ == false, \"fomo3d already activated\");\n        \n        // activate the contract \n        activated_ = true;\n        \n        // lets start first round\n        rID_ = 1;\n        round_[1].strt = now + rndExtra_ - rndGap_;\n        round_[1].end = now + rndInit_ + rndExtra_;\n    }\n}\n",
  "sourcePath": "/root/projects/fomo3d_clone/contracts/FoMo3Dlong.sol",
  "compiler": {
    "name": "solc",
    "version": "0.4.24+commit.e67f0147.Emscripten.clang"
  },
  "schemaVersion": "2.0.1",
  "updatedAt": "2018-07-31T20:26:38.654Z"
}