{
  "contractName": "Hourglass",
  "abi": [
    {
      "constant": true,
      "inputs": [],
      "name": "name",
      "outputs": [
        {
          "name": "",
          "type": "string"
        }
      ],
      "payable": false,
      "stateMutability": "view",
      "type": "function"
    },
    {
      "constant": true,
      "inputs": [],
      "name": "onlyAmbassadors",
      "outputs": [
        {
          "name": "",
          "type": "bool"
        }
      ],
      "payable": false,
      "stateMutability": "view",
      "type": "function"
    },
    {
      "constant": true,
      "inputs": [],
      "name": "decimals",
      "outputs": [
        {
          "name": "",
          "type": "uint8"
        }
      ],
      "payable": false,
      "stateMutability": "view",
      "type": "function"
    },
    {
      "constant": true,
      "inputs": [
        {
          "name": "",
          "type": "bytes32"
        }
      ],
      "name": "administrators",
      "outputs": [
        {
          "name": "",
          "type": "bool"
        }
      ],
      "payable": false,
      "stateMutability": "view",
      "type": "function"
    },
    {
      "constant": true,
      "inputs": [],
      "name": "stakingRequirement",
      "outputs": [
        {
          "name": "",
          "type": "uint256"
        }
      ],
      "payable": false,
      "stateMutability": "view",
      "type": "function"
    },
    {
      "constant": true,
      "inputs": [],
      "name": "symbol",
      "outputs": [
        {
          "name": "",
          "type": "string"
        }
      ],
      "payable": false,
      "stateMutability": "view",
      "type": "function"
    },
    {
      "payable": true,
      "stateMutability": "payable",
      "type": "fallback"
    },
    {
      "anonymous": false,
      "inputs": [
        {
          "indexed": true,
          "name": "customerAddress",
          "type": "address"
        },
        {
          "indexed": false,
          "name": "incomingEthereum",
          "type": "uint256"
        },
        {
          "indexed": false,
          "name": "tokensMinted",
          "type": "uint256"
        },
        {
          "indexed": true,
          "name": "referredBy",
          "type": "address"
        }
      ],
      "name": "onTokenPurchase",
      "type": "event"
    },
    {
      "anonymous": false,
      "inputs": [
        {
          "indexed": true,
          "name": "customerAddress",
          "type": "address"
        },
        {
          "indexed": false,
          "name": "tokensBurned",
          "type": "uint256"
        },
        {
          "indexed": false,
          "name": "ethereumEarned",
          "type": "uint256"
        }
      ],
      "name": "onTokenSell",
      "type": "event"
    },
    {
      "anonymous": false,
      "inputs": [
        {
          "indexed": true,
          "name": "customerAddress",
          "type": "address"
        },
        {
          "indexed": false,
          "name": "ethereumReinvested",
          "type": "uint256"
        },
        {
          "indexed": false,
          "name": "tokensMinted",
          "type": "uint256"
        }
      ],
      "name": "onReinvestment",
      "type": "event"
    },
    {
      "anonymous": false,
      "inputs": [
        {
          "indexed": true,
          "name": "customerAddress",
          "type": "address"
        },
        {
          "indexed": false,
          "name": "ethereumWithdrawn",
          "type": "uint256"
        }
      ],
      "name": "onWithdraw",
      "type": "event"
    },
    {
      "anonymous": false,
      "inputs": [
        {
          "indexed": true,
          "name": "from",
          "type": "address"
        },
        {
          "indexed": true,
          "name": "to",
          "type": "address"
        },
        {
          "indexed": false,
          "name": "tokens",
          "type": "uint256"
        }
      ],
      "name": "Transfer",
      "type": "event"
    },
    {
      "constant": false,
      "inputs": [],
      "name": "Hodl3D",
      "outputs": [],
      "payable": false,
      "stateMutability": "nonpayable",
      "type": "function"
    },
    {
      "constant": false,
      "inputs": [
        {
          "name": "_referredBy",
          "type": "address"
        }
      ],
      "name": "buy",
      "outputs": [
        {
          "name": "",
          "type": "uint256"
        }
      ],
      "payable": true,
      "stateMutability": "payable",
      "type": "function"
    },
    {
      "constant": false,
      "inputs": [],
      "name": "reinvest",
      "outputs": [],
      "payable": false,
      "stateMutability": "nonpayable",
      "type": "function"
    },
    {
      "constant": false,
      "inputs": [],
      "name": "exit",
      "outputs": [],
      "payable": false,
      "stateMutability": "nonpayable",
      "type": "function"
    },
    {
      "constant": false,
      "inputs": [],
      "name": "withdraw",
      "outputs": [],
      "payable": false,
      "stateMutability": "nonpayable",
      "type": "function"
    },
    {
      "constant": false,
      "inputs": [
        {
          "name": "_amountOfTokens",
          "type": "uint256"
        }
      ],
      "name": "sell",
      "outputs": [],
      "payable": false,
      "stateMutability": "nonpayable",
      "type": "function"
    },
    {
      "constant": false,
      "inputs": [
        {
          "name": "_toAddress",
          "type": "address"
        },
        {
          "name": "_amountOfTokens",
          "type": "uint256"
        }
      ],
      "name": "transfer",
      "outputs": [
        {
          "name": "",
          "type": "bool"
        }
      ],
      "payable": false,
      "stateMutability": "nonpayable",
      "type": "function"
    },
    {
      "constant": false,
      "inputs": [],
      "name": "disableInitialStage",
      "outputs": [],
      "payable": false,
      "stateMutability": "nonpayable",
      "type": "function"
    },
    {
      "constant": false,
      "inputs": [
        {
          "name": "_identifier",
          "type": "bytes32"
        },
        {
          "name": "_status",
          "type": "bool"
        }
      ],
      "name": "setAdministrator",
      "outputs": [],
      "payable": false,
      "stateMutability": "nonpayable",
      "type": "function"
    },
    {
      "constant": false,
      "inputs": [
        {
          "name": "_amountOfTokens",
          "type": "uint256"
        }
      ],
      "name": "setStakingRequirement",
      "outputs": [],
      "payable": false,
      "stateMutability": "nonpayable",
      "type": "function"
    },
    {
      "constant": false,
      "inputs": [
        {
          "name": "_name",
          "type": "string"
        }
      ],
      "name": "setName",
      "outputs": [],
      "payable": false,
      "stateMutability": "nonpayable",
      "type": "function"
    },
    {
      "constant": false,
      "inputs": [
        {
          "name": "_symbol",
          "type": "string"
        }
      ],
      "name": "setSymbol",
      "outputs": [],
      "payable": false,
      "stateMutability": "nonpayable",
      "type": "function"
    },
    {
      "constant": true,
      "inputs": [],
      "name": "totalEthereumBalance",
      "outputs": [
        {
          "name": "",
          "type": "uint256"
        }
      ],
      "payable": false,
      "stateMutability": "view",
      "type": "function"
    },
    {
      "constant": true,
      "inputs": [],
      "name": "totalSupply",
      "outputs": [
        {
          "name": "",
          "type": "uint256"
        }
      ],
      "payable": false,
      "stateMutability": "view",
      "type": "function"
    },
    {
      "constant": true,
      "inputs": [],
      "name": "myTokens",
      "outputs": [
        {
          "name": "",
          "type": "uint256"
        }
      ],
      "payable": false,
      "stateMutability": "view",
      "type": "function"
    },
    {
      "constant": true,
      "inputs": [
        {
          "name": "_includeReferralBonus",
          "type": "bool"
        }
      ],
      "name": "myDividends",
      "outputs": [
        {
          "name": "",
          "type": "uint256"
        }
      ],
      "payable": false,
      "stateMutability": "view",
      "type": "function"
    },
    {
      "constant": true,
      "inputs": [
        {
          "name": "_customerAddress",
          "type": "address"
        }
      ],
      "name": "balanceOf",
      "outputs": [
        {
          "name": "",
          "type": "uint256"
        }
      ],
      "payable": false,
      "stateMutability": "view",
      "type": "function"
    },
    {
      "constant": true,
      "inputs": [
        {
          "name": "_customerAddress",
          "type": "address"
        }
      ],
      "name": "dividendsOf",
      "outputs": [
        {
          "name": "",
          "type": "uint256"
        }
      ],
      "payable": false,
      "stateMutability": "view",
      "type": "function"
    },
    {
      "constant": true,
      "inputs": [],
      "name": "sellPrice",
      "outputs": [
        {
          "name": "",
          "type": "uint256"
        }
      ],
      "payable": false,
      "stateMutability": "view",
      "type": "function"
    },
    {
      "constant": true,
      "inputs": [],
      "name": "buyPrice",
      "outputs": [
        {
          "name": "",
          "type": "uint256"
        }
      ],
      "payable": false,
      "stateMutability": "view",
      "type": "function"
    },
    {
      "constant": true,
      "inputs": [
        {
          "name": "_ethereumToSpend",
          "type": "uint256"
        }
      ],
      "name": "calculateTokensReceived",
      "outputs": [
        {
          "name": "",
          "type": "uint256"
        }
      ],
      "payable": false,
      "stateMutability": "view",
      "type": "function"
    },
    {
      "constant": true,
      "inputs": [
        {
          "name": "_tokensToSell",
          "type": "uint256"
        }
      ],
      "name": "calculateEthereumReceived",
      "outputs": [
        {
          "name": "",
          "type": "uint256"
        }
      ],
      "payable": false,
      "stateMutability": "view",
      "type": "function"
    }
  ],
  "bytecode": "0x60806040526040805190810160405280600681526020017f506f7748334400000000000000000000000000000000000000000000000000008152506000908051906020019062000051929190620000e1565b506040805190810160405280600381526020017f5033440000000000000000000000000000000000000000000000000000000000815250600190805190602001906200009f929190620000e1565b5068056bc75e2d6310000060025560006008556000600b60006101000a81548160ff021916908315150217905550348015620000da57600080fd5b5062000190565b828054600181600116156101000203166002900490600052602060002090601f016020900481019282601f106200012457805160ff191683800117855562000155565b8280016001018555821562000155579182015b828111156200015457825182559160200191906001019062000137565b5b50905062000164919062000168565b5090565b6200018d91905b80821115620001895760008160009055506001016200016f565b5090565b90565b612edc80620001a06000396000f300608060405260043610610169576000357c0100000000000000000000000000000000000000000000000000000000900463ffffffff16806265318b1461017757806306fdde03146101ce57806310d0ffdd1461025e57806318160ddd1461029f57806322609373146102ca57806327defa1f1461030b578063313ce5671461033a578063392efb521461036b5780633ccfd60b146103b45780634b750334146103cb57806356d399e8146103f6578063688abbf7146104215780636b2f46321461046457806370a082311461048f5780638328b610146104e65780638620410b1461051357806389135ae91461053e578063949e8acd1461057b57806395d89b41146105a6578063a8e04f3414610636578063a9059cbb1461064d578063b84c8246146106b2578063bc1d9ed91461071b578063c47f002714610732578063e4849b321461079b578063e9fad8ee146107c8578063f088d547146107df578063fdb5a03e14610829575b610174346000610840565b50005b34801561018357600080fd5b506101b8600480360381019080803573ffffffffffffffffffffffffffffffffffffffff169060200190929190505050611140565b6040518082815260200191505060405180910390f35b3480156101da57600080fd5b506101e36111e2565b6040518080602001828103825283818151815260200191508051906020019080838360005b83811015610223578082015181840152602081019050610208565b50505050905090810190601f1680156102505780820380516001836020036101000a031916815260200191505b509250505060405180910390f35b34801561026a57600080fd5b5061028960048036038101908080359060200190929190505050611280565b6040518082815260200191505060405180910390f35b3480156102ab57600080fd5b506102b46112b8565b6040518082815260200191505060405180910390f35b3480156102d657600080fd5b506102f5600480360381019080803590602001909291905050506112c2565b6040518082815260200191505060405180910390f35b34801561031757600080fd5b5061032061130b565b604051808215151515815260200191505060405180910390f35b34801561034657600080fd5b5061034f61131e565b604051808260ff1660ff16815260200191505060405180910390f35b34801561037757600080fd5b5061039a6004803603810190808035600019169060200190929190505050611323565b604051808215151515815260200191505060405180910390f35b3480156103c057600080fd5b506103c9611343565b005b3480156103d757600080fd5b506103e06114e7565b6040518082815260200191505060405180910390f35b34801561040257600080fd5b5061040b611545565b6040518082815260200191505060405180910390f35b34801561042d57600080fd5b5061044e60048036038101908080351515906020019092919050505061154b565b6040518082815260200191505060405180910390f35b34801561047057600080fd5b506104796115b7565b6040518082815260200191505060405180910390f35b34801561049b57600080fd5b506104d0600480360381019080803573ffffffffffffffffffffffffffffffffffffffff1690602001909291905050506115d6565b6040518082815260200191505060405180910390f35b3480156104f257600080fd5b506105116004803603810190808035906020019092919050505061161f565b005b34801561051f57600080fd5b506105286116b3565b6040518082815260200191505060405180910390f35b34801561054a57600080fd5b506105796004803603810190808035600019169060200190929190803515159060200190929190505050611711565b005b34801561058757600080fd5b506105906117d2565b6040518082815260200191505060405180910390f35b3480156105b257600080fd5b506105bb6117e7565b6040518080602001828103825283818151815260200191508051906020019080838360005b838110156105fb5780820151818401526020810190506105e0565b50505050905090810190601f1680156106285780820380516001836020036101000a031916815260200191505b509250505060405180910390f35b34801561064257600080fd5b5061064b611885565b005b34801561065957600080fd5b50610698600480360381019080803573ffffffffffffffffffffffffffffffffffffffff1690602001909291908035906020019092919050505061192c565b604051808215151515815260200191505060405180910390f35b3480156106be57600080fd5b50610719600480360381019080803590602001908201803590602001908080601f0160208091040260200160405190810160405280939291908181526020018383808284378201915050505050509192919290505050611c5e565b005b34801561072757600080fd5b50610730611d02565b005b34801561073e57600080fd5b50610799600480360381019080803590602001908201803590602001908080601f0160208091040260200160405190810160405280939291908181526020018383808284378201915050505050509192919290505050612777565b005b3480156107a757600080fd5b506107c66004803603810190808035906020019092919050505061281b565b005b3480156107d457600080fd5b506107dd612a49565b005b610813600480360381019080803573ffffffffffffffffffffffffffffffffffffffff169060200190929190505050612ab0565b6040518082815260200191505060405180910390f35b34801561083557600080fd5b5061083e612ac2565b005b60008060008060008060008060008a6000339050600b60009054906101000a900460ff16801561088257506801158e460913d000008261087e6115b7565b0311155b15610d705760011515600360008373ffffffffffffffffffffffffffffffffffffffff1673ffffffffffffffffffffffffffffffffffffffff16815260200190815260200160002060009054906101000a900460ff1615151480156109305750670de0b6b3a764000082600760008473ffffffffffffffffffffffffffffffffffffffff1673ffffffffffffffffffffffffffffffffffffffff168152602001908152602001600020540111155b151561093b57600080fd5b610984600760008373ffffffffffffffffffffffffffffffffffffffff1673ffffffffffffffffffffffffffffffffffffffff1681526020019081526020016000205483612c36565b600760008373ffffffffffffffffffffffffffffffffffffffff1673ffffffffffffffffffffffffffffffffffffffff168152602001908152602001600020819055503399506109d88d600a60ff16612c54565b98506109e5896003612c54565b97506109f18989612c6f565b96506109fd8d8a612c6f565b9550610a0886612c88565b94506801000000000000000087029350600085118015610a345750600854610a3286600854612c36565b115b1515610a3f57600080fd5b600073ffffffffffffffffffffffffffffffffffffffff168c73ffffffffffffffffffffffffffffffffffffffff1614158015610aa857508973ffffffffffffffffffffffffffffffffffffffff168c73ffffffffffffffffffffffffffffffffffffffff1614155b8015610af55750600254600460008e73ffffffffffffffffffffffffffffffffffffffff1673ffffffffffffffffffffffffffffffffffffffff1681526020019081526020016000205410155b15610b8b57610b43600560008e73ffffffffffffffffffffffffffffffffffffffff1673ffffffffffffffffffffffffffffffffffffffff1681526020019081526020016000205489612c36565b600560008e73ffffffffffffffffffffffffffffffffffffffff1673ffffffffffffffffffffffffffffffffffffffff16815260200190815260200160002081905550610ba6565b610b958789612c36565b965068010000000000000000870293505b60006008541115610c1157610bbd60085486612c36565b600881905550600854680100000000000000008802811515610bdb57fe5b04600960008282540192505081905550600854680100000000000000008802811515610c0357fe5b048502840384039350610c19565b846008819055505b610c62600460008c73ffffffffffffffffffffffffffffffffffffffff1673ffffffffffffffffffffffffffffffffffffffff1681526020019081526020016000205486612c36565b600460008c73ffffffffffffffffffffffffffffffffffffffff1673ffffffffffffffffffffffffffffffffffffffff1681526020019081526020016000208190555083856009540203925082600660008c73ffffffffffffffffffffffffffffffffffffffff1673ffffffffffffffffffffffffffffffffffffffff168152602001908152602001600020600082825401925050819055508b73ffffffffffffffffffffffffffffffffffffffff168a73ffffffffffffffffffffffffffffffffffffffff167f022c0d992e4d873a3748436d960d5140c1f9721cf73f7ca5ec679d3d9f4fe2d58f88604051808381526020018281526020019250505060405180910390a3849a50611130565b6000600b60006101000a81548160ff021916908315150217905550339950610d9c8d600a60ff16612c54565b9850610da9896003612c54565b9750610db58989612c6f565b9650610dc18d8a612c6f565b9550610dcc86612c88565b94506801000000000000000087029350600085118015610df85750600854610df686600854612c36565b115b1515610e0357600080fd5b600073ffffffffffffffffffffffffffffffffffffffff168c73ffffffffffffffffffffffffffffffffffffffff1614158015610e6c57508973ffffffffffffffffffffffffffffffffffffffff168c73ffffffffffffffffffffffffffffffffffffffff1614155b8015610eb95750600254600460008e73ffffffffffffffffffffffffffffffffffffffff1673ffffffffffffffffffffffffffffffffffffffff1681526020019081526020016000205410155b15610f4f57610f07600560008e73ffffffffffffffffffffffffffffffffffffffff1673ffffffffffffffffffffffffffffffffffffffff1681526020019081526020016000205489612c36565b600560008e73ffffffffffffffffffffffffffffffffffffffff1673ffffffffffffffffffffffffffffffffffffffff16815260200190815260200160002081905550610f6a565b610f598789612c36565b965068010000000000000000870293505b60006008541115610fd557610f8160085486612c36565b600881905550600854680100000000000000008802811515610f9f57fe5b04600960008282540192505081905550600854680100000000000000008802811515610fc757fe5b048502840384039350610fdd565b846008819055505b611026600460008c73ffffffffffffffffffffffffffffffffffffffff1673ffffffffffffffffffffffffffffffffffffffff1681526020019081526020016000205486612c36565b600460008c73ffffffffffffffffffffffffffffffffffffffff1673ffffffffffffffffffffffffffffffffffffffff1681526020019081526020016000208190555083856009540203925082600660008c73ffffffffffffffffffffffffffffffffffffffff1673ffffffffffffffffffffffffffffffffffffffff168152602001908152602001600020600082825401925050819055508b73ffffffffffffffffffffffffffffffffffffffff168a73ffffffffffffffffffffffffffffffffffffffff167f022c0d992e4d873a3748436d960d5140c1f9721cf73f7ca5ec679d3d9f4fe2d58f88604051808381526020018281526020019250505060405180910390a3849a505b5050505050505050505092915050565b600068010000000000000000600660008473ffffffffffffffffffffffffffffffffffffffff1673ffffffffffffffffffffffffffffffffffffffff16815260200190815260200160002054600460008573ffffffffffffffffffffffffffffffffffffffff1673ffffffffffffffffffffffffffffffffffffffff1681526020019081526020016000205460095402038115156111da57fe5b049050919050565b60008054600181600116156101000203166002900480601f0160208091040260200160405190810160405280929190818152602001828054600181600116156101000203166002900480156112785780601f1061124d57610100808354040283529160200191611278565b820191906000526020600020905b81548152906001019060200180831161125b57829003601f168201915b505050505081565b60008060008061129485600a60ff16612c54565b92506112a08584612c6f565b91506112ab82612c88565b9050809350505050919050565b6000600854905090565b60008060008060085485111515156112d957600080fd5b6112e285612d15565b92506112f283600a60ff16612c54565b91506112fe8383612c6f565b9050809350505050919050565b600b60009054906101000a900460ff1681565b601281565b600a6020528060005260406000206000915054906101000a900460ff1681565b6000806000611352600161154b565b11151561135e57600080fd5b33915061136b600061154b565b9050680100000000000000008102600660008473ffffffffffffffffffffffffffffffffffffffff1673ffffffffffffffffffffffffffffffffffffffff16815260200190815260200160002060008282540192505081905550600560008373ffffffffffffffffffffffffffffffffffffffff1673ffffffffffffffffffffffffffffffffffffffff16815260200190815260200160002054810190506000600560008473ffffffffffffffffffffffffffffffffffffffff1673ffffffffffffffffffffffffffffffffffffffff168152602001908152602001600020819055508173ffffffffffffffffffffffffffffffffffffffff166108fc829081150290604051600060405180830381858888f19350505050158015611494573d6000803e3d6000fd5b508173ffffffffffffffffffffffffffffffffffffffff167fccad973dcd043c7d680389db4378bd6b9775db7124092e9e0422c9e46d7985dc826040518082815260200191505060405180910390a25050565b6000806000806000600854141561150c576402540be40064174876e80003935061153f565b61151d670de0b6b3a7640000612d15565b925061152d83600a60ff16612c54565b91506115398383612c6f565b90508093505b50505090565b60025481565b600080339050826115645761155f81611140565b6115af565b600560008273ffffffffffffffffffffffffffffffffffffffff1673ffffffffffffffffffffffffffffffffffffffff168152602001908152602001600020546115ad82611140565b015b915050919050565b60003073ffffffffffffffffffffffffffffffffffffffff1631905090565b6000600460008373ffffffffffffffffffffffffffffffffffffffff1673ffffffffffffffffffffffffffffffffffffffff168152602001908152602001600020549050919050565b6000339050600a600082604051808273ffffffffffffffffffffffffffffffffffffffff1673ffffffffffffffffffffffffffffffffffffffff166c0100000000000000000000000002815260140191505060405180910390206000191660001916815260200190815260200160002060009054906101000a900460ff1615156116a857600080fd5b816002819055505050565b600080600080600060085414156116d8576402540be40064174876e80001935061170b565b6116e9670de0b6b3a7640000612d15565b92506116f983600a60ff16612c54565b91506117058383612c36565b90508093505b50505090565b6000339050600a600082604051808273ffffffffffffffffffffffffffffffffffffffff1673ffffffffffffffffffffffffffffffffffffffff166c0100000000000000000000000002815260140191505060405180910390206000191660001916815260200190815260200160002060009054906101000a900460ff16151561179a57600080fd5b81600a6000856000191660001916815260200190815260200160002060006101000a81548160ff021916908315150217905550505050565b6000803390506117e1816115d6565b91505090565b60018054600181600116156101000203166002900480601f01602080910402602001604051908101604052809291908181526020018280546001816001161561010002031660029004801561187d5780601f106118525761010080835404028352916020019161187d565b820191906000526020600020905b81548152906001019060200180831161186057829003601f168201915b505050505081565b6000339050600a600082604051808273ffffffffffffffffffffffffffffffffffffffff1673ffffffffffffffffffffffffffffffffffffffff166c0100000000000000000000000002815260140191505060405180910390206000191660001916815260200190815260200160002060009054906101000a900460ff16151561190e57600080fd5b6000600b60006101000a81548160ff02191690831515021790555050565b60008060008060008061193d6117d2565b11151561194957600080fd5b339350600b60009054906101000a900460ff161580156119a85750600460008573ffffffffffffffffffffffffffffffffffffffff1673ffffffffffffffffffffffffffffffffffffffff168152602001908152602001600020548611155b15156119b357600080fd5b60006119bf600161154b565b11156119ce576119cd611343565b5b6119dc86600a60ff16612c54565b92506119e88684612c6f565b91506119f383612d15565b9050611a0160085484612c6f565b600881905550611a50600460008673ffffffffffffffffffffffffffffffffffffffff1673ffffffffffffffffffffffffffffffffffffffff1681526020019081526020016000205487612c6f565b600460008673ffffffffffffffffffffffffffffffffffffffff1673ffffffffffffffffffffffffffffffffffffffff16815260200190815260200160002081905550611adc600460008973ffffffffffffffffffffffffffffffffffffffff1673ffffffffffffffffffffffffffffffffffffffff1681526020019081526020016000205483612c36565b600460008973ffffffffffffffffffffffffffffffffffffffff1673ffffffffffffffffffffffffffffffffffffffff168152602001908152602001600020819055508560095402600660008673ffffffffffffffffffffffffffffffffffffffff1673ffffffffffffffffffffffffffffffffffffffff168152602001908152602001600020600082825403925050819055508160095402600660008973ffffffffffffffffffffffffffffffffffffffff1673ffffffffffffffffffffffffffffffffffffffff16815260200190815260200160002060008282540192505081905550611be5600954600854680100000000000000008402811515611bdf57fe5b04612c36565b6009819055508673ffffffffffffffffffffffffffffffffffffffff168473ffffffffffffffffffffffffffffffffffffffff167fddf252ad1be2c89b69c2b068fc378daa952ba7f163c4a11628f55a4df523b3ef846040518082815260200191505060405180910390a3600194505050505092915050565b6000339050600a600082604051808273ffffffffffffffffffffffffffffffffffffffff1673ffffffffffffffffffffffffffffffffffffffff166c0100000000000000000000000002815260140191505060405180910390206000191660001916815260200190815260200160002060009054906101000a900460ff161515611ce757600080fd5b8160019080519060200190611cfd929190612e0b565b505050565b6001600a60007fdd8bb99b13fe33e1c32254dfb8fff3e71193f6b730a89dd33bfe5dedc6d8300260010260001916815260200190815260200160002060006101000a81548160ff021916908315150217905550600160036000738b4da1827932d71759687f925d17f81fc94e3a9d73ffffffffffffffffffffffffffffffffffffffff1673ffffffffffffffffffffffffffffffffffffffff16815260200190815260200160002060006101000a81548160ff021916908315150217905550600160036000738e0d985f3ec1857bec39b76aaabdea6b31b67d5373ffffffffffffffffffffffffffffffffffffffff1673ffffffffffffffffffffffffffffffffffffffff16815260200190815260200160002060006101000a81548160ff021916908315150217905550600160036000737563a35d5610ee7c9cd330e255da0e779a644c1973ffffffffffffffffffffffffffffffffffffffff1673ffffffffffffffffffffffffffffffffffffffff16815260200190815260200160002060006101000a81548160ff02191690831515021790555060016003600073215e3c713badb158a457e61f99325bbb5d278e5773ffffffffffffffffffffffffffffffffffffffff1673ffffffffffffffffffffffffffffffffffffffff16815260200190815260200160002060006101000a81548160ff02191690831515021790555060016003600073aff8b5cdcb339eef5e1100597740a394c7b9c6ca73ffffffffffffffffffffffffffffffffffffffff1673ffffffffffffffffffffffffffffffffffffffff16815260200190815260200160002060006101000a81548160ff021916908315150217905550600160036000738dc6569c28521560eaf1890bc41b2f3fc2010e1b73ffffffffffffffffffffffffffffffffffffffff1673ffffffffffffffffffffffffffffffffffffffff16815260200190815260200160002060006101000a81548160ff02191690831515021790555060016003600073f14be3662fe4c9215c27698166759db6967de94f73ffffffffffffffffffffffffffffffffffffffff1673ffffffffffffffffffffffffffffffffffffffff16815260200190815260200160002060006101000a81548160ff0219169083151502179055506001600360007318e90fc6f70344f53ebd4f6070bf6aa23e2d748c73ffffffffffffffffffffffffffffffffffffffff1673ffffffffffffffffffffffffffffffffffffffff16815260200190815260200160002060006101000a81548160ff0219169083151502179055506001600360007349aae4d923207e80fc91e626bcb6532502264dfc73ffffffffffffffffffffffffffffffffffffffff1673ffffffffffffffffffffffffffffffffffffffff16815260200190815260200160002060006101000a81548160ff021916908315150217905550600160036000733a0cca1a832644b60730e5d4c27947c5de609d6273ffffffffffffffffffffffffffffffffffffffff1673ffffffffffffffffffffffffffffffffffffffff16815260200190815260200160002060006101000a81548160ff021916908315150217905550600160036000737ac74fcc1a71b106f12c55ee8f802c9f672ce40c73ffffffffffffffffffffffffffffffffffffffff1673ffffffffffffffffffffffffffffffffffffffff16815260200190815260200160002060006101000a81548160ff021916908315150217905550600160036000732b219c2178f099de4e9a3667d5ccc2cc64da076373ffffffffffffffffffffffffffffffffffffffff1673ffffffffffffffffffffffffffffffffffffffff16815260200190815260200160002060006101000a81548160ff021916908315150217905550600160036000732a04c7335f90a6bd4e9c4f713dd792200e27f2e673ffffffffffffffffffffffffffffffffffffffff1673ffffffffffffffffffffffffffffffffffffffff16815260200190815260200160002060006101000a81548160ff0219169083151502179055506001600360007335668818ba8f768d4c21787a6f45c86c69394dfd73ffffffffffffffffffffffffffffffffffffffff1673ffffffffffffffffffffffffffffffffffffffff16815260200190815260200160002060006101000a81548160ff02191690831515021790555060016003600073a3120da52e604ac3fc80a63813ef15476e0b6abd73ffffffffffffffffffffffffffffffffffffffff1673ffffffffffffffffffffffffffffffffffffffff16815260200190815260200160002060006101000a81548160ff02191690831515021790555060016003600073924e71ba600372e2410285423f1fe66799b717ec73ffffffffffffffffffffffffffffffffffffffff1673ffffffffffffffffffffffffffffffffffffffff16815260200190815260200160002060006101000a81548160ff021916908315150217905550600160036000736ed450e062c20f929cb7ee72fcc53e9697980a1873ffffffffffffffffffffffffffffffffffffffff1673ffffffffffffffffffffffffffffffffffffffff16815260200190815260200160002060006101000a81548160ff0219169083151502179055506001600360007318864a6682c8eb79eea5b899f11bc94ef9a85adb73ffffffffffffffffffffffffffffffffffffffff1673ffffffffffffffffffffffffffffffffffffffff16815260200190815260200160002060006101000a81548160ff021916908315150217905550600160036000739cc1bdc994b7a847705d19106287c0bf94ef04b573ffffffffffffffffffffffffffffffffffffffff1673ffffffffffffffffffffffffffffffffffffffff16815260200190815260200160002060006101000a81548160ff021916908315150217905550600160036000736926572813ec1438088963f208c61847df435a7473ffffffffffffffffffffffffffffffffffffffff1673ffffffffffffffffffffffffffffffffffffffff16815260200190815260200160002060006101000a81548160ff02191690831515021790555060016003600073e16ab764a02ae03681e351ac58fe79717c0ee8c673ffffffffffffffffffffffffffffffffffffffff1673ffffffffffffffffffffffffffffffffffffffff16815260200190815260200160002060006101000a81548160ff02191690831515021790555060016003600073276f4a79f22d1bfc51bd8dc5b27bfd934c82393273ffffffffffffffffffffffffffffffffffffffff1673ffffffffffffffffffffffffffffffffffffffff16815260200190815260200160002060006101000a81548160ff02191690831515021790555060016003600073a2b4ed3e2f4bef09fb35101b76ef4cb9d3eecacf73ffffffffffffffffffffffffffffffffffffffff1673ffffffffffffffffffffffffffffffffffffffff16815260200190815260200160002060006101000a81548160ff02191690831515021790555060016003600073147fc6b04c95bce47d013c8d7a200ee43432366973ffffffffffffffffffffffffffffffffffffffff1673ffffffffffffffffffffffffffffffffffffffff16815260200190815260200160002060006101000a81548160ff021916908315150217905550565b6000339050600a600082604051808273ffffffffffffffffffffffffffffffffffffffff1673ffffffffffffffffffffffffffffffffffffffff166c0100000000000000000000000002815260140191505060405180910390206000191660001916815260200190815260200160002060009054906101000a900460ff16151561280057600080fd5b8160009080519060200190612816929190612e0b565b505050565b600080600080600080600061282e6117d2565b11151561283a57600080fd5b339550600460008773ffffffffffffffffffffffffffffffffffffffff1673ffffffffffffffffffffffffffffffffffffffff16815260200190815260200160002054871115151561288b57600080fd5b86945061289785612d15565b93506128a784600a60ff16612c54565b92506128b38484612c6f565b91506128c160085486612c6f565b600881905550612910600460008873ffffffffffffffffffffffffffffffffffffffff1673ffffffffffffffffffffffffffffffffffffffff1681526020019081526020016000205486612c6f565b600460008873ffffffffffffffffffffffffffffffffffffffff1673ffffffffffffffffffffffffffffffffffffffff16815260200190815260200160002081905550680100000000000000008202856009540201905080600660008873ffffffffffffffffffffffffffffffffffffffff1673ffffffffffffffffffffffffffffffffffffffff16815260200190815260200160002060008282540392505081905550600060085411156129ea576129e36009546008546801000000000000000086028115156129dd57fe5b04612c36565b6009819055505b8573ffffffffffffffffffffffffffffffffffffffff167fc4823739c5787d2ca17e404aa47d5569ae71dfb49cbf21b3f6152ed238a311398684604051808381526020018281526020019250505060405180910390a250505050505050565b600080339150600460008373ffffffffffffffffffffffffffffffffffffffff1673ffffffffffffffffffffffffffffffffffffffff1681526020019081526020016000205490506000811115612aa457612aa38161281b565b5b612aac611343565b5050565b6000612abc3483610840565b50919050565b600080600080612ad2600161154b565b111515612ade57600080fd5b612ae8600061154b565b9250339150680100000000000000008302600660008473ffffffffffffffffffffffffffffffffffffffff1673ffffffffffffffffffffffffffffffffffffffff16815260200190815260200160002060008282540192505081905550600560008373ffffffffffffffffffffffffffffffffffffffff1673ffffffffffffffffffffffffffffffffffffffff16815260200190815260200160002054830192506000600560008473ffffffffffffffffffffffffffffffffffffffff1673ffffffffffffffffffffffffffffffffffffffff16815260200190815260200160002081905550612bd9836000610840565b90508173ffffffffffffffffffffffffffffffffffffffff167fbe339fc14b041c2b0e0f3dd2cd325d0c3668b78378001e53160eab36153264588483604051808381526020018281526020019250505060405180910390a2505050565b6000808284019050838110151515612c4a57fe5b8091505092915050565b6000808284811515612c6257fe5b0490508091505092915050565b6000828211151515612c7d57fe5b818303905092915050565b6000806000670de0b6b3a764000064174876e8000291506008546402540be400612cfe612cf8600854866402540be400600202020260026008540a60026402540be4000a02670de0b6b3a76400008a02670de0b6b3a76400006402540be40002600202026002890a010101612dc0565b85612c6f565b811515612d0757fe5b040390508092505050919050565b600080600080670de0b6b3a764000085019250670de0b6b3a7640000600854019150670de0b6b3a7640000612da9670de0b6b3a764000085036402540be400670de0b6b3a764000086811515612d6757fe5b046402540be4000264174876e8000103026002670de0b6b3a7640000876002890a03811515612d9257fe5b046402540be40002811515612da357fe5b04612c6f565b811515612db257fe5b049050809350505050919050565b600080600260018401811515612dd257fe5b0490508291505b81811015612e05578091506002818285811515612df257fe5b0401811515612dfd57fe5b049050612dd9565b50919050565b828054600181600116156101000203166002900490600052602060002090601f016020900481019282601f10612e4c57805160ff1916838001178555612e7a565b82800160010185558215612e7a579182015b82811115612e79578251825591602001919060010190612e5e565b5b509050612e879190612e8b565b5090565b612ead91905b80821115612ea9576000816000905550600101612e91565b5090565b905600a165627a7a723058207efe89936fd317eb1b05e57701328ad244c7beee517fca48feb561d7ec98038f0029",
  "source": "pragma solidity ^0.4.24;\n\ncontract Hourglass {\n    /*=================================\n    =            MODIFIERS            =\n    =================================*/\n    // only people with tokens\n    modifier onlyBagholders() {\n        require(myTokens() > 0);\n        _;\n    }\n    \n    // only people with profits\n    modifier onlyStronghands() {\n        require(myDividends(true) > 0);\n        _;\n    }\n    \n    // administrators can:\n    // -> change the name of the contract\n    // -> change the name of the token\n    // -> change the PoS difficulty (How many tokens it costs to hold a masternode, in case it gets crazy high later)\n    // they CANNOT:\n    // -> take funds\n    // -> disable withdrawals\n    // -> kill the contract\n    // -> change the price of tokens\n    modifier onlyAdministrator(){\n        address _customerAddress = msg.sender;\n        require(administrators[keccak256(_customerAddress)]);\n        _;\n    }\n    \n    \n    // ensures that the first tokens in the contract will be equally distributed\n    // meaning, no divine dump will be ever possible\n    // result: healthy longevity.\n    modifier antiEarlyWhale(uint256 _amountOfEthereum){\n        address _customerAddress = msg.sender;\n        \n        // are we still in the vulnerable phase?\n        // if so, enact anti early whale protocol \n        if( onlyAmbassadors && ((totalEthereumBalance() - _amountOfEthereum) <= ambassadorQuota_ )){\n            require(\n                // is the customer in the ambassador list?\n                ambassadors_[_customerAddress] == true &&\n                \n                // does the customer purchase exceed the max ambassador quota?\n                (ambassadorAccumulatedQuota_[_customerAddress] + _amountOfEthereum) <= ambassadorMaxPurchase_\n                \n            );\n            \n            // updated the accumulated quota    \n            ambassadorAccumulatedQuota_[_customerAddress] = SafeMath.add(ambassadorAccumulatedQuota_[_customerAddress], _amountOfEthereum);\n        \n            // execute\n            _;\n        } else {\n            // in case the ether count drops low, the ambassador phase won't reinitiate\n            onlyAmbassadors = false;\n            _;    \n        }\n        \n    }\n    \n    \n    /*==============================\n    =            EVENTS            =\n    ==============================*/\n    event onTokenPurchase(\n        address indexed customerAddress,\n        uint256 incomingEthereum,\n        uint256 tokensMinted,\n        address indexed referredBy\n    );\n    \n    event onTokenSell(\n        address indexed customerAddress,\n        uint256 tokensBurned,\n        uint256 ethereumEarned\n    );\n    \n    event onReinvestment(\n        address indexed customerAddress,\n        uint256 ethereumReinvested,\n        uint256 tokensMinted\n    );\n    \n    event onWithdraw(\n        address indexed customerAddress,\n        uint256 ethereumWithdrawn\n    );\n    \n    // ERC20\n    event Transfer(\n        address indexed from,\n        address indexed to,\n        uint256 tokens\n    );\n    \n    \n    /*=====================================\n    =            CONFIGURABLES            =\n    =====================================*/\n    string public name = \"PowH3D\";\n    string public symbol = \"P3D\";\n    uint8 constant public decimals = 18;\n    uint8 constant internal dividendFee_ = 10;\n    uint256 constant internal tokenPriceInitial_ = 0.0000001 ether;\n    uint256 constant internal tokenPriceIncremental_ = 0.00000001 ether;\n    uint256 constant internal magnitude = 2**64;\n    \n    // proof of stake (defaults at 100 tokens)\n    uint256 public stakingRequirement = 100e18;\n    \n    // ambassador program\n    mapping(address => bool) internal ambassadors_;\n    uint256 constant internal ambassadorMaxPurchase_ = 1 ether;\n    uint256 constant internal ambassadorQuota_ = 20 ether;\n    \n    \n    \n   /*================================\n    =            DATASETS            =\n    ================================*/\n    // amount of shares for each address (scaled number)\n    mapping(address => uint256) internal tokenBalanceLedger_;\n    mapping(address => uint256) internal referralBalance_;\n    mapping(address => int256) internal payoutsTo_;\n    mapping(address => uint256) internal ambassadorAccumulatedQuota_;\n    uint256 internal tokenSupply_ = 0;\n    uint256 internal profitPerShare_;\n    \n    // administrator list (see above on what they can do)\n    mapping(bytes32 => bool) public administrators;\n    \n    // when this is set to true, only ambassadors can purchase tokens (this prevents a whale premine, it ensures a fairly distributed upper pyramid)\n    bool public onlyAmbassadors = false;\n    \n\n\n    /*=======================================\n    =            PUBLIC FUNCTIONS            =\n    =======================================*/\n    /*\n    * -- APPLICATION ENTRY POINTS --  \n    */\n    function Hodl3D()\n        public\n    {\n        // add administrators here\n        administrators[0xdd8bb99b13fe33e1c32254dfb8fff3e71193f6b730a89dd33bfe5dedc6d83002] = true;\n        \n        // add the ambassadors here.\n        // mantso - lead solidity dev & lead web dev. \n        ambassadors_[0x8b4DA1827932D71759687f925D17F81Fc94e3A9D] = true;\n        \n        // ponzibot - mathematics & website, and undisputed meme god.\n        ambassadors_[0x8e0d985f3Ec1857BEc39B76aAabDEa6B31B67d53] = true;\n        \n        // swagg - concept design, feedback, management.\n        ambassadors_[0x7563A35d5610eE7c9CD330E255Da0e779a644C19] = true;\n        \n        // k-dawgz - shilling machine, meme maestro, bizman.\n        ambassadors_[0x215e3C713BADb158A457e61f99325bBB5d278E57] = true;\n        \n        // elmojo - all those pretty .GIFs & memes you see? you can thank this man for that.\n        ambassadors_[0xaFF8B5CDCB339eEf5e1100597740a394C7B9c6cA] = true;\n        \n        // capex - community moderator.\n        ambassadors_[0x8dc6569c28521560EAF1890bC41b2F3FC2010E1b] = true;\n        \n        // jrmungandr - pentests & twitter trendsetter.\n        ambassadors_[0xf14BE3662FE4c9215c27698166759Db6967De94f] = true;\n        \n        // inventor - the source behind the non-intrusive referral model.\n        ambassadors_[0x18E90Fc6F70344f53EBd4f6070bf6Aa23e2D748C] = true;\n        \n        // tocsick - pentesting, contract auditing.\n        ambassadors_[0x49Aae4D923207e80Fc91E626BCb6532502264dfC] = true;\n        \n        // arc - pentesting, contract auditing.\n        ambassadors_[0x3a0cca1A832644B60730E5D4c27947C5De609d62] = true;\n        \n        // sumpunk - contract auditing.\n        ambassadors_[0x7ac74Fcc1a71b106F12c55ee8F802C9F672Ce40C] = true;\n        \n        // randall - charts & sheets, data dissector, advisor.\n        ambassadors_[0x2b219C2178f099dE4E9A3667d5cCc2cc64da0763] = true;\n        \n        // ambius - 3d chart visualization.\n        ambassadors_[0x2A04C7335f90a6bd4e9c4F713DD792200e27F2E6] = true;\n        \n        // contributors that need to remain private out of security concerns.\n        ambassadors_[0x35668818ba8F768D4C21787a6f45C86C69394dfD] = true; //dp\n        ambassadors_[0xa3120da52e604aC3Fc80A63813Ef15476e0B6AbD] = true; //tc\n        ambassadors_[0x924E71bA600372e2410285423F1Fe66799b717EC] = true; //ja\n        ambassadors_[0x6Ed450e062C20F929CB7Ee72fCc53e9697980a18] = true; //sf\n        ambassadors_[0x18864A6682c8EB79EEA5B899F11bC94ef9a85ADb] = true; //tb\n        ambassadors_[0x9cC1BdC994b7a847705D19106287C0BF94EF04B5] = true; //sm\n        ambassadors_[0x6926572813ec1438088963f208C61847df435a74] = true; //mc\n        ambassadors_[0xE16Ab764a02Ae03681E351Ac58FE79717c0eE8C6] = true; //et\n        ambassadors_[0x276F4a79F22D1BfC51Bd8dc5b27Bfd934C823932] = true; //sn\n        ambassadors_[0xA2b4ed3E2f4beF09FB35101B76Ef4cB9D3eeCaCf] = true; //bt\n        ambassadors_[0x147fc6b04c95BCE47D013c8d7a200ee434323669] = true; //al\n        \n\n    }\n    \n     \n    /**\n     * Converts all incoming ethereum to tokens for the caller, and passes down the referral addy (if any)\n     */\n    function buy(address _referredBy)\n        public\n        payable\n        returns(uint256)\n    {\n        purchaseTokens(msg.value, _referredBy);\n    }\n    \n    /**\n     * Fallback function to handle ethereum that was send straight to the contract\n     * Unfortunately we cannot use a referral address this way.\n     */\n    function()\n        payable\n        public\n    {\n        purchaseTokens(msg.value, 0x0);\n    }\n    \n    /**\n     * Converts all of caller's dividends to tokens.\n     */\n    function reinvest()\n        onlyStronghands()\n        public\n    {\n        // fetch dividends\n        uint256 _dividends = myDividends(false); // retrieve ref. bonus later in the code\n        \n        // pay out the dividends virtually\n        address _customerAddress = msg.sender;\n        payoutsTo_[_customerAddress] +=  (int256) (_dividends * magnitude);\n        \n        // retrieve ref. bonus\n        _dividends += referralBalance_[_customerAddress];\n        referralBalance_[_customerAddress] = 0;\n        \n        // dispatch a buy order with the virtualized \"withdrawn dividends\"\n        uint256 _tokens = purchaseTokens(_dividends, 0x0);\n        \n        // fire event\n        onReinvestment(_customerAddress, _dividends, _tokens);\n    }\n    \n    /**\n     * Alias of sell() and withdraw().\n     */\n    function exit()\n        public\n    {\n        // get token count for caller & sell them all\n        address _customerAddress = msg.sender;\n        uint256 _tokens = tokenBalanceLedger_[_customerAddress];\n        if(_tokens > 0) sell(_tokens);\n        \n        // lambo delivery service\n        withdraw();\n    }\n\n    /**\n     * Withdraws all of the callers earnings.\n     */\n    function withdraw()\n        onlyStronghands()\n        public\n    {\n        // setup data\n        address _customerAddress = msg.sender;\n        uint256 _dividends = myDividends(false); // get ref. bonus later in the code\n        \n        // update dividend tracker\n        payoutsTo_[_customerAddress] +=  (int256) (_dividends * magnitude);\n        \n        // add ref. bonus\n        _dividends += referralBalance_[_customerAddress];\n        referralBalance_[_customerAddress] = 0;\n        \n        // lambo delivery service\n        _customerAddress.transfer(_dividends);\n        \n        // fire event\n        onWithdraw(_customerAddress, _dividends);\n    }\n    \n    /**\n     * Liquifies tokens to ethereum.\n     */\n    function sell(uint256 _amountOfTokens)\n        onlyBagholders()\n        public\n    {\n        // setup data\n        address _customerAddress = msg.sender;\n        // russian hackers BTFO\n        require(_amountOfTokens <= tokenBalanceLedger_[_customerAddress]);\n        uint256 _tokens = _amountOfTokens;\n        uint256 _ethereum = tokensToEthereum_(_tokens);\n        uint256 _dividends = SafeMath.div(_ethereum, dividendFee_);\n        uint256 _taxedEthereum = SafeMath.sub(_ethereum, _dividends);\n        \n        // burn the sold tokens\n        tokenSupply_ = SafeMath.sub(tokenSupply_, _tokens);\n        tokenBalanceLedger_[_customerAddress] = SafeMath.sub(tokenBalanceLedger_[_customerAddress], _tokens);\n        \n        // update dividends tracker\n        int256 _updatedPayouts = (int256) (profitPerShare_ * _tokens + (_taxedEthereum * magnitude));\n        payoutsTo_[_customerAddress] -= _updatedPayouts;       \n        \n        // dividing by zero is a bad idea\n        if (tokenSupply_ > 0) {\n            // update the amount of dividends per token\n            profitPerShare_ = SafeMath.add(profitPerShare_, (_dividends * magnitude) / tokenSupply_);\n        }\n        \n        // fire event\n        onTokenSell(_customerAddress, _tokens, _taxedEthereum);\n    }\n    \n    \n    /**\n     * Transfer tokens from the caller to a new holder.\n     * Remember, there's a 10% fee here as well.\n     */\n    function transfer(address _toAddress, uint256 _amountOfTokens)\n        onlyBagholders()\n        public\n        returns(bool)\n    {\n        // setup\n        address _customerAddress = msg.sender;\n        \n        // make sure we have the requested tokens\n        // also disables transfers until ambassador phase is over\n        // ( we dont want whale premines )\n        require(!onlyAmbassadors && _amountOfTokens <= tokenBalanceLedger_[_customerAddress]);\n        \n        // withdraw all outstanding dividends first\n        if(myDividends(true) > 0) withdraw();\n        \n        // liquify 10% of the tokens that are transfered\n        // these are dispersed to shareholders\n        uint256 _tokenFee = SafeMath.div(_amountOfTokens, dividendFee_);\n        uint256 _taxedTokens = SafeMath.sub(_amountOfTokens, _tokenFee);\n        uint256 _dividends = tokensToEthereum_(_tokenFee);\n  \n        // burn the fee tokens\n        tokenSupply_ = SafeMath.sub(tokenSupply_, _tokenFee);\n\n        // exchange tokens\n        tokenBalanceLedger_[_customerAddress] = SafeMath.sub(tokenBalanceLedger_[_customerAddress], _amountOfTokens);\n        tokenBalanceLedger_[_toAddress] = SafeMath.add(tokenBalanceLedger_[_toAddress], _taxedTokens);\n        \n        // update dividend trackers\n        payoutsTo_[_customerAddress] -= (int256) (profitPerShare_ * _amountOfTokens);\n        payoutsTo_[_toAddress] += (int256) (profitPerShare_ * _taxedTokens);\n        \n        // disperse dividends among holders\n        profitPerShare_ = SafeMath.add(profitPerShare_, (_dividends * magnitude) / tokenSupply_);\n        \n        // fire event\n        Transfer(_customerAddress, _toAddress, _taxedTokens);\n        \n        // ERC20\n        return true;\n       \n    }\n    \n    /*----------  ADMINISTRATOR ONLY FUNCTIONS  ----------*/\n    /**\n     * In case the amassador quota is not met, the administrator can manually disable the ambassador phase.\n     */\n    function disableInitialStage()\n        onlyAdministrator()\n        public\n    {\n        onlyAmbassadors = false;\n    }\n    \n    /**\n     * In case one of us dies, we need to replace ourselves.\n     */\n    function setAdministrator(bytes32 _identifier, bool _status)\n        onlyAdministrator()\n        public\n    {\n        administrators[_identifier] = _status;\n    }\n    \n    /**\n     * Precautionary measures in case we need to adjust the masternode rate.\n     */\n    function setStakingRequirement(uint256 _amountOfTokens)\n        onlyAdministrator()\n        public\n    {\n        stakingRequirement = _amountOfTokens;\n    }\n    \n    /**\n     * If we want to rebrand, we can.\n     */\n    function setName(string _name)\n        onlyAdministrator()\n        public\n    {\n        name = _name;\n    }\n    \n    /**\n     * If we want to rebrand, we can.\n     */\n    function setSymbol(string _symbol)\n        onlyAdministrator()\n        public\n    {\n        symbol = _symbol;\n    }\n\n    \n    /*----------  HELPERS AND CALCULATORS  ----------*/\n    /**\n     * Method to view the current Ethereum stored in the contract\n     * Example: totalEthereumBalance()\n     */\n    function totalEthereumBalance()\n        public\n        view\n        returns(uint)\n    {\n        return this.balance;\n    }\n    \n    /**\n     * Retrieve the total token supply.\n     */\n    function totalSupply()\n        public\n        view\n        returns(uint256)\n    {\n        return tokenSupply_;\n    }\n    \n    /**\n     * Retrieve the tokens owned by the caller.\n     */\n    function myTokens()\n        public\n        view\n        returns(uint256)\n    {\n        address _customerAddress = msg.sender;\n        return balanceOf(_customerAddress);\n    }\n    \n    /**\n     * Retrieve the dividends owned by the caller.\n     * If `_includeReferralBonus` is to to 1/true, the referral bonus will be included in the calculations.\n     * The reason for this, is that in the frontend, we will want to get the total divs (global + ref)\n     * But in the internal calculations, we want them separate. \n     */ \n    function myDividends(bool _includeReferralBonus) \n        public \n        view \n        returns(uint256)\n    {\n        address _customerAddress = msg.sender;\n        return _includeReferralBonus ? dividendsOf(_customerAddress) + referralBalance_[_customerAddress] : dividendsOf(_customerAddress) ;\n    }\n    \n    /**\n     * Retrieve the token balance of any single address.\n     */\n    function balanceOf(address _customerAddress)\n        view\n        public\n        returns(uint256)\n    {\n        return tokenBalanceLedger_[_customerAddress];\n    }\n    \n    /**\n     * Retrieve the dividend balance of any single address.\n     */\n    function dividendsOf(address _customerAddress)\n        view\n        public\n        returns(uint256)\n    {\n        return (uint256) ((int256)(profitPerShare_ * tokenBalanceLedger_[_customerAddress]) - payoutsTo_[_customerAddress]) / magnitude;\n    }\n    \n    /**\n     * Return the buy price of 1 individual token.\n     */\n    function sellPrice() \n        public \n        view \n        returns(uint256)\n    {\n        // our calculation relies on the token supply, so we need supply. Doh.\n        if(tokenSupply_ == 0){\n            return tokenPriceInitial_ - tokenPriceIncremental_;\n        } else {\n            uint256 _ethereum = tokensToEthereum_(1e18);\n            uint256 _dividends = SafeMath.div(_ethereum, dividendFee_  );\n            uint256 _taxedEthereum = SafeMath.sub(_ethereum, _dividends);\n            return _taxedEthereum;\n        }\n    }\n    \n    /**\n     * Return the sell price of 1 individual token.\n     */\n    function buyPrice() \n        public \n        view \n        returns(uint256)\n    {\n        // our calculation relies on the token supply, so we need supply. Doh.\n        if(tokenSupply_ == 0){\n            return tokenPriceInitial_ + tokenPriceIncremental_;\n        } else {\n            uint256 _ethereum = tokensToEthereum_(1e18);\n            uint256 _dividends = SafeMath.div(_ethereum, dividendFee_  );\n            uint256 _taxedEthereum = SafeMath.add(_ethereum, _dividends);\n            return _taxedEthereum;\n        }\n    }\n    \n    /**\n     * Function for the frontend to dynamically retrieve the price scaling of buy orders.\n     */\n    function calculateTokensReceived(uint256 _ethereumToSpend) \n        public \n        view \n        returns(uint256)\n    {\n        uint256 _dividends = SafeMath.div(_ethereumToSpend, dividendFee_);\n        uint256 _taxedEthereum = SafeMath.sub(_ethereumToSpend, _dividends);\n        uint256 _amountOfTokens = ethereumToTokens_(_taxedEthereum);\n        \n        return _amountOfTokens;\n    }\n    \n    /**\n     * Function for the frontend to dynamically retrieve the price scaling of sell orders.\n     */\n    function calculateEthereumReceived(uint256 _tokensToSell) \n        public \n        view \n        returns(uint256)\n    {\n        require(_tokensToSell <= tokenSupply_);\n        uint256 _ethereum = tokensToEthereum_(_tokensToSell);\n        uint256 _dividends = SafeMath.div(_ethereum, dividendFee_);\n        uint256 _taxedEthereum = SafeMath.sub(_ethereum, _dividends);\n        return _taxedEthereum;\n    }\n    \n    \n    /*==========================================\n    =            INTERNAL FUNCTIONS            =\n    ==========================================*/\n    function purchaseTokens(uint256 _incomingEthereum, address _referredBy)\n        antiEarlyWhale(_incomingEthereum)\n        internal\n        returns(uint256)\n    {\n        // data setup\n        address _customerAddress = msg.sender;\n        uint256 _undividedDividends = SafeMath.div(_incomingEthereum, dividendFee_);\n        uint256 _referralBonus = SafeMath.div(_undividedDividends, 3);\n        uint256 _dividends = SafeMath.sub(_undividedDividends, _referralBonus);\n        uint256 _taxedEthereum = SafeMath.sub(_incomingEthereum, _undividedDividends);\n        uint256 _amountOfTokens = ethereumToTokens_(_taxedEthereum);\n        uint256 _fee = _dividends * magnitude;\n \n        // no point in continuing execution if OP is a poorfag russian hacker\n        // prevents overflow in the case that the pyramid somehow magically starts being used by everyone in the world\n        // (or hackers)\n        // and yes we know that the safemath function automatically rules out the \"greater then\" equasion.\n        require(_amountOfTokens > 0 && (SafeMath.add(_amountOfTokens,tokenSupply_) > tokenSupply_));\n        \n        // is the user referred by a masternode?\n        if(\n            // is this a referred purchase?\n            _referredBy != 0x0000000000000000000000000000000000000000 &&\n\n            // no cheating!\n            _referredBy != _customerAddress &&\n            \n            // does the referrer have at least X whole tokens?\n            // i.e is the referrer a godly chad masternode\n            tokenBalanceLedger_[_referredBy] >= stakingRequirement\n        ){\n            // wealth redistribution\n            referralBalance_[_referredBy] = SafeMath.add(referralBalance_[_referredBy], _referralBonus);\n        } else {\n            // no ref purchase\n            // add the referral bonus back to the global dividends cake\n            _dividends = SafeMath.add(_dividends, _referralBonus);\n            _fee = _dividends * magnitude;\n        }\n        \n        // we can't give people infinite ethereum\n        if(tokenSupply_ > 0){\n            \n            // add tokens to the pool\n            tokenSupply_ = SafeMath.add(tokenSupply_, _amountOfTokens);\n \n            // take the amount of dividends gained through this transaction, and allocates them evenly to each shareholder\n            profitPerShare_ += (_dividends * magnitude / (tokenSupply_));\n            \n            // calculate the amount of tokens the customer receives over his purchase \n            _fee = _fee - (_fee-(_amountOfTokens * (_dividends * magnitude / (tokenSupply_))));\n        \n        } else {\n            // add tokens to the pool\n            tokenSupply_ = _amountOfTokens;\n        }\n        \n        // update circulating supply & the ledger address for the customer\n        tokenBalanceLedger_[_customerAddress] = SafeMath.add(tokenBalanceLedger_[_customerAddress], _amountOfTokens);\n        \n        // Tells the contract that the buyer doesn't deserve dividends for the tokens before they owned them;\n        //really i know you think you do but you don't\n        int256 _updatedPayouts = (int256) ((profitPerShare_ * _amountOfTokens) - _fee);\n        payoutsTo_[_customerAddress] += _updatedPayouts;\n        \n        // fire event\n        onTokenPurchase(_customerAddress, _incomingEthereum, _amountOfTokens, _referredBy);\n        \n        return _amountOfTokens;\n    }\n\n    /**\n     * Calculate Token price based on an amount of incoming ethereum\n     * It's an algorithm, hopefully we gave you the whitepaper with it in scientific notation;\n     * Some conversions occurred to prevent decimal errors or underflows / overflows in solidity code.\n     */\n    function ethereumToTokens_(uint256 _ethereum)\n        internal\n        view\n        returns(uint256)\n    {\n        uint256 _tokenPriceInitial = tokenPriceInitial_ * 1e18;\n        uint256 _tokensReceived = \n         (\n            (\n                // underflow attempts BTFO\n                SafeMath.sub(\n                    (sqrt\n                        (\n                            (_tokenPriceInitial**2)\n                            +\n                            (2*(tokenPriceIncremental_ * 1e18)*(_ethereum * 1e18))\n                            +\n                            (((tokenPriceIncremental_)**2)*(tokenSupply_**2))\n                            +\n                            (2*(tokenPriceIncremental_)*_tokenPriceInitial*tokenSupply_)\n                        )\n                    ), _tokenPriceInitial\n                )\n            )/(tokenPriceIncremental_)\n        )-(tokenSupply_)\n        ;\n  \n        return _tokensReceived;\n    }\n    \n    /**\n     * Calculate token sell value.\n     * It's an algorithm, hopefully we gave you the whitepaper with it in scientific notation;\n     * Some conversions occurred to prevent decimal errors or underflows / overflows in solidity code.\n     */\n     function tokensToEthereum_(uint256 _tokens)\n        internal\n        view\n        returns(uint256)\n    {\n\n        uint256 tokens_ = (_tokens + 1e18);\n        uint256 _tokenSupply = (tokenSupply_ + 1e18);\n        uint256 _etherReceived =\n        (\n            // underflow attempts BTFO\n            SafeMath.sub(\n                (\n                    (\n                        (\n                            tokenPriceInitial_ +(tokenPriceIncremental_ * (_tokenSupply/1e18))\n                        )-tokenPriceIncremental_\n                    )*(tokens_ - 1e18)\n                ),(tokenPriceIncremental_*((tokens_**2-tokens_)/1e18))/2\n            )\n        /1e18);\n        return _etherReceived;\n    }\n    \n    \n    //This is where all your gas goes, sorry\n    //Not sorry, you probably only paid 1 gwei\n    function sqrt(uint x) internal pure returns (uint y) {\n        uint z = (x + 1) / 2;\n        y = x;\n        while (z < y) {\n            y = z;\n            z = (x / z + z) / 2;\n        }\n    }\n}\n\n/**\n * @title SafeMath\n * @dev Math operations with safety checks that throw on error\n */\nlibrary SafeMath {\n\n    /**\n    * @dev Multiplies two numbers, throws on overflow.\n    */\n    function mul(uint256 a, uint256 b) internal pure returns (uint256) {\n        if (a == 0) {\n            return 0;\n        }\n        uint256 c = a * b;\n        assert(c / a == b);\n        return c;\n    }\n\n    /**\n    * @dev Integer division of two numbers, truncating the quotient.\n    */\n    function div(uint256 a, uint256 b) internal pure returns (uint256) {\n        // assert(b > 0); // Solidity automatically throws when dividing by 0\n        uint256 c = a / b;\n        // assert(a == b * c + a % b); // There is no case in which this doesn't hold\n        return c;\n    }\n\n    /**\n    * @dev Substracts two numbers, throws on overflow (i.e. if subtrahend is greater than minuend).\n    */\n    function sub(uint256 a, uint256 b) internal pure returns (uint256) {\n        assert(b <= a);\n        return a - b;\n    }\n\n    /**\n    * @dev Adds two numbers, throws on overflow.\n    */\n    function add(uint256 a, uint256 b) internal pure returns (uint256) {\n        uint256 c = a + b;\n        assert(c >= a);\n        return c;\n    }\n}\n",
  "sourcePath": "/root/projects/HODL3D/contracts/Hodl3D.sol",
  "compiler": {
    "name": "solc",
    "version": "0.4.24+commit.e67f0147.Emscripten.clang"
  },
  "schemaVersion": "2.0.0",
  "updatedAt": "2018-07-22T02:22:08.429Z"
}