{
  "contractName": "JIincForwarder",
  "abi": [
    {
      "constant": true,
      "inputs": [],
      "name": "name",
      "outputs": [
        {
          "name": "",
          "type": "string"
        }
      ],
      "payable": false,
      "stateMutability": "view",
      "type": "function"
    },
    {
      "inputs": [],
      "payable": false,
      "stateMutability": "nonpayable",
      "type": "constructor"
    },
    {
      "payable": true,
      "stateMutability": "payable",
      "type": "fallback"
    },
    {
      "constant": false,
      "inputs": [],
      "name": "deposit",
      "outputs": [
        {
          "name": "",
          "type": "bool"
        }
      ],
      "payable": true,
      "stateMutability": "payable",
      "type": "function"
    },
    {
      "constant": true,
      "inputs": [],
      "name": "status",
      "outputs": [
        {
          "name": "",
          "type": "address"
        },
        {
          "name": "",
          "type": "address"
        },
        {
          "name": "",
          "type": "bool"
        }
      ],
      "payable": false,
      "stateMutability": "view",
      "type": "function"
    },
    {
      "constant": false,
      "inputs": [
        {
          "name": "_newCorpBank",
          "type": "address"
        }
      ],
      "name": "startMigration",
      "outputs": [
        {
          "name": "",
          "type": "bool"
        }
      ],
      "payable": false,
      "stateMutability": "nonpayable",
      "type": "function"
    },
    {
      "constant": false,
      "inputs": [],
      "name": "cancelMigration",
      "outputs": [
        {
          "name": "",
          "type": "bool"
        }
      ],
      "payable": false,
      "stateMutability": "nonpayable",
      "type": "function"
    },
    {
      "constant": false,
      "inputs": [],
      "name": "finishMigration",
      "outputs": [
        {
          "name": "",
          "type": "bool"
        }
      ],
      "payable": false,
      "stateMutability": "nonpayable",
      "type": "function"
    },
    {
      "constant": false,
      "inputs": [
        {
          "name": "_firstCorpBank",
          "type": "address"
        }
      ],
      "name": "setup",
      "outputs": [],
      "payable": false,
      "stateMutability": "nonpayable",
      "type": "function"
    }
  ],
  "bytecode": "0x60806040526040805190810160405280600e81526020017f4a49696e63466f727761726465720000000000000000000000000000000000008152506000908051906020019061004f92919061007d565b506001600260146101000a81548160ff02191690831515021790555034801561007757600080fd5b50610122565b828054600181600116156101000203166002900490600052602060002090601f016020900481019282601f106100be57805160ff19168380011785556100ec565b828001600101855582156100ec579182015b828111156100eb5782518255916020019190600101906100d0565b5b5090506100f991906100fd565b5090565b61011f91905b8082111561011b576000816000905550600101610103565b5090565b90565b610dce806101316000396000f300608060405260043610610083576000357c0100000000000000000000000000000000000000000000000000000000900463ffffffff16806306fdde03146101b857806310639ea014610248578063200d2ed21461027757806366d382031461030c57806388d761f21461034f578063a0f52da01461037e578063d0e30db0146103d9575b600160009054906101000a900473ffffffffffffffffffffffffffffffffffffffff1673ffffffffffffffffffffffffffffffffffffffff1663f340fa013073ffffffffffffffffffffffffffffffffffffffff1631600160009054906101000a900473ffffffffffffffffffffffffffffffffffffffff166040518363ffffffff167c0100000000000000000000000000000000000000000000000000000000028152600401808273ffffffffffffffffffffffffffffffffffffffff1673ffffffffffffffffffffffffffffffffffffffff1681526020019150506020604051808303818588803b15801561017957600080fd5b505af115801561018d573d6000803e3d6000fd5b50505050506040513d60208110156101a457600080fd5b810190808051906020019092919050505050005b3480156101c457600080fd5b506101cd6103fb565b6040518080602001828103825283818151815260200191508051906020019080838360005b8381101561020d5780820151818401526020810190506101f2565b50505050905090810190601f16801561023a5780820380516001836020036101000a031916815260200191505b509250505060405180910390f35b34801561025457600080fd5b5061025d610499565b604051808215151515815260200191505060405180910390f35b34801561028357600080fd5b5061028c6105f5565b604051808473ffffffffffffffffffffffffffffffffffffffff1673ffffffffffffffffffffffffffffffffffffffff1681526020018373ffffffffffffffffffffffffffffffffffffffff1673ffffffffffffffffffffffffffffffffffffffff16815260200182151515158152602001935050505060405180910390f35b34801561031857600080fd5b5061034d600480360381019080803573ffffffffffffffffffffffffffffffffffffffff16906020019092919050505061065b565b005b34801561035b57600080fd5b5061036461076b565b604051808215151515815260200191505060405180910390f35b34801561038a57600080fd5b506103bf600480360381019080803573ffffffffffffffffffffffffffffffffffffffff16906020019092919050505061092a565b604051808215151515815260200191505060405180910390f35b6103e1610b3c565b604051808215151515815260200191505060405180910390f35b60008054600181600116156101000203166002900480601f0160208091040260200160405190810160405280929190818152602001828054600181600116156101000203166002900480156104915780601f1061046657610100808354040283529160200191610491565b820191906000526020600020905b81548152906001019060200180831161047457829003601f168201915b505050505081565b6000600160009054906101000a900473ffffffffffffffffffffffffffffffffffffffff1673ffffffffffffffffffffffffffffffffffffffff163373ffffffffffffffffffffffffffffffffffffffff161415156105ac576040517f08c379a00000000000000000000000000000000000000000000000000000000081526004018080602001828103825260478152602001807f466f727761726465722063616e63656c4d6967726174696f6e206661696c656481526020017f202d206d73672e73656e646572206d7573742062652063757272656e7420636f81526020017f72702062616e6b0000000000000000000000000000000000000000000000000081525060600191505060405180910390fd5b6000600260006101000a81548173ffffffffffffffffffffffffffffffffffffffff021916908373ffffffffffffffffffffffffffffffffffffffff1602179055506001905090565b6000806000600160009054906101000a900473ffffffffffffffffffffffffffffffffffffffff16600260009054906101000a900473ffffffffffffffffffffffffffffffffffffffff16600260149054906101000a900460ff16925092509250909192565b60011515600260149054906101000a900460ff16151514151561070c576040517f08c379a00000000000000000000000000000000000000000000000000000000081526004018080602001828103825260358152602001807f466f72776172646572207365747570206661696c6564202d20636f727020626181526020017f6e6b20616c72656164792072656769737465726564000000000000000000000081525060400191505060405180910390fd5b80600160006101000a81548173ffffffffffffffffffffffffffffffffffffffff021916908373ffffffffffffffffffffffffffffffffffffffff1602179055506000600260146101000a81548160ff02191690831515021790555050565b6000600260009054906101000a900473ffffffffffffffffffffffffffffffffffffffff1673ffffffffffffffffffffffffffffffffffffffff163373ffffffffffffffffffffffffffffffffffffffff1614151561087e576040517f08c379a00000000000000000000000000000000000000000000000000000000081526004018080602001828103825260438152602001807f466f727761726465722066696e6973684d6967726174696f6e206661696c656481526020017f202d206d73672e73656e646572206d757374206265206e657720636f7270206281526020017f616e6b000000000000000000000000000000000000000000000000000000000081525060600191505060405180910390fd5b600260009054906101000a900473ffffffffffffffffffffffffffffffffffffffff16600160006101000a81548173ffffffffffffffffffffffffffffffffffffffff021916908373ffffffffffffffffffffffffffffffffffffffff1602179055506000600260006101000a81548173ffffffffffffffffffffffffffffffffffffffff021916908373ffffffffffffffffffffffffffffffffffffffff1602179055506001905090565b6000600160009054906101000a900473ffffffffffffffffffffffffffffffffffffffff1673ffffffffffffffffffffffffffffffffffffffff163373ffffffffffffffffffffffffffffffffffffffff16141515610a3d576040517f08c379a00000000000000000000000000000000000000000000000000000000081526004018080602001828103825260468152602001807f466f727761726465722073746172744d6967726174696f6e206661696c65642081526020017f2d206d73672e73656e646572206d7573742062652063757272656e7420636f7281526020017f702062616e6b000000000000000000000000000000000000000000000000000081525060600191505060405180910390fd5b600115158273ffffffffffffffffffffffffffffffffffffffff16630839e0fb6040518163ffffffff167c0100000000000000000000000000000000000000000000000000000000028152600401602060405180830381600087803b158015610aa557600080fd5b505af1158015610ab9573d6000803e3d6000fd5b505050506040513d6020811015610acf57600080fd5b810190808051906020019092919050505015151415610b325781600260006101000a81548173ffffffffffffffffffffffffffffffffffffffff021916908373ffffffffffffffffffffffffffffffffffffffff16021790555060019050610b37565b600090505b919050565b60008034111515610bdb576040517f08c379a00000000000000000000000000000000000000000000000000000000081526004018080602001828103825260348152602001807f466f72776172646572204465706f736974206661696c6564202d207a65726f2081526020017f6465706f73697473206e6f7420616c6c6f77656400000000000000000000000081525060400191505060405180910390fd5b60001515600260149054906101000a900460ff161515141515610c8c576040517f08c379a000000000000000000000000000000000000000000000000000000000815260040180806020018281038252602d8152602001807f466f72776172646572204465706f736974206661696c6564202d206e6f20726581526020017f67697374657265642062616e6b0000000000000000000000000000000000000081525060400191505060405180910390fd5b60011515600160009054906101000a900473ffffffffffffffffffffffffffffffffffffffff1673ffffffffffffffffffffffffffffffffffffffff1663f340fa0134336040518363ffffffff167c0100000000000000000000000000000000000000000000000000000000028152600401808273ffffffffffffffffffffffffffffffffffffffff1673ffffffffffffffffffffffffffffffffffffffff1681526020019150506020604051808303818588803b158015610d4d57600080fd5b505af1158015610d61573d6000803e3d6000fd5b50505050506040513d6020811015610d7857600080fd5b810190808051906020019092919050505015151415610d9a5760019050610d9f565b600090505b905600a165627a7a7230582067b2819c25ffc380a09deca4be85fa396e7b1dfa31d97eac51899372234ab60b0029",
  "source": "pragma solidity ^0.4.24;\n/*\n * @title -Jekyll Island- CORP BANK FORWARDER v0.4.6\n * ┌┬┐┌─┐┌─┐┌┬┐   ╦╦ ╦╔═╗╔╦╗  ┌─┐┬─┐┌─┐┌─┐┌─┐┌┐┌┌┬┐┌─┐\n *  │ ├┤ ├─┤│││   ║║ ║╚═╗ ║   ├─┘├┬┘├┤ └─┐├┤ │││ │ └─┐\n *  ┴ └─┘┴ ┴┴ ┴  ╚╝╚═╝╚═╝ ╩   ┴  ┴└─└─┘└─┘└─┘┘└┘ ┴ └─┘\n *                                  _____                      _____\n *                                 (, /     /)       /) /)    (, /      /)          /)\n *          ┌─┐                      /   _ (/_      // //       /  _   // _   __  _(/\n *          ├─┤                  ___/___(/_/(__(_/_(/_(/_   ___/__/_)_(/_(_(_/ (_(_(_\n *          ┴ ┴                /   /          .-/ _____   (__ /                               \n *                            (__ /          (_/ (, /                                      /)™ \n *                                                 /  __  __ __ __  _   __ __  _  _/_ _  _(/\n * ┌─┐┬─┐┌─┐┌┬┐┬ ┬┌─┐┌┬┐                          /__/ (_(__(_)/ (_/_)_(_)/ (_(_(_(__(/_(_(_\n * ├─┘├┬┘│ │ │││ ││   │                      (__ /              .-/  © Jekyll Island Inc. 2018\n * ┴  ┴└─└─┘─┴┘└─┘└─┘ ┴                                        (_/\n *====/$$$$$===========/$$=================/$$ /$$====/$$$$$$===========/$$===========================/$$=*\n *   |__  $$          | $$                | $$| $$   |_  $$_/          | $$                          | $$\n *      | $$  /$$$$$$ | $$   /$$ /$$   /$$| $$| $$     | $$    /$$$$$$$| $$  /$$$$$$  /$$$$$$$   /$$$$$$$\n *      | $$ /$$__  $$| $$  /$$/| $$  | $$| $$| $$     | $$   /$$_____/| $$ |____  $$| $$__  $$ /$$__  $$\n * /$$  | $$| $$$$$$$$| $$$$$$/ | $$  | $$| $$| $$     | $$  |  $$$$$$ | $$  /$$$$$$$| $$  \\ $$| $$  | $$\n *| $$  | $$| $$_____/| $$_  $$ | $$  | $$| $$| $$     | $$   \\____  $$| $$ /$$__  $$| $$  | $$| $$  | $$\n *|  $$$$$$/|  $$$$$$$| $$ \\  $$|  $$$$$$$| $$| $$    /$$$$$$ /$$$$$$$/| $$|  $$$$$$$| $$  | $$|  $$$$$$$\n * \\______/  \\_______/|__/  \\__/ \\____  $$|__/|__/   |______/|_______/ |__/ \\_______/|__/  |__/ \\_______/\n *===============================/$$  | $$ Inc.  ╔═╗╔═╗╦═╗╔═╗  ╔╗ ╔═╗╔╗╔╦╔═  ┌─┐┌─┐┬─┐┬ ┬┌─┐┬─┐┌┬┐┌─┐┬─┐                                 \n *                              |  $$$$$$/=======║  ║ ║╠╦╝╠═╝  ╠╩╗╠═╣║║║╠╩╗  ├┤ │ │├┬┘│││├─┤├┬┘ ││├┤ ├┬┘  \n *                               \\______/        ╚═╝╚═╝╩╚═╩    ╚═╝╩ ╩╝╚╝╩ ╩  └  └─┘┴└─└┴┘┴ ┴┴└──┴┘└─┘┴└─==*\n * ╔═╗┌─┐┌┐┌┌┬┐┬─┐┌─┐┌─┐┌┬┐  ╔═╗┌─┐┌┬┐┌─┐ ┌──────────┐                       \n * ║  │ ││││ │ ├┬┘├─┤│   │   ║  │ │ ││├┤  │ Inventor │                      \n * ╚═╝└─┘┘└┘ ┴ ┴└─┴ ┴└─┘ ┴   ╚═╝└─┘─┴┘└─┘ └──────────┘                      \n *===========================================================================================*\n *                                ┌────────────────────┐\n *                                │ Setup Instructions │\n *                                └────────────────────┘\n * (Step 1) import the Jekyll Island Inc Forwarder Interface into your contract\n * \n *    import \"./JIincForwarderInterface.sol\";\n *\n * (Step 2) set it to point to the forwarder\n * \n *    JIincForwarderInterface private Jekyll_Island_Inc = JIincForwarderInterface(0xdd4950F977EE28D2C132f1353D1595035Db444EE);\n *                                ┌────────────────────┐\n *                                │ Usage Instructions │\n *                                └────────────────────┘\n * whenever your contract needs to send eth to the corp bank, simply use the \n * the following command:\n *\n *    Jekyll_Island_Inc.deposit.value(amount)()\n * \n * OPTIONAL:\n * if you need to be checking wither the transaction was successful, the deposit function returns \n * a bool indicating wither or not it was successful.  so another way to call this function \n * would be:\n * \n *    require(Jekyll_Island_Inc.deposit.value(amount)() == true, \"Jekyll Island deposit failed\");\n * \n */\n\ninterface JIincInterfaceForForwarder {\n    function deposit(address _addr) external payable returns (bool);\n    function migrationReceiver_setup() external returns (bool);\n}\n\ncontract JIincForwarder {\n    string public name = \"JIincForwarder\";\n    JIincInterfaceForForwarder private currentCorpBank_;\n    address private newCorpBank_;\n    bool needsBank_ = true;\n    \n    constructor() \n        public\n    {\n        //constructor does nothing.\n    }\n    \n    function()\n        public\n        payable\n    {\n        // done so that if any one tries to dump eth into this contract, we can\n        // just forward it to corp bank.\n        currentCorpBank_.deposit.value(address(this).balance)(address(currentCorpBank_));\n    }\n    \n    function deposit()\n        public \n        payable\n        returns(bool)\n    {\n        require(msg.value > 0, \"Forwarder Deposit failed - zero deposits not allowed\");\n        require(needsBank_ == false, \"Forwarder Deposit failed - no registered bank\");\n        if (currentCorpBank_.deposit.value(msg.value)(msg.sender) == true)\n            return(true);\n        else\n            return(false);\n    }\n//==============================================================================\n//     _ _ . _  _ _ _|_. _  _   .\n//    | | ||(_|| (_| | |(_)| |  .\n//===========_|=================================================================    \n    function status()\n        public\n        view\n        returns(address, address, bool)\n    {\n        return(address(currentCorpBank_), address(newCorpBank_), needsBank_);\n    }\n\n    function startMigration(address _newCorpBank)\n        external\n        returns(bool)\n    {\n        // make sure this is coming from current corp bank\n        require(msg.sender == address(currentCorpBank_), \"Forwarder startMigration failed - msg.sender must be current corp bank\");\n        \n        // communicate with the new corp bank and make sure it has the forwarder \n        // registered \n        if(JIincInterfaceForForwarder(_newCorpBank).migrationReceiver_setup() == true)\n        {\n            // save our new corp bank address\n            newCorpBank_ = _newCorpBank;\n            return (true);\n        } else \n            return (false);\n    }\n    \n    function cancelMigration()\n        external\n        returns(bool)\n    {\n        // make sure this is coming from the current corp bank (also lets us know \n        // that current corp bank has not been killed)\n        require(msg.sender == address(currentCorpBank_), \"Forwarder cancelMigration failed - msg.sender must be current corp bank\");\n        \n        // erase stored new corp bank address;\n        newCorpBank_ = address(0x0);\n        \n        return (true);\n    }\n    \n    function finishMigration()\n        external\n        returns(bool)\n    {\n        // make sure its coming from new corp bank\n        require(msg.sender == newCorpBank_, \"Forwarder finishMigration failed - msg.sender must be new corp bank\");\n\n        // update corp bank address        \n        currentCorpBank_ = (JIincInterfaceForForwarder(newCorpBank_));\n        \n        // erase new corp bank address\n        newCorpBank_ = address(0x0);\n        \n        return (true);\n    }\n//==============================================================================\n//    . _ ._|_. _ |   _ _ _|_    _   .\n//    || || | |(_||  _\\(/_ | |_||_)  .  (this only runs once ever)\n//==============================|===============================================\n    function setup(address _firstCorpBank)\n        external\n    {\n        require(needsBank_ == true, \"Forwarder setup failed - corp bank already registered\");\n        currentCorpBank_ = JIincInterfaceForForwarder(_firstCorpBank);\n        needsBank_ = false;\n    }\n}",
  "sourcePath": "/root/projects/fomo3d_clone/contracts/JIincForwarder.sol",
  "compiler": {
    "name": "solc",
    "version": "0.4.24+commit.e67f0147.Emscripten.clang"
  },
  "schemaVersion": "2.0.0",
  "updatedAt": "2018-07-29T23:06:54.485Z"
}