{
  "contractName": "TeamJust",
  "abi": [
    {
      "inputs": [],
      "payable": false,
      "stateMutability": "nonpayable",
      "type": "constructor"
    },
    {
      "payable": true,
      "stateMutability": "payable",
      "type": "fallback"
    },
    {
      "constant": false,
      "inputs": [
        {
          "name": "_whatFunction",
          "type": "bytes32"
        }
      ],
      "name": "deleteAnyProposal",
      "outputs": [],
      "payable": false,
      "stateMutability": "nonpayable",
      "type": "function"
    },
    {
      "constant": true,
      "inputs": [
        {
          "name": "_whatFunction",
          "type": "bytes32"
        }
      ],
      "name": "checkData",
      "outputs": [
        {
          "name": "message_data",
          "type": "bytes32"
        },
        {
          "name": "signature_count",
          "type": "uint256"
        }
      ],
      "payable": false,
      "stateMutability": "view",
      "type": "function"
    },
    {
      "constant": true,
      "inputs": [
        {
          "name": "_whatFunction",
          "type": "bytes32"
        },
        {
          "name": "_signerA",
          "type": "uint256"
        },
        {
          "name": "_signerB",
          "type": "uint256"
        },
        {
          "name": "_signerC",
          "type": "uint256"
        }
      ],
      "name": "checkSignersByName",
      "outputs": [
        {
          "name": "",
          "type": "bytes32"
        },
        {
          "name": "",
          "type": "bytes32"
        },
        {
          "name": "",
          "type": "bytes32"
        }
      ],
      "payable": false,
      "stateMutability": "view",
      "type": "function"
    },
    {
      "constant": false,
      "inputs": [
        {
          "name": "_addr",
          "type": "address"
        }
      ],
      "name": "setup",
      "outputs": [],
      "payable": false,
      "stateMutability": "nonpayable",
      "type": "function"
    },
    {
      "constant": false,
      "inputs": [
        {
          "name": "_who",
          "type": "address"
        },
        {
          "name": "_name",
          "type": "bytes32"
        },
        {
          "name": "_isDev",
          "type": "bool"
        }
      ],
      "name": "addAdmin",
      "outputs": [],
      "payable": false,
      "stateMutability": "nonpayable",
      "type": "function"
    },
    {
      "constant": false,
      "inputs": [
        {
          "name": "_who",
          "type": "address"
        }
      ],
      "name": "removeAdmin",
      "outputs": [],
      "payable": false,
      "stateMutability": "nonpayable",
      "type": "function"
    },
    {
      "constant": false,
      "inputs": [
        {
          "name": "_howMany",
          "type": "uint256"
        }
      ],
      "name": "changeRequiredSignatures",
      "outputs": [],
      "payable": false,
      "stateMutability": "nonpayable",
      "type": "function"
    },
    {
      "constant": false,
      "inputs": [
        {
          "name": "_howMany",
          "type": "uint256"
        }
      ],
      "name": "changeRequiredDevSignatures",
      "outputs": [],
      "payable": false,
      "stateMutability": "nonpayable",
      "type": "function"
    },
    {
      "constant": true,
      "inputs": [],
      "name": "requiredSignatures",
      "outputs": [
        {
          "name": "",
          "type": "uint256"
        }
      ],
      "payable": false,
      "stateMutability": "view",
      "type": "function"
    },
    {
      "constant": true,
      "inputs": [],
      "name": "requiredDevSignatures",
      "outputs": [
        {
          "name": "",
          "type": "uint256"
        }
      ],
      "payable": false,
      "stateMutability": "view",
      "type": "function"
    },
    {
      "constant": true,
      "inputs": [],
      "name": "adminCount",
      "outputs": [
        {
          "name": "",
          "type": "uint256"
        }
      ],
      "payable": false,
      "stateMutability": "view",
      "type": "function"
    },
    {
      "constant": true,
      "inputs": [],
      "name": "devCount",
      "outputs": [
        {
          "name": "",
          "type": "uint256"
        }
      ],
      "payable": false,
      "stateMutability": "view",
      "type": "function"
    },
    {
      "constant": true,
      "inputs": [
        {
          "name": "_who",
          "type": "address"
        }
      ],
      "name": "adminName",
      "outputs": [
        {
          "name": "",
          "type": "bytes32"
        }
      ],
      "payable": false,
      "stateMutability": "view",
      "type": "function"
    },
    {
      "constant": true,
      "inputs": [
        {
          "name": "_who",
          "type": "address"
        }
      ],
      "name": "isAdmin",
      "outputs": [
        {
          "name": "",
          "type": "bool"
        }
      ],
      "payable": false,
      "stateMutability": "view",
      "type": "function"
    },
    {
      "constant": true,
      "inputs": [
        {
          "name": "_who",
          "type": "address"
        }
      ],
      "name": "isDev",
      "outputs": [
        {
          "name": "",
          "type": "bool"
        }
      ],
      "payable": false,
      "stateMutability": "view",
      "type": "function"
    }
  ],
  "bytecode": "0x608060405260008060006101000a81548173ffffffffffffffffffffffffffffffffffffffff021916908373ffffffffffffffffffffffffffffffffffffffff16021790555034801561005157600080fd5b5060008060008060007318e90fc6f70344f53ebd4f6070bf6aa23e2d748c9450738b4da1827932d71759687f925d17f81fc94e3a9d9350738e0d985f3ec1857bec39b76aaabdea6b31b67d539250737ac74fcc1a71b106f12c55ee8f802c9f672ce40c915073f39e044e1ab204460e06e87c6dca2c6319fc69e390506060604051908101604052806001151581526020016001151581526020017f696e76656e746f7200000000000000000000000000000000000000000000000060001916815250600260008773ffffffffffffffffffffffffffffffffffffffff1673ffffffffffffffffffffffffffffffffffffffff16815260200190815260200160002060008201518160000160006101000a81548160ff02191690831515021790555060208201518160000160016101000a81548160ff021916908315150217905550604082015181600101906000191690559050506060604051908101604052806001151581526020016001151581526020017f6d616e74736f000000000000000000000000000000000000000000000000000060001916815250600260008673ffffffffffffffffffffffffffffffffffffffff1673ffffffffffffffffffffffffffffffffffffffff16815260200190815260200160002060008201518160000160006101000a81548160ff02191690831515021790555060208201518160000160016101000a81548160ff021916908315150217905550604082015181600101906000191690559050506060604051908101604052806001151581526020016001151581526020017f6a7573746f00000000000000000000000000000000000000000000000000000060001916815250600260008573ffffffffffffffffffffffffffffffffffffffff1673ffffffffffffffffffffffffffffffffffffffff16815260200190815260200160002060008201518160000160006101000a81548160ff02191690831515021790555060208201518160000160016101000a81548160ff021916908315150217905550604082015181600101906000191690559050506060604051908101604052806001151581526020016001151581526020017f73756d70756e6b0000000000000000000000000000000000000000000000000060001916815250600260008473ffffffffffffffffffffffffffffffffffffffff1673ffffffffffffffffffffffffffffffffffffffff16815260200190815260200160002060008201518160000160006101000a81548160ff02191690831515021790555060208201518160000160016101000a81548160ff021916908315150217905550604082015181600101906000191690559050506060604051908101604052806001151581526020016001151581526020017f6465706c6f79657200000000000000000000000000000000000000000000000060001916815250600260008373ffffffffffffffffffffffffffffffffffffffff1673ffffffffffffffffffffffffffffffffffffffff16815260200190815260200160002060008201518160000160006101000a81548160ff02191690831515021790555060208201518160000160016101000a81548160ff02191690831515021790555060408201518160010190600019169055905050600560038190555060056004819055506001600581905550600160068190555050505050506123dc806105396000396000f3006080604052600436106100db576000357c0100000000000000000000000000000000000000000000000000000000900463ffffffff1680630c3f64bf146101b65780630efcf295146102115780631785f53c1461024257806324d7806c146102855780632b7832b3146102e05780632c2966561461030b578063372cd1831461033857806339f636ab1461039557806366d38203146103c25780638d06804314610405578063a553506e14610430578063af1c084d14610484578063cebc141a146104e3578063ed3643d61461050e578063fcf2f85f14610597575b6000809054906101000a900473ffffffffffffffffffffffffffffffffffffffff1673ffffffffffffffffffffffffffffffffffffffff1663d0e30db03073ffffffffffffffffffffffffffffffffffffffff16316040518263ffffffff167c01000000000000000000000000000000000000000000000000000000000281526004016020604051808303818588803b15801561017757600080fd5b505af115801561018b573d6000803e3d6000fd5b50505050506040513d60208110156101a257600080fd5b810190808051906020019092919050505050005b3480156101c257600080fd5b506101f7600480360381019080803573ffffffffffffffffffffffffffffffffffffffff1690602001909291905050506105c2565b604051808215151515815260200191505060405180910390f35b34801561021d57600080fd5b50610240600480360381019080803560001916906020019092919050505061061b565b005b34801561024e57600080fd5b50610283600480360381019080803573ffffffffffffffffffffffffffffffffffffffff16906020019092919050505061071a565b005b34801561029157600080fd5b506102c6600480360381019080803573ffffffffffffffffffffffffffffffffffffffff169060200190929190505050610d6d565b604051808215151515815260200191505060405180910390f35b3480156102ec57600080fd5b506102f5610dc6565b6040518082815260200191505060405180910390f35b34801561031757600080fd5b5061033660048036038101908080359060200190929190505050610dd0565b005b34801561034457600080fd5b50610393600480360381019080803573ffffffffffffffffffffffffffffffffffffffff1690602001909291908035600019169060200190929190803515159060200190929190505050611003565b005b3480156103a157600080fd5b506103c06004803603810190808035906020019092919050505061130e565b005b3480156103ce57600080fd5b50610403600480360381019080803573ffffffffffffffffffffffffffffffffffffffff169060200190929190505050611541565b005b34801561041157600080fd5b5061041a6116d1565b6040518082815260200191505060405180910390f35b34801561043c57600080fd5b5061045f60048036038101908080356000191690602001909291905050506116db565b6040518083600019166000191681526020018281526020019250505060405180910390f35b34801561049057600080fd5b506104c5600480360381019080803573ffffffffffffffffffffffffffffffffffffffff1690602001909291905050506117ee565b60405180826000191660001916815260200191505060405180910390f35b3480156104ef57600080fd5b506104f861183a565b6040518082815260200191505060405180910390f35b34801561051a57600080fd5b5061055b6004803603810190808035600019169060200190929190803590602001909291908035906020019092919080359060200190929190505050611844565b60405180846000191660001916815260200183600019166000191681526020018260001916600019168152602001935050505060405180910390f35b3480156105a357600080fd5b506105ac611bed565b6040518082815260200191505060405180910390f35b6000600260008373ffffffffffffffffffffffffffffffffffffffff1673ffffffffffffffffffffffffffffffffffffffff16815260200190815260200160002060000160019054906101000a900460ff169050919050565b60011515600260003373ffffffffffffffffffffffffffffffffffffffff1673ffffffffffffffffffffffffffffffffffffffff16815260200190815260200160002060000160019054906101000a900460ff16151514151561070c576040517f08c379a00000000000000000000000000000000000000000000000000000000081526004018080602001828103825260298152602001807f6f6e6c7944657673206661696c6564202d206d73672e73656e6465722069732081526020017f6e6f74206120646576000000000000000000000000000000000000000000000081525060400191505060405180910390fd5b610717600182611bf7565b50565b60011515600260003373ffffffffffffffffffffffffffffffffffffffff1673ffffffffffffffffffffffffffffffffffffffff16815260200190815260200160002060000160019054906101000a900460ff16151514151561080b576040517f08c379a00000000000000000000000000000000000000000000000000000000081526004018080602001828103825260298152602001807f6f6e6c7944657673206661696c6564202d206d73672e73656e6465722069732081526020017f6e6f74206120646576000000000000000000000000000000000000000000000081525060400191505060405180910390fd5b60016003541115156108ab576040517f08c379a00000000000000000000000000000000000000000000000000000000081526004018080602001828103825260338152602001807f72656d6f766541646d696e206661696c6564202d2063616e6e6f74206861766581526020017f206c657373207468616e20322061646d696e730000000000000000000000000081525060400191505060405180910390fd5b60055460035410151515610973576040517f08c379a000000000000000000000000000000000000000000000000000000000815260040180806020018281038252604f8152602001807f72656d6f766541646d696e206661696c6564202d2063616e6e6f74206861766581526020017f206c6573732061646d696e73207468616e206e756d626572206f66207265717581526020017f69726564207369676e617475726573000000000000000000000000000000000081525060600191505060405180910390fd5b60011515600260008373ffffffffffffffffffffffffffffffffffffffff1673ffffffffffffffffffffffffffffffffffffffff16815260200190815260200160002060000160019054906101000a900460ff1615151415610b38576001600454111515610a6f576040517f08c379a00000000000000000000000000000000000000000000000000000000081526004018080602001828103825260318152602001807f72656d6f766541646d696e206661696c6564202d2063616e6e6f74206861766581526020017f206c657373207468616e2032206465767300000000000000000000000000000081525060400191505060405180910390fd5b60065460045410151515610b37576040517f08c379a00000000000000000000000000000000000000000000000000000000081526004018080602001828103825260518152602001807f72656d6f766541646d696e206661696c6564202d2063616e6e6f74206861766581526020017f206c6573732064657673207468616e206e756d626572206f662072657175697281526020017f656420646576207369676e61747572657300000000000000000000000000000081525060600191505060405180910390fd5b5b60011515610b6a60016006547f72656d6f766541646d696e000000000000000000000000000000000000000000611d8d565b15151415610d6a57610b9d60017f72656d6f766541646d696e000000000000000000000000000000000000000000611bf7565b60011515600260008373ffffffffffffffffffffffffffffffffffffffff1673ffffffffffffffffffffffffffffffffffffffff16815260200190815260200160002060000160009054906101000a900460ff1615151415610c83576000600260008373ffffffffffffffffffffffffffffffffffffffff1673ffffffffffffffffffffffffffffffffffffffff16815260200190815260200160002060000160006101000a81548160ff021916908315150217905550600160036000828254039250508190555060016005541115610c825760016005600082825403925050819055505b5b60011515600260008373ffffffffffffffffffffffffffffffffffffffff1673ffffffffffffffffffffffffffffffffffffffff16815260200190815260200160002060000160019054906101000a900460ff1615151415610d69576000600260008373ffffffffffffffffffffffffffffffffffffffff1673ffffffffffffffffffffffffffffffffffffffff16815260200190815260200160002060000160016101000a81548160ff021916908315150217905550600160046000828254039250508190555060016006541115610d685760016006600082825403925050819055505b5b5b50565b6000600260008373ffffffffffffffffffffffffffffffffffffffff1673ffffffffffffffffffffffffffffffffffffffff16815260200190815260200160002060000160009054906101000a900460ff169050919050565b6000600354905090565b60011515600260003373ffffffffffffffffffffffffffffffffffffffff1673ffffffffffffffffffffffffffffffffffffffff16815260200190815260200160002060000160019054906101000a900460ff161515141515610ec1576040517f08c379a00000000000000000000000000000000000000000000000000000000081526004018080602001828103825260298152602001807f6f6e6c7944657673206661696c6564202d206d73672e73656e6465722069732081526020017f6e6f74206120646576000000000000000000000000000000000000000000000081525060400191505060405180910390fd5b600081118015610ed357506004548111155b1515610f93576040517f08c379a00000000000000000000000000000000000000000000000000000000081526004018080602001828103825260498152602001807f6368616e676552657175697265644465765369676e617475726573206661696c81526020017f6564202d206d757374206265206265747765656e203120616e64206e756d626581526020017f72206f662064657673000000000000000000000000000000000000000000000081525060600191505060405180910390fd5b60011515610fc560016006547f6368616e676552657175697265644465765369676e6174757265730000000000611d8d565b1515141561100057610ff860017f6368616e676552657175697265644465765369676e6174757265730000000000611bf7565b806006819055505b50565b60011515600260003373ffffffffffffffffffffffffffffffffffffffff1673ffffffffffffffffffffffffffffffffffffffff16815260200190815260200160002060000160019054906101000a900460ff1615151415156110f4576040517f08c379a00000000000000000000000000000000000000000000000000000000081526004018080602001828103825260298152602001807f6f6e6c7944657673206661696c6564202d206d73672e73656e6465722069732081526020017f6e6f74206120646576000000000000000000000000000000000000000000000081525060400191505060405180910390fd5b6001151561112660016006547f61646441646d696e000000000000000000000000000000000000000000000000611d8d565b151514156112be5761115960017f61646441646d696e000000000000000000000000000000000000000000000000611bf7565b60001515600260008573ffffffffffffffffffffffffffffffffffffffff1673ffffffffffffffffffffffffffffffffffffffff16815260200190815260200160002060000160009054906101000a900460ff1615151415611233576001600260008573ffffffffffffffffffffffffffffffffffffffff1673ffffffffffffffffffffffffffffffffffffffff16815260200190815260200160002060000160006101000a81548160ff021916908315150217905550600160036000828254019250508190555060016005600082825401925050819055505b6001151581151514156112bd5780600260008573ffffffffffffffffffffffffffffffffffffffff1673ffffffffffffffffffffffffffffffffffffffff16815260200190815260200160002060000160016101000a81548160ff021916908315150217905550600160046000828254019250508190555060016006600082825401925050819055505b5b81600260008573ffffffffffffffffffffffffffffffffffffffff1673ffffffffffffffffffffffffffffffffffffffff1681526020019081526020016000206001018160001916905550505050565b60011515600260003373ffffffffffffffffffffffffffffffffffffffff1673ffffffffffffffffffffffffffffffffffffffff16815260200190815260200160002060000160019054906101000a900460ff1615151415156113ff576040517f08c379a00000000000000000000000000000000000000000000000000000000081526004018080602001828103825260298152602001807f6f6e6c7944657673206661696c6564202d206d73672e73656e6465722069732081526020017f6e6f74206120646576000000000000000000000000000000000000000000000081525060400191505060405180910390fd5b60008111801561141157506003548111155b15156114d1576040517f08c379a00000000000000000000000000000000000000000000000000000000081526004018080602001828103825260488152602001807f6368616e676552657175697265645369676e617475726573206661696c65642081526020017f2d206d757374206265206265747765656e203120616e64206e756d626572206f81526020017f662061646d696e7300000000000000000000000000000000000000000000000081525060600191505060405180910390fd5b6001151561150360016006547f6368616e676552657175697265645369676e6174757265730000000000000000611d8d565b1515141561153e5761153660017f6368616e676552657175697265645369676e6174757265730000000000000000611bf7565b806005819055505b50565b60011515600260003373ffffffffffffffffffffffffffffffffffffffff1673ffffffffffffffffffffffffffffffffffffffff16815260200190815260200160002060000160019054906101000a900460ff161515141515611632576040517f08c379a00000000000000000000000000000000000000000000000000000000081526004018080602001828103825260298152602001807f6f6e6c7944657673206661696c6564202d206d73672e73656e6465722069732081526020017f6e6f74206120646576000000000000000000000000000000000000000000000081525060400191505060405180910390fd5b600073ffffffffffffffffffffffffffffffffffffffff166000809054906101000a900473ffffffffffffffffffffffffffffffffffffffff1673ffffffffffffffffffffffffffffffffffffffff1614151561168e57600080fd5b806000806101000a81548173ffffffffffffffffffffffffffffffffffffffff021916908373ffffffffffffffffffffffffffffffffffffffff16021790555050565b6000600554905090565b60008060011515600260003373ffffffffffffffffffffffffffffffffffffffff1673ffffffffffffffffffffffffffffffffffffffff16815260200190815260200160002060000160009054906101000a900460ff1615151415156117cf576040517f08c379a000000000000000000000000000000000000000000000000000000000815260040180806020018281038252602e8152602001807f6f6e6c7941646d696e73206661696c6564202d206d73672e73656e646572206981526020017f73206e6f7420616e2061646d696e00000000000000000000000000000000000081525060400191505060405180910390fd5b6117da60018461215f565b6117e5600185612197565b91509150915091565b6000600260008373ffffffffffffffffffffffffffffffffffffffff1673ffffffffffffffffffffffffffffffffffffffff168152602001908152602001600020600101549050919050565b6000600454905090565b600080600060011515600260003373ffffffffffffffffffffffffffffffffffffffff1673ffffffffffffffffffffffffffffffffffffffff16815260200190815260200160002060000160009054906101000a900460ff16151514151561193a576040517f08c379a000000000000000000000000000000000000000000000000000000000815260040180806020018281038252602e8152602001807f6f6e6c7941646d696e73206661696c6564202d206d73672e73656e646572206981526020017f73206e6f7420616e2061646d696e00000000000000000000000000000000000081525060400191505060405180910390fd5b3073ffffffffffffffffffffffffffffffffffffffff1663af1c084d61196260018a8a6121cf565b6040518263ffffffff167c0100000000000000000000000000000000000000000000000000000000028152600401808273ffffffffffffffffffffffffffffffffffffffff1673ffffffffffffffffffffffffffffffffffffffff168152602001915050602060405180830381600087803b1580156119e057600080fd5b505af11580156119f4573d6000803e3d6000fd5b505050506040513d6020811015611a0a57600080fd5b81019080805190602001909291905050503073ffffffffffffffffffffffffffffffffffffffff1663af1c084d611a4360018b8a6121cf565b6040518263ffffffff167c0100000000000000000000000000000000000000000000000000000000028152600401808273ffffffffffffffffffffffffffffffffffffffff1673ffffffffffffffffffffffffffffffffffffffff168152602001915050602060405180830381600087803b158015611ac157600080fd5b505af1158015611ad5573d6000803e3d6000fd5b505050506040513d6020811015611aeb57600080fd5b81019080805190602001909291905050503073ffffffffffffffffffffffffffffffffffffffff1663af1c084d611b2460018c8a6121cf565b6040518263ffffffff167c0100000000000000000000000000000000000000000000000000000000028152600401808273ffffffffffffffffffffffffffffffffffffffff1673ffffffffffffffffffffffffffffffffffffffff168152602001915050602060405180830381600087803b158015611ba257600080fd5b505af1158015611bb6573d6000803e3d6000fd5b505050506040513d6020811015611bcc57600080fd5b81019080805190602001909291905050509250925092509450945094915050565b6000600654905090565b6000806000611c05846122da565b9250600090505b846000016000846000191660001916815260200190815260200160002060010154811015611d56578460000160008460001916600019168152602001908152602001600020600301600082815260200190815260200160002060009054906101000a900473ffffffffffffffffffffffffffffffffffffffff169150846000016000846000191660001916815260200190815260200160002060020160008373ffffffffffffffffffffffffffffffffffffffff1673ffffffffffffffffffffffffffffffffffffffff16815260200190815260200160002060006101000a81549060ff02191690558460000160008460001916600019168152602001908152602001600020600301600082815260200190815260200160002060006101000a81549073ffffffffffffffffffffffffffffffffffffffff02191690558080600101915050611c0c565b8460000160008460001916600019168152602001908152602001600020600080820160009055600182016000905550505050505050565b6000806000806000611d9e866122da565b9350876000016000856000191660001916815260200190815260200160002060010154925033915060003660405180838380828437820191505092505050604051809103902090506000831415611f635780886000016000866000191660001916815260200190815260200160002060000181600019169055506001886000016000866000191660001916815260200190815260200160002060020160008473ffffffffffffffffffffffffffffffffffffffff1673ffffffffffffffffffffffffffffffffffffffff16815260200190815260200160002060006101000a81548160ff021916908315150217905550818860000160008660001916600019168152602001908152602001600020600301600085815260200190815260200160002060006101000a81548173ffffffffffffffffffffffffffffffffffffffff021916908373ffffffffffffffffffffffffffffffffffffffff1602179055506001886000016000866000191660001916815260200190815260200160002060010160008282540192505081905550868860000160008660001916600019168152602001908152602001600020600101541415611f5e5760019450612154565b612153565b80600019168860000160008660001916600019168152602001908152602001600020600001546000191614156121525760001515886000016000866000191660001916815260200190815260200160002060020160008473ffffffffffffffffffffffffffffffffffffffff1673ffffffffffffffffffffffffffffffffffffffff16815260200190815260200160002060009054906101000a900460ff1615151415612120576001886000016000866000191660001916815260200190815260200160002060020160008473ffffffffffffffffffffffffffffffffffffffff1673ffffffffffffffffffffffffffffffffffffffff16815260200190815260200160002060006101000a81548160ff021916908315150217905550818860000160008660001916600019168152602001908152602001600020600301600085815260200190815260200160002060006101000a81548173ffffffffffffffffffffffffffffffffffffffff021916908373ffffffffffffffffffffffffffffffffffffffff16021790555060018860000160008660001916600019168152602001908152602001600020600101600082825401925050819055505b8688600001600086600019166000191681526020019081526020016000206001015414156121515760019450612154565b5b5b5b505050509392505050565b60008061216b836122da565b905083600001600082600019166000191681526020019081526020016000206000015491505092915050565b6000806121a3836122da565b905083600001600082600019166000191681526020019081526020016000206001015491505092915050565b600080600083111515612270576040517f08c379a00000000000000000000000000000000000000000000000000000000081526004018080602001828103825260288152602001807f4d5346756e20636865636b5369676e6572206661696c6564202d2030206e6f7481526020017f20616c6c6f77656400000000000000000000000000000000000000000000000081525060400191505060405180910390fd5b612279846122da565b90508460000160008260001916600019168152602001908152602001600020600301600060018503815260200190815260200160002060009054906101000a900473ffffffffffffffffffffffffffffffffffffffff169150509392505050565b600081306040516020018083600019166000191681526020018273ffffffffffffffffffffffffffffffffffffffff1673ffffffffffffffffffffffffffffffffffffffff166c01000000000000000000000000028152601401925050506040516020818303038152906040526040518082805190602001908083835b60208310151561237c5780518252602082019150602081019050602083039250612357565b6001836020036101000a038019825116818451168082178552505050505050905001915050604051809103902090509190505600a165627a7a7230582098db3f488b168ad689ba4b08c9c343e063296b966f64c38e47eab5a6fbc9b47b0029",
  "source": "pragma solidity ^0.4.24;\n/* -Team Just- v0.2.5\n *       \n *                \n *               \n *                                  _____                      _____\n *                                 (, /     /)       /) /)    (, /      /)          /)\n *                                /   _ (/_      // //       /  _   // _   __  _(/\n *                            ___/___(/_/(__(_/_(/_(/_   ___/__/_)_(/_(_(_/ (_(_(_\n *                           /   /          .-/ _____   (__ /                               \n *                            (__ /          (_/ (, /                                      /) \n *                                                 /  __  __ __ __  _   __ __  _  _/_ _  _(/\n *                            /__/ (_(__(_)/ (_/_)_(_)/ (_(_(_(__(/_(_(_\n *                             (__ /              .-/   Jekyll Island Inc. 2018\n *                                            (_/\n *              JJJJJJJJJJUUUUUUUU     UUUUUUUU  SSSSSSSSSSSSSSSTTTTTTTTTTTTTTTTTTTTTTT\n *==============J:::::::::U::::::U=====U::::::USS:::::::::::::::T:::::::::::::::::::::T======*\n *              J:::::::::U::::::U     U::::::S:::::SSSSSS::::::T:::::::::::::::::::::T\n *              JJ:::::::JUU:::::U     U:::::US:::::S     SSSSSST:::::TT:::::::TT:::::T\n *                J:::::J  U:::::U     U:::::US:::::S           TTTTTT  T:::::T  TTTTTT\n *                J::_________ : ________::::US::_::S     ____    ____  T:::::T\n *                J:|  _   _  |:|_   __  |:::U S/ \\:SSSS |_   \\  /   _| T:::::T\n *                J:|_/:| |U\\_|::D| |_ \\_|:::U / _ \\::::SSS|   \\/   |   T:::::T\n *                J:::::| |U:::::D|  _| _::::U/ ___ \\::::::| |\\  /| |   T:::::T\n *    JJJJJJJ     J::::_| |_:::::_| |__/ |::_/ /   \\ \\_SS _| |_\\/_| |_  T:::::T\n *    J:::::J     J:::|_____|:::|________|:|____| |____| |_____||_____| T:::::T\n *    J::::::J   J::::::J  U::::::U   U::::::U            S:::::S       T:::::T\n *    J:::::::JJJ:::::::J  U:::::::UUU:::::::USSSSSSS     S:::::S     TT:::::::TT\n *     JJ:::::::::::::JJ    UU:::::::::::::UU S::::::SSSSSS:::::S     T:::::::::T\n *=======JJ:::::::::JJ========UU:::::::::UU===S:::::::::::::::SS======T:::::::::T============*\n *         JJJJJJJJJ            UUUUUUUUU      SSSSSSSSSSSSSSS        TTTTTTTTTTT\n * \n *    \n *                   Inventor \n *         \n *\n *         \n *          Que up intensely spectacular intro music...  In walks, Team Just.    \n *                                  Everyone goes crazy.                         \n *          This is a companion to MSFun.  It's a central database of Devs and   \n *          Admin's that we can import to any dapp to allow them management      \n *          permissions.                                                         \n *         \n *                                \n *                                 Setup Instructions \n *                                \n * (Step 1) import this contracts interface into your contract\n * \n *    import \"./TeamJustInterface.sol\";\n *\n * (Step 2) set up the interface to point to the TeamJust contract\n * \n *    TeamJustInterface constant TeamJust = TeamJustInterface(0x464904238b5CdBdCE12722A7E6014EC1C0B66928);\n *\n *    modifier onlyAdmins() {require(TeamJust.isAdmin(msg.sender) == true, \"onlyAdmins failed - msg.sender is not an admin\"); _;}\n *    modifier onlyDevs() {require(TeamJust.isDev(msg.sender) == true, \"onlyDevs failed - msg.sender is not a dev\"); _;}\n *                                \n *                                 Usage Instructions \n *                                \n * use onlyAdmins() and onlyDevs() modifiers as you normally would on any function\n * you wish to restrict to admins/devs registered with this contract.\n * \n * to get required signatures for admins or devs\n *       uint256 x = TeamJust.requiredSignatures();\n *       uint256 x = TeamJust.requiredDevSignatures();\n * \n * to get admin count or dev count \n *       uint256 x = TeamJust.adminCount();\n *       uint256 x = TeamJust.devCount();\n * \n * to get the name of an admin (in bytes32 format)\n *       bytes32 x = TeamJust.adminName(address);\n */\n\n\nimport \"./library/SafeMath.sol\";\nimport \"./library/NameFilter.sol\";\nimport \"./library/MSFun.sol\";\n\nimport \"./interface/TeamJustInterface.sol\";\nimport \"./interface/JIincForwarderInterface.sol\";\nimport \"./interface/PlayerBookReceiverInterface.sol\";\n\n\ncontract TeamJust {\n    JIincForwarderInterface private Jekyll_Island_Inc = JIincForwarderInterface(0x0);\n    //^^^^^^^^^^^^^^^^^^^^^^^^^^^^^^^^^^^^^^^^^^^^^^^^^^^^^^^^^^^^^^^^^\n    // SET UP MSFun (note, check signers by name is modified from MSFun sdk)\n    //^^^^^^^^^^^^^^^^^^^^^^^^^^^^^^^^^^^^^^^^^^^^^^^^^^^^^^^^^^^^^^^^^\n    MSFun.Data private msData;\n    function deleteAnyProposal(bytes32 _whatFunction) onlyDevs() public {MSFun.deleteProposal(msData, _whatFunction);}\n    function checkData(bytes32 _whatFunction) onlyAdmins() public view returns(bytes32 message_data, uint256 signature_count) {return(MSFun.checkMsgData(msData, _whatFunction), MSFun.checkCount(msData, _whatFunction));}\n    function checkSignersByName(bytes32 _whatFunction, uint256 _signerA, uint256 _signerB, uint256 _signerC) onlyAdmins() public view returns(bytes32, bytes32, bytes32) {return(this.adminName(MSFun.checkSigner(msData, _whatFunction, _signerA)), this.adminName(MSFun.checkSigner(msData, _whatFunction, _signerB)), this.adminName(MSFun.checkSigner(msData, _whatFunction, _signerC)));}\n\n    //^^^^^^^^^^^^^^^^^^^^^^^^^^^^^^^^^^^^^^^^^^^^^^^^^^^^^^^^^^^^^^^^^\n    // DATA SETUP\n    //^^^^^^^^^^^^^^^^^^^^^^^^^^^^^^^^^^^^^^^^^^^^^^^^^^^^^^^^^^^^^^^^^\n    struct Admin {\n        bool isAdmin;\n        bool isDev;\n        bytes32 name;\n    }\n    mapping (address => Admin) admins_;\n    \n    uint256 adminCount_;\n    uint256 devCount_;\n    uint256 requiredSignatures_;\n    uint256 requiredDevSignatures_;\n    \n    //^^^^^^^^^^^^^^^^^^^^^^^^^^^^^^^^^^^^^^^^^^^^^^^^^^^^^^^^^^^^^^^^^\n    // CONSTRUCTOR\n    //^^^^^^^^^^^^^^^^^^^^^^^^^^^^^^^^^^^^^^^^^^^^^^^^^^^^^^^^^^^^^^^^^\n    constructor()\n        public\n    {\n        address inventor = 0x18E90Fc6F70344f53EBd4f6070bf6Aa23e2D748C;\n        address mantso   = 0x8b4DA1827932D71759687f925D17F81Fc94e3A9D;\n        address justo    = 0x8e0d985f3Ec1857BEc39B76aAabDEa6B31B67d53;\n        address sumpunk  = 0x7ac74Fcc1a71b106F12c55ee8F802C9F672Ce40C;\n\t\taddress deployer = 0xF39e044e1AB204460e06E87c6dca2c6319fC69E3;\n        \n        admins_[inventor] = Admin(true, true, \"inventor\");\n        admins_[mantso]   = Admin(true, true, \"mantso\");\n        admins_[justo]    = Admin(true, true, \"justo\");\n        admins_[sumpunk]  = Admin(true, true, \"sumpunk\");\n\t\tadmins_[deployer] = Admin(true, true, \"deployer\");\n        \n        adminCount_ = 5;\n        devCount_ = 5;\n        requiredSignatures_ = 1;\n        requiredDevSignatures_ = 1;\n    }\n    //^^^^^^^^^^^^^^^^^^^^^^^^^^^^^^^^^^^^^^^^^^^^^^^^^^^^^^^^^^^^^^^^^\n    // FALLBACK, SETUP, AND FORWARD\n    //^^^^^^^^^^^^^^^^^^^^^^^^^^^^^^^^^^^^^^^^^^^^^^^^^^^^^^^^^^^^^^^^^\n    // there should never be a balance in this contract.  but if someone\n    // does stupidly send eth here for some reason.  we can forward it \n    // to jekyll island\n    function ()\n        public\n        payable\n    {\n        Jekyll_Island_Inc.deposit.value(address(this).balance)();\n    }\n    \n    function setup(address _addr)\n        onlyDevs()\n        public\n    {\n        require( address(Jekyll_Island_Inc) == address(0) );\n        Jekyll_Island_Inc = JIincForwarderInterface(_addr);\n    }    \n    \n    //^^^^^^^^^^^^^^^^^^^^^^^^^^^^^^^^^^^^^^^^^^^^^^^^^^^^^^^^^^^^^^^^^\n    // MODIFIERS\n    //^^^^^^^^^^^^^^^^^^^^^^^^^^^^^^^^^^^^^^^^^^^^^^^^^^^^^^^^^^^^^^^^^\n    modifier onlyDevs()\n    {\n        require(admins_[msg.sender].isDev == true, \"onlyDevs failed - msg.sender is not a dev\");\n        _;\n    }\n    \n    modifier onlyAdmins()\n    {\n        require(admins_[msg.sender].isAdmin == true, \"onlyAdmins failed - msg.sender is not an admin\");\n        _;\n    }\n\n    //^^^^^^^^^^^^^^^^^^^^^^^^^^^^^^^^^^^^^^^^^^^^^^^^^^^^^^^^^^^^^^^^^\n    // DEV ONLY FUNCTIONS\n    //^^^^^^^^^^^^^^^^^^^^^^^^^^^^^^^^^^^^^^^^^^^^^^^^^^^^^^^^^^^^^^^^^\n    /**\n    * @dev DEV - use this to add admins.  this is a dev only function.\n    * @param _who - address of the admin you wish to add\n    * @param _name - admins name\n    * @param _isDev - is this admin also a dev?\n    */\n    function addAdmin(address _who, bytes32 _name, bool _isDev)\n        public\n        onlyDevs()\n    {\n        if (MSFun.multiSig(msData, requiredDevSignatures_, \"addAdmin\") == true) \n        {\n            MSFun.deleteProposal(msData, \"addAdmin\");\n            \n            // must check this so we dont mess up admin count by adding someone\n            // who is already an admin\n            if (admins_[_who].isAdmin == false) \n            { \n                \n                // set admins flag to true in admin mapping\n                admins_[_who].isAdmin = true;\n        \n                // adjust admin count and required signatures\n                adminCount_ += 1;\n                requiredSignatures_ += 1;\n            }\n            \n            // are we setting them as a dev?\n            // by putting this outside the above if statement, we can upgrade existing\n            // admins to devs.\n            if (_isDev == true) \n            {\n                // bestow the honored dev status\n                admins_[_who].isDev = _isDev;\n                \n                // increase dev count and required dev signatures\n                devCount_ += 1;\n                requiredDevSignatures_ += 1;\n            }\n        }\n        \n        // by putting this outside the above multisig, we can allow easy name changes\n        // without having to bother with multisig.  this will still create a proposal though\n        // so use the deleteAnyProposal to delete it if you want to\n        admins_[_who].name = _name;\n    }\n\n    /**\n    * @dev DEV - use this to remove admins. this is a dev only function.\n    * -requirements: never less than 1 admin\n    *                never less than 1 dev\n    *                never less admins than required signatures\n    *                never less devs than required dev signatures\n    * @param _who - address of the admin you wish to remove\n    */\n    function removeAdmin(address _who)\n        public\n        onlyDevs()\n    {\n        // we can put our requires outside the multisig, this will prevent\n        // creating a proposal that would never pass checks anyway.\n        require(adminCount_ > 1, \"removeAdmin failed - cannot have less than 2 admins\");\n        require(adminCount_ >= requiredSignatures_, \"removeAdmin failed - cannot have less admins than number of required signatures\");\n        if (admins_[_who].isDev == true)\n        {\n            require(devCount_ > 1, \"removeAdmin failed - cannot have less than 2 devs\");\n            require(devCount_ >= requiredDevSignatures_, \"removeAdmin failed - cannot have less devs than number of required dev signatures\");\n        }\n        \n        // checks passed\n        if (MSFun.multiSig(msData, requiredDevSignatures_, \"removeAdmin\") == true) \n        {\n            MSFun.deleteProposal(msData, \"removeAdmin\");\n            \n            // must check this so we dont mess up admin count by removing someone\n            // who wasnt an admin to start with\n            if (admins_[_who].isAdmin == true) {  \n                \n                //set admins flag to false in admin mapping\n                admins_[_who].isAdmin = false;\n                \n                //adjust admin count and required signatures\n                adminCount_ -= 1;\n                if (requiredSignatures_ > 1) \n                {\n                    requiredSignatures_ -= 1;\n                }\n            }\n            \n            // were they also a dev?\n            if (admins_[_who].isDev == true) {\n                \n                //set dev flag to false\n                admins_[_who].isDev = false;\n                \n                //adjust dev count and required dev signatures\n                devCount_ -= 1;\n                if (requiredDevSignatures_ > 1) \n                {\n                    requiredDevSignatures_ -= 1;\n                }\n            }\n        }\n    }\n\n    /**\n    * @dev DEV - change the number of required signatures.  must be between\n    * 1 and the number of admins.  this is a dev only function\n    * @param _howMany - desired number of required signatures\n    */\n    function changeRequiredSignatures(uint256 _howMany)\n        public\n        onlyDevs()\n    {  \n        // make sure its between 1 and number of admins\n        require(_howMany > 0 && _howMany <= adminCount_, \"changeRequiredSignatures failed - must be between 1 and number of admins\");\n        \n        if (MSFun.multiSig(msData, requiredDevSignatures_, \"changeRequiredSignatures\") == true) \n        {\n            MSFun.deleteProposal(msData, \"changeRequiredSignatures\");\n            \n            // store new setting.\n            requiredSignatures_ = _howMany;\n        }\n    }\n    \n    /**\n    * @dev DEV - change the number of required dev signatures.  must be between\n    * 1 and the number of devs.  this is a dev only function\n    * @param _howMany - desired number of required dev signatures\n    */\n    function changeRequiredDevSignatures(uint256 _howMany)\n        public\n        onlyDevs()\n    {  \n        // make sure its between 1 and number of admins\n        require(_howMany > 0 && _howMany <= devCount_, \"changeRequiredDevSignatures failed - must be between 1 and number of devs\");\n        \n        if (MSFun.multiSig(msData, requiredDevSignatures_, \"changeRequiredDevSignatures\") == true) \n        {\n            MSFun.deleteProposal(msData, \"changeRequiredDevSignatures\");\n            \n            // store new setting.\n            requiredDevSignatures_ = _howMany;\n        }\n    }\n\n    //^^^^^^^^^^^^^^^^^^^^^^^^^^^^^^^^^^^^^^^^^^^^^^^^^^^^^^^^^^^^^^^^^\n    // EXTERNAL FUNCTIONS \n    //^^^^^^^^^^^^^^^^^^^^^^^^^^^^^^^^^^^^^^^^^^^^^^^^^^^^^^^^^^^^^^^^^\n    function requiredSignatures() external view returns(uint256) {return(requiredSignatures_);}\n    function requiredDevSignatures() external view returns(uint256) {return(requiredDevSignatures_);}\n    function adminCount() external view returns(uint256) {return(adminCount_);}\n    function devCount() external view returns(uint256) {return(devCount_);}\n    function adminName(address _who) external view returns(bytes32) {return(admins_[_who].name);}\n    function isAdmin(address _who) external view returns(bool) {return(admins_[_who].isAdmin);}\n    function isDev(address _who) external view returns(bool) {return(admins_[_who].isDev);}\n}",
  "sourcePath": "/root/projects/fomo3d_clone/contracts/TeamJust.sol",
  "compiler": {
    "name": "solc",
    "version": "0.4.24+commit.e67f0147.Emscripten.clang"
  },
  "schemaVersion": "2.0.1",
  "updatedAt": "2018-07-31T18:01:56.727Z"
}